{
  "address": "0xDc112945182d21d10DEfEb1E179F96F5075BB6BF",
  "abi": [
    {
      "inputs": [
        {
          "internalType": "string",
          "name": "name",
          "type": "string"
        },
        {
          "internalType": "string",
          "name": "symbol",
          "type": "string"
        }
      ],
      "stateMutability": "nonpayable",
      "type": "constructor"
    },
    {
      "inputs": [],
      "name": "AccessControlBadConfirmation",
      "type": "error"
    },
    {
      "inputs": [
        {
          "internalType": "address",
          "name": "account",
          "type": "address"
        },
        {
          "internalType": "bytes32",
          "name": "neededRole",
          "type": "bytes32"
        }
      ],
      "name": "AccessControlUnauthorizedAccount",
      "type": "error"
    },
    {
      "inputs": [],
      "name": "ERC721EnumerableForbiddenBatchMint",
      "type": "error"
    },
    {
      "inputs": [
        {
          "internalType": "address",
          "name": "sender",
          "type": "address"
        },
        {
          "internalType": "uint256",
          "name": "tokenId",
          "type": "uint256"
        },
        {
          "internalType": "address",
          "name": "owner",
          "type": "address"
        }
      ],
      "name": "ERC721IncorrectOwner",
      "type": "error"
    },
    {
      "inputs": [
        {
          "internalType": "address",
          "name": "operator",
          "type": "address"
        },
        {
          "internalType": "uint256",
          "name": "tokenId",
          "type": "uint256"
        }
      ],
      "name": "ERC721InsufficientApproval",
      "type": "error"
    },
    {
      "inputs": [
        {
          "internalType": "address",
          "name": "approver",
          "type": "address"
        }
      ],
      "name": "ERC721InvalidApprover",
      "type": "error"
    },
    {
      "inputs": [
        {
          "internalType": "address",
          "name": "operator",
          "type": "address"
        }
      ],
      "name": "ERC721InvalidOperator",
      "type": "error"
    },
    {
      "inputs": [
        {
          "internalType": "address",
          "name": "owner",
          "type": "address"
        }
      ],
      "name": "ERC721InvalidOwner",
      "type": "error"
    },
    {
      "inputs": [
        {
          "internalType": "address",
          "name": "receiver",
          "type": "address"
        }
      ],
      "name": "ERC721InvalidReceiver",
      "type": "error"
    },
    {
      "inputs": [
        {
          "internalType": "address",
          "name": "sender",
          "type": "address"
        }
      ],
      "name": "ERC721InvalidSender",
      "type": "error"
    },
    {
      "inputs": [
        {
          "internalType": "uint256",
          "name": "tokenId",
          "type": "uint256"
        }
      ],
      "name": "ERC721NonexistentToken",
      "type": "error"
    },
    {
      "inputs": [
        {
          "internalType": "address",
          "name": "owner",
          "type": "address"
        },
        {
          "internalType": "uint256",
          "name": "index",
          "type": "uint256"
        }
      ],
      "name": "ERC721OutOfBoundsIndex",
      "type": "error"
    },
    {
      "anonymous": false,
      "inputs": [
        {
          "indexed": true,
          "internalType": "address",
          "name": "owner",
          "type": "address"
        },
        {
          "indexed": true,
          "internalType": "address",
          "name": "approved",
          "type": "address"
        },
        {
          "indexed": true,
          "internalType": "uint256",
          "name": "tokenId",
          "type": "uint256"
        }
      ],
      "name": "Approval",
      "type": "event"
    },
    {
      "anonymous": false,
      "inputs": [
        {
          "indexed": true,
          "internalType": "address",
          "name": "owner",
          "type": "address"
        },
        {
          "indexed": true,
          "internalType": "address",
          "name": "operator",
          "type": "address"
        },
        {
          "indexed": false,
          "internalType": "bool",
          "name": "approved",
          "type": "bool"
        }
      ],
      "name": "ApprovalForAll",
      "type": "event"
    },
    {
      "anonymous": false,
      "inputs": [
        {
          "indexed": true,
          "internalType": "uint256",
          "name": "tokenId",
          "type": "uint256"
        },
        {
          "indexed": true,
          "internalType": "address",
          "name": "from",
          "type": "address"
        },
        {
          "indexed": true,
          "internalType": "address",
          "name": "to",
          "type": "address"
        },
        {
          "indexed": false,
          "internalType": "uint256",
          "name": "timestamp",
          "type": "uint256"
        }
      ],
      "name": "CertificateTransferred",
      "type": "event"
    },
    {
      "anonymous": false,
      "inputs": [
        {
          "indexed": true,
          "internalType": "bytes32",
          "name": "role",
          "type": "bytes32"
        },
        {
          "indexed": true,
          "internalType": "bytes32",
          "name": "previousAdminRole",
          "type": "bytes32"
        },
        {
          "indexed": true,
          "internalType": "bytes32",
          "name": "newAdminRole",
          "type": "bytes32"
        }
      ],
      "name": "RoleAdminChanged",
      "type": "event"
    },
    {
      "anonymous": false,
      "inputs": [
        {
          "indexed": true,
          "internalType": "bytes32",
          "name": "role",
          "type": "bytes32"
        },
        {
          "indexed": true,
          "internalType": "address",
          "name": "account",
          "type": "address"
        },
        {
          "indexed": true,
          "internalType": "address",
          "name": "sender",
          "type": "address"
        }
      ],
      "name": "RoleGranted",
      "type": "event"
    },
    {
      "anonymous": false,
      "inputs": [
        {
          "indexed": true,
          "internalType": "bytes32",
          "name": "role",
          "type": "bytes32"
        },
        {
          "indexed": true,
          "internalType": "address",
          "name": "account",
          "type": "address"
        },
        {
          "indexed": true,
          "internalType": "address",
          "name": "sender",
          "type": "address"
        }
      ],
      "name": "RoleRevoked",
      "type": "event"
    },
    {
      "anonymous": false,
      "inputs": [
        {
          "indexed": true,
          "internalType": "address",
          "name": "from",
          "type": "address"
        },
        {
          "indexed": true,
          "internalType": "address",
          "name": "to",
          "type": "address"
        },
        {
          "indexed": true,
          "internalType": "uint256",
          "name": "tokenId",
          "type": "uint256"
        }
      ],
      "name": "Transfer",
      "type": "event"
    },
    {
      "inputs": [],
      "name": "DEFAULT_ADMIN_ROLE",
      "outputs": [
        {
          "internalType": "bytes32",
          "name": "",
          "type": "bytes32"
        }
      ],
      "stateMutability": "view",
      "type": "function"
    },
    {
      "inputs": [],
      "name": "MINTER_ROLE",
      "outputs": [
        {
          "internalType": "bytes32",
          "name": "",
          "type": "bytes32"
        }
      ],
      "stateMutability": "view",
      "type": "function"
    },
    {
      "inputs": [],
      "name": "TRANSFER_COOLDOWN",
      "outputs": [
        {
          "internalType": "uint256",
          "name": "",
          "type": "uint256"
        }
      ],
      "stateMutability": "view",
      "type": "function"
    },
    {
      "inputs": [
        {
          "internalType": "address",
          "name": "to",
          "type": "address"
        },
        {
          "internalType": "uint256",
          "name": "tokenId",
          "type": "uint256"
        }
      ],
      "name": "approve",
      "outputs": [],
      "stateMutability": "nonpayable",
      "type": "function"
    },
    {
      "inputs": [
        {
          "internalType": "address",
          "name": "owner",
          "type": "address"
        }
      ],
      "name": "balanceOf",
      "outputs": [
        {
          "internalType": "uint256",
          "name": "",
          "type": "uint256"
        }
      ],
      "stateMutability": "view",
      "type": "function"
    },
    {
      "inputs": [
        {
          "internalType": "uint256",
          "name": "depositId",
          "type": "uint256"
        }
      ],
      "name": "burnCertificate",
      "outputs": [],
      "stateMutability": "nonpayable",
      "type": "function"
    },
    {
      "inputs": [
        {
          "internalType": "uint256",
          "name": "depositId",
          "type": "uint256"
        }
      ],
      "name": "exists",
      "outputs": [
        {
          "internalType": "bool",
          "name": "",
          "type": "bool"
        }
      ],
      "stateMutability": "view",
      "type": "function"
    },
    {
      "inputs": [
        {
          "internalType": "uint256",
          "name": "tokenId",
          "type": "uint256"
        }
      ],
      "name": "getApproved",
      "outputs": [
        {
          "internalType": "address",
          "name": "",
          "type": "address"
        }
      ],
      "stateMutability": "view",
      "type": "function"
    },
    {
      "inputs": [
        {
          "internalType": "uint256",
          "name": "tokenId",
          "type": "uint256"
        }
      ],
      "name": "getLastTransferTime",
      "outputs": [
        {
          "internalType": "uint256",
          "name": "",
          "type": "uint256"
        }
      ],
      "stateMutability": "view",
      "type": "function"
    },
    {
      "inputs": [
        {
          "internalType": "uint256",
          "name": "tokenId",
          "type": "uint256"
        }
      ],
      "name": "getRemainingCooldown",
      "outputs": [
        {
          "internalType": "uint256",
          "name": "",
          "type": "uint256"
        }
      ],
      "stateMutability": "view",
      "type": "function"
    },
    {
      "inputs": [
        {
          "internalType": "bytes32",
          "name": "role",
          "type": "bytes32"
        }
      ],
      "name": "getRoleAdmin",
      "outputs": [
        {
          "internalType": "bytes32",
          "name": "",
          "type": "bytes32"
        }
      ],
      "stateMutability": "view",
      "type": "function"
    },
    {
      "inputs": [
        {
          "internalType": "bytes32",
          "name": "role",
          "type": "bytes32"
        },
        {
          "internalType": "address",
          "name": "account",
          "type": "address"
        }
      ],
      "name": "grantRole",
      "outputs": [],
      "stateMutability": "nonpayable",
      "type": "function"
    },
    {
      "inputs": [
        {
          "internalType": "bytes32",
          "name": "role",
          "type": "bytes32"
        },
        {
          "internalType": "address",
          "name": "account",
          "type": "address"
        }
      ],
      "name": "hasRole",
      "outputs": [
        {
          "internalType": "bool",
          "name": "",
          "type": "bool"
        }
      ],
      "stateMutability": "view",
      "type": "function"
    },
    {
      "inputs": [
        {
          "internalType": "address",
          "name": "owner",
          "type": "address"
        },
        {
          "internalType": "address",
          "name": "operator",
          "type": "address"
        }
      ],
      "name": "isApprovedForAll",
      "outputs": [
        {
          "internalType": "bool",
          "name": "",
          "type": "bool"
        }
      ],
      "stateMutability": "view",
      "type": "function"
    },
    {
      "inputs": [
        {
          "internalType": "uint256",
          "name": "tokenId",
          "type": "uint256"
        }
      ],
      "name": "isInCooldown",
      "outputs": [
        {
          "internalType": "bool",
          "name": "",
          "type": "bool"
        }
      ],
      "stateMutability": "view",
      "type": "function"
    },
    {
      "inputs": [
        {
          "internalType": "address",
          "name": "to",
          "type": "address"
        },
        {
          "internalType": "uint256",
          "name": "depositId",
          "type": "uint256"
        }
      ],
      "name": "mintCertificate",
      "outputs": [
        {
          "internalType": "uint256",
          "name": "",
          "type": "uint256"
        }
      ],
      "stateMutability": "nonpayable",
      "type": "function"
    },
    {
      "inputs": [],
      "name": "name",
      "outputs": [
        {
          "internalType": "string",
          "name": "",
          "type": "string"
        }
      ],
      "stateMutability": "view",
      "type": "function"
    },
    {
      "inputs": [
        {
          "internalType": "uint256",
          "name": "tokenId",
          "type": "uint256"
        }
      ],
      "name": "ownerOf",
      "outputs": [
        {
          "internalType": "address",
          "name": "",
          "type": "address"
        }
      ],
      "stateMutability": "view",
      "type": "function"
    },
    {
      "inputs": [
        {
          "internalType": "bytes32",
          "name": "role",
          "type": "bytes32"
        },
        {
          "internalType": "address",
          "name": "callerConfirmation",
          "type": "address"
        }
      ],
      "name": "renounceRole",
      "outputs": [],
      "stateMutability": "nonpayable",
      "type": "function"
    },
    {
      "inputs": [
        {
          "internalType": "bytes32",
          "name": "role",
          "type": "bytes32"
        },
        {
          "internalType": "address",
          "name": "account",
          "type": "address"
        }
      ],
      "name": "revokeRole",
      "outputs": [],
      "stateMutability": "nonpayable",
      "type": "function"
    },
    {
      "inputs": [
        {
          "internalType": "address",
          "name": "from",
          "type": "address"
        },
        {
          "internalType": "address",
          "name": "to",
          "type": "address"
        },
        {
          "internalType": "uint256",
          "name": "tokenId",
          "type": "uint256"
        }
      ],
      "name": "safeTransferFrom",
      "outputs": [],
      "stateMutability": "nonpayable",
      "type": "function"
    },
    {
      "inputs": [
        {
          "internalType": "address",
          "name": "from",
          "type": "address"
        },
        {
          "internalType": "address",
          "name": "to",
          "type": "address"
        },
        {
          "internalType": "uint256",
          "name": "tokenId",
          "type": "uint256"
        },
        {
          "internalType": "bytes",
          "name": "data",
          "type": "bytes"
        }
      ],
      "name": "safeTransferFrom",
      "outputs": [],
      "stateMutability": "nonpayable",
      "type": "function"
    },
    {
      "inputs": [
        {
          "internalType": "address",
          "name": "operator",
          "type": "address"
        },
        {
          "internalType": "bool",
          "name": "approved",
          "type": "bool"
        }
      ],
      "name": "setApprovalForAll",
      "outputs": [],
      "stateMutability": "nonpayable",
      "type": "function"
    },
    {
      "inputs": [
        {
          "internalType": "string",
          "name": "baseTokenURI",
          "type": "string"
        }
      ],
      "name": "setBaseURI",
      "outputs": [],
      "stateMutability": "nonpayable",
      "type": "function"
    },
    {
      "inputs": [
        {
          "internalType": "bytes4",
          "name": "interfaceId",
          "type": "bytes4"
        }
      ],
      "name": "supportsInterface",
      "outputs": [
        {
          "internalType": "bool",
          "name": "",
          "type": "bool"
        }
      ],
      "stateMutability": "view",
      "type": "function"
    },
    {
      "inputs": [],
      "name": "symbol",
      "outputs": [
        {
          "internalType": "string",
          "name": "",
          "type": "string"
        }
      ],
      "stateMutability": "view",
      "type": "function"
    },
    {
      "inputs": [
        {
          "internalType": "uint256",
          "name": "index",
          "type": "uint256"
        }
      ],
      "name": "tokenByIndex",
      "outputs": [
        {
          "internalType": "uint256",
          "name": "",
          "type": "uint256"
        }
      ],
      "stateMutability": "view",
      "type": "function"
    },
    {
      "inputs": [
        {
          "internalType": "address",
          "name": "owner",
          "type": "address"
        },
        {
          "internalType": "uint256",
          "name": "index",
          "type": "uint256"
        }
      ],
      "name": "tokenOfOwnerByIndex",
      "outputs": [
        {
          "internalType": "uint256",
          "name": "",
          "type": "uint256"
        }
      ],
      "stateMutability": "view",
      "type": "function"
    },
    {
      "inputs": [
        {
          "internalType": "uint256",
          "name": "tokenId",
          "type": "uint256"
        }
      ],
      "name": "tokenURI",
      "outputs": [
        {
          "internalType": "string",
          "name": "",
          "type": "string"
        }
      ],
      "stateMutability": "view",
      "type": "function"
    },
    {
      "inputs": [],
      "name": "totalSupply",
      "outputs": [
        {
          "internalType": "uint256",
          "name": "",
          "type": "uint256"
        }
      ],
      "stateMutability": "view",
      "type": "function"
    },
    {
      "inputs": [
        {
          "internalType": "address",
          "name": "from",
          "type": "address"
        },
        {
          "internalType": "address",
          "name": "to",
          "type": "address"
        },
        {
          "internalType": "uint256",
          "name": "tokenId",
          "type": "uint256"
        }
      ],
      "name": "transferFrom",
      "outputs": [],
      "stateMutability": "nonpayable",
      "type": "function"
    }
  ],
  "transactionHash": "0xe3473c3df4be57426b395b74742fe8a87d6d2de0ad4b1e86e635bfdd009f5b9b",
  "args": [
    "SavingBank Deposit Certificate",
    "SBDC"
  ],
  "numDeployments": 1,
  "solcInputHash": "f9d5988c7a39122932fb8f0a840fb2fb",
  "bytecode": "0x608060405234610336576126ce803803806100198161033b565b9283398101906040818303126103365780516001600160401b0381116103365782610045918301610360565b60208201519092906001600160401b038111610336576100659201610360565b81516001600160401b03811161024357600054600181811c9116801561032c575b602082101461022357601f81116102c8575b50602092601f82116001146102645792819293600092610259575b50508160011b916000199060031b1c1916176000555b80516001600160401b03811161024357600154600181811c91168015610239575b602082101461022357601f81116101be575b50602091601f821160011461015a5791819260009261014f575b50508160011b916000199060031b1c1916176001555b610135336103cb565b5061013f3361046b565b5060405161218a90816105048239f35b015190503880610116565b601f198216926001600052806000209160005b8581106101a65750836001951061018d575b505050811b0160015561012c565b015160001960f88460031b161c1916905538808061017f565b9192602060018192868501518155019401920161016d565b60016000527fb10e2d527612073b26eecdfd717e6a320cf44b4afac2b0732d9fcbe2b7fa0cf6601f830160051c81019160208410610219575b601f0160051c01905b81811061020d57506100fc565b60008155600101610200565b90915081906101f7565b634e487b7160e01b600052602260045260246000fd5b90607f16906100ea565b634e487b7160e01b600052604160045260246000fd5b0151905038806100b3565b601f1982169360008052806000209160005b8681106102b05750836001959610610297575b505050811b016000556100c9565b015160001960f88460031b161c19169055388080610289565b91926020600181928685015181550194019201610276565b600080527f290decd9548b62a8d60345a988386fc84ba6bc95484008f6362f93160ef3e563601f830160051c81019160208410610322575b601f0160051c01905b8181106103165750610098565b60008155600101610309565b9091508190610300565b90607f1690610086565b600080fd5b6040519190601f01601f191682016001600160401b0381118382101761024357604052565b81601f82011215610336578051906001600160401b0382116102435761038f601f8301601f191660200161033b565b92828452602083830101116103365760005b8281106103b657505060206000918301015290565b806020809284010151828287010152016103a1565b6001600160a01b03811660009081527f13da86008ba1c6922daee3e07db95305ef49ebced9f5467a0b8613fcc6b343e3602052604090205460ff16610465576001600160a01b031660008181527f13da86008ba1c6922daee3e07db95305ef49ebced9f5467a0b8613fcc6b343e360205260408120805460ff1916600117905533919060008051602061268e8339815191528180a4600190565b50600090565b6001600160a01b03811660009081526000805160206126ae833981519152602052604090205460ff16610465576001600160a01b031660008181526000805160206126ae83398151915260205260408120805460ff191660011790553391907f9f2df0fed2c77648de5860a4cc508cd0818c85b8b8a1ab4ceeef8d981c8956a69060008051602061268e8339815191529080a460019056fe608080604052600436101561001357600080fd5b60003560e01c90816301ffc9a7146117365750806306fdde0314611691578063081812fc14611652578063095ea7b31461154357806318160ddd1461152557806323b872dd1461150e578063248a9ca3146114e15780632f2ff15d146114a15780632f745c591461142f57806336568abe146113d057806342842e0e146113a05780634f558e791461136f5780634f6ccce71461131e57806355f804b3146110f15780636352211e146110c257806370a082311461109f578063749f25fc146110775780637a4a3412146110595780638e3dcabf1461103357806391d1485414610fe557806393b16b4514610cec57806395d89b4114610c1e578063a217fddf14610c02578063a22cb46514610b48578063a5015dd1146105d7578063b88d4fde1461056b578063c87b56dd14610284578063d539139314610249578063d547741f14610202578063e985e9c5146101a55763f254ceb31461017457600080fd5b346101a05760203660031901126101a057600435600052600c6020526020604060002054604051908152f35b600080fd5b346101a05760403660031901126101a0576101be61189b565b6001600160a01b036101ce6118b1565b911660005260056020526001600160a01b0360406000209116600052602052602060ff604060002054166040519015158152f35b346101a05760403660031901126101a0576102476004356102216118b1565b9061024261023d82600052600a60205260016040600020015490565b611ea7565b611f81565b005b346101a05760003660031901126101a05760206040517f9f2df0fed2c77648de5860a4cc508cd0818c85b8b8a1ab4ceeef8d981c8956a68152f35b346101a05760203660031901126101a0576004356102a181611e12565b50604051600d5491906000816102b685611976565b91828252602082019560018116908160001461054f57506001146104ee575b6102e192500382611901565b8051600090156104d057508190826000937a184f03e93ff9f4daa797ed6e38ed64bf6a1f0100000000000000008110156104a5575b50806d04ee2d6d415b85acef8100000000600a92101561048a575b662386f26fc10000811015610476575b6305f5e100811015610465575b612710811015610456575b6064811015610448575b101561043e575b6001830191600a602161039561037f86611923565b9561038d6040519788611901565b808752611923565b602086019690601f19013688378501015b60001901917f30313233343536373839616263646566000000000000000000000000000000008282061a8353049081156103e257600a906103a6565b50506020610407936104269361041661043a9760405197889651809287890190611853565b85019151809385840190611853565b010103601f198101835282611901565b604051918291602083526020830190611876565b0390f35b916001019161036a565b606460029104940193610363565b61271060049104940193610359565b6305f5e1006008910494019361034e565b662386f26fc1000060109104940193610341565b6d04ee2d6d415b85acef810000000060209104940193610331565b604094507a184f03e93ff9f4daa797ed6e38ed64bf6a1f01000000000000000090049050600a610316565b91505061043a9150604051906104e7602083611901565b8152610426565b5090600d6000527fd7b6990105719101dabeb77144f2a3385c8033acd3af97e9423a695e81ad1eb5906000915b8183106105335750509060206102e1928201016102d5565b602091935080600191548385880101520191019091839261051b565b60ff19168752506102e192151560051b820160200190506102d5565b346101a05760803660031901126101a05761058461189b565b61058c6118b1565b906044356064359267ffffffffffffffff84116101a057366023850112156101a0576105c561024794369060248160040135910161193f565b926105d18383836119b0565b33612010565b346101a05760403660031901126101a0576105f061189b565b6024356105fb611e35565b80600052600b60205260ff60406000205416610ade576001600160a01b038216918215610a9a5781600052600b6020526040600020600160ff1982541617905560209260405161064b8582611901565b60008152600092848452600286526001600160a01b0360408520541680159081159182610a61575b85158381159283610a4a575b8a8a5260028c5260408a20896001600160a01b03198254161790558a89867fddf252ad1be2c89b69c2b068fc378daa952ba7f163c4a11628f55a4df523b3ef8d80a4156109cd575060085489895260098b528060408a2055680100000000000000008110156109b957906107178a6106fe846001899601600855611d0d565b90919082549060031b91821b91600019901b1916179055565b156109705750600854600019810190811161095c5788885260098a52610741604089205491611d0d565b90549060031b1c610755816106fe84611d0d565b885260098a526040882055878752600989528660408120556008548015610948578391906000190161079a61078982611d0d565b8154906000199060031b1b19169055565b6008555b81610940575b50610902575b506108d65785903b6107bf575b604051858152f35b6107f79160405180938192630a85bd0160e11b8352336004840152876024840152886044840152608060648401526084830190611876565b038186865af1839181610892575b5061085c578483833d15610855573d61081d81611923565b9061082b6040519283611901565b81523d838583013e5b8051938461084f5760248484633250574960e11b8252600452fd5b84925001fd5b6060610834565b6001600160e01b0319630a85bd0160e11b91160361087f575050828080846107b7565b60249250633250574960e11b8252600452fd5b9091508581813d83116108cf575b6108aa8183611901565b810103126108cb57516001600160e01b0319811681036108cb579086610805565b8380fd5b503d6108a0565b6024847f73c6ac6e00000000000000000000000000000000000000000000000000000000815280600452fd5b868652600c88524260408720558481887f634a85b36d67a9395597c188fd416e0f5ff0da58c3eb547684e0e3c71b503d4f8b604051428152a46107aa565b9050896107a4565b602488634e487b7160e01b81526031600452fd5b602488634e487b7160e01b81526011600452fd5b9082871461079e57905061098384611d3e565b600019810190811161095c5790839187895260068b5260408920818a528b528960408a205589895260078b52604089205561079e565b602489634e487b7160e01b81526041600452fd5b90838814610717578a6109df85611d3e565b8b8b526007825260408b2054868c52600683528b604081209383808403610a20575b50508d91505260078d528a60408120558a528b52886040812055610717565b600792528481528d604081205490848152868352816040822055525260408c20558d8b8e83610a01565b888a5260038c5260408a206001815401905561067f565b610a8288600052600460205260406000206001600160a01b03198154169055565b81875260038952604087208054600019019055610673565b606460405162461bcd60e51b815260206004820152601b60248201527f43616e6e6f74206d696e7420746f207a65726f206164647265737300000000006044820152fd5b608460405162461bcd60e51b815260206004820152602b60248201527f436572746966696361746520616c72656164792065786973747320666f72207460448201527f686973206465706f7369740000000000000000000000000000000000000000006064820152fd5b346101a05760403660031901126101a057610b6161189b565b602435908115158092036101a0576001600160a01b0316908115610bd457336000526005602052604060002082600052602052604060002060ff1981541660ff83161790556040519081527f17307eab39ab6107e8899845ad3d59bd9653f200f220920489ca2b5937696c3160203392a3005b507f5b08ba180000000000000000000000000000000000000000000000000000000060005260045260246000fd5b346101a05760003660031901126101a057602060405160008152f35b346101a05760003660031901126101a0576040516000600154610c4081611976565b8084529060018116908115610cc85750600114610c68575b61043a8361042681850382611901565b91905060016000527fb10e2d527612073b26eecdfd717e6a320cf44b4afac2b0732d9fcbe2b7fa0cf6916000905b808210610cae57509091508101602001610426610c58565b919260018160209254838588010152019101909291610c96565b60ff191660208086019190915291151560051b840190910191506104269050610c58565b346101a05760203660031901126101a057600435610d08611e35565b80600052600b60205260ff6040600020541615610fa1576000818152600b60209081526040808320805460ff1916905560029091528120546001600160a01b0316801591821580610f67575b8482526002602052604082206001600160a01b031981541690558482847fddf252ad1be2c89b69c2b068fc378daa952ba7f163c4a11628f55a4df523b3ef8280a4808415610eec5750600854858352600960205280604084205568010000000000000000811015610ed857856106fe826001610dd39401600855611d0d565b6008546000198101908111610ec4578583526009602052610df8604084205491611d0d565b90549060031b1c610e0c816106fe84611d0d565b83526009602052604083205584825260096020528160408120556008548015610eb05760001901610e3f61078982611d0d565b60085580610ea9575b610e69575b5050610e5557005b637e27328960e01b60005260045260246000fd5b838152600c60205242604082205581847f634a85b36d67a9395597c188fd416e0f5ff0da58c3eb547684e0e3c71b503d4f6020604051428152a483610e4d565b5080610e48565b602483634e487b7160e01b81526031600452fd5b602483634e487b7160e01b81526011600452fd5b602483634e487b7160e01b81526041600452fd5b15610dd357610efa83611d3e565b858352600760205260408320549084845260066020526040842091818103610f3c575b5086845260076020528360408120558352602052816040812055610dd3565b8185528260205260408520548186528360205280604087205585526007602052604085205587610f1d565b610f8885600052600460205260406000206001600160a01b03198154169055565b8282526003602052604082208054600019019055610d54565b606460405162461bcd60e51b815260206004820152601a60248201527f436572746966696361746520646f6573206e6f742065786973740000000000006044820152fd5b346101a05760403660031901126101a057610ffe6118b1565b600435600052600a6020526001600160a01b0360406000209116600052602052602060ff604060002054166040519015158152f35b346101a05760203660031901126101a0576020611051600435611dcf565b604051908152f35b346101a05760003660031901126101a0576020604051620151808152f35b346101a05760203660031901126101a0576020611095600435611d8d565b6040519015158152f35b346101a05760203660031901126101a05760206110516110bd61189b565b611d3e565b346101a05760203660031901126101a05760206110e0600435611e12565b6001600160a01b0360405191168152f35b346101a05760203660031901126101a05760043567ffffffffffffffff81116101a057366023820112156101a05761113390369060248160040135910161193f565b3360009081527f13da86008ba1c6922daee3e07db95305ef49ebced9f5467a0b8613fcc6b343e3602052604090205460ff161561130457805167ffffffffffffffff81116112ee57611186600d54611976565b601f811161124b575b50602091601f82116001146111cd579181926000926111c2575b5050600019600383901b1c191660019190911b17600d55005b0151905082806111a9565b601f19821692600d6000527fd7b6990105719101dabeb77144f2a3385c8033acd3af97e9423a695e81ad1eb59160005b8581106112335750836001951061121a575b505050811b01600d55005b015160001960f88460031b161c1916905582808061120f565b919260206001819286850151815501940192016111fd565b600d600052601f820160051c7fd7b6990105719101dabeb77144f2a3385c8033acd3af97e9423a695e81ad1eb50190602083106112c6575b601f0160051c7fd7b6990105719101dabeb77144f2a3385c8033acd3af97e9423a695e81ad1eb501905b8181106112ba575061118f565b600081556001016112ad565b7fd7b6990105719101dabeb77144f2a3385c8033acd3af97e9423a695e81ad1eb59150611283565b634e487b7160e01b600052604160045260246000fd5b63e2517d3f60e01b60005233600452600060245260446000fd5b346101a05760203660031901126101a05760043560085481101561135657611347602091611d0d565b90549060031b1c604051908152f35b63295f44f760e21b600052600060045260245260446000fd5b346101a05760203660031901126101a057600435600052600b602052602060ff604060002054166040519015158152f35b346101a0576102476113b1366118c7565b90604051926113c1602085611901565b600084526105d18383836119b0565b346101a05760403660031901126101a0576113e96118b1565b336001600160a01b038216036114055761024790600435611f81565b7f6697b2320000000000000000000000000000000000000000000000000000000060005260046000fd5b346101a05760403660031901126101a05761144861189b565b6001600160a01b036024359161145d81611d3e565b831015611489571660005260066020526040600020906000526020526020604060002054604051908152f35b63295f44f760e21b6000521660045260245260446000fd5b346101a05760403660031901126101a0576102476004356114c06118b1565b906114dc61023d82600052600a60205260016040600020015490565b611eee565b346101a05760203660031901126101a0576020611051600435600052600a60205260016040600020015490565b346101a05761024761151f366118c7565b916119b0565b346101a05760003660031901126101a0576020600854604051908152f35b346101a05760403660031901126101a05761155c61189b565b60243561156881611e12565b3315158061163f575b80611608575b6115da5781906001600160a01b0380851691167f8c5be1e5ebec7d5bd14f71427d1e84f3dd0314c0f7b2291e5b200ac8c7c3b925600080a460005260046020526001600160a01b03604060002091166001600160a01b0319825416179055600080f35b7fa9fbf51f000000000000000000000000000000000000000000000000000000006000523360045260246000fd5b506001600160a01b038116600052600560205260406000206001600160a01b03331660005260205260ff6040600020541615611577565b50336001600160a01b0382161415611571565b346101a05760203660031901126101a05760043561166f81611e12565b50600052600460205260206001600160a01b0360406000205416604051908152f35b346101a05760003660031901126101a057604051600080546116b281611976565b8084529060018116908115610cc857506001146116d95761043a8361042681850382611901565b60008080527f290decd9548b62a8d60345a988386fc84ba6bc95484008f6362f93160ef3e563939250905b80821061171c57509091508101602001610426610c58565b919260018160209254838588010152019101909291611704565b346101a05760203660031901126101a057600435906001600160e01b031982168092036101a057817f7965db0b0000000000000000000000000000000000000000000000000000000060209314908115611792575b5015158152f35b7f780e9d63000000000000000000000000000000000000000000000000000000008114915081156117c5575b508361178b565b7f80ac58cd00000000000000000000000000000000000000000000000000000000811491508115611829575b81156117ff575b50836117be565b7f01ffc9a700000000000000000000000000000000000000000000000000000000915014836117f8565b7f5b5e139f00000000000000000000000000000000000000000000000000000000811491506117f1565b60005b8381106118665750506000910152565b8181015183820152602001611856565b9060209161188f81518092818552858086019101611853565b601f01601f1916010190565b600435906001600160a01b03821682036101a057565b602435906001600160a01b03821682036101a057565b60609060031901126101a0576004356001600160a01b03811681036101a057906024356001600160a01b03811681036101a0579060443590565b90601f8019910116810190811067ffffffffffffffff8211176112ee57604052565b67ffffffffffffffff81116112ee57601f01601f191660200190565b92919261194b82611923565b916119596040519384611901565b8294818452818301116101a0578281602093846000960137010152565b90600182811c921680156119a6575b602083101461199057565b634e487b7160e01b600052602260045260246000fd5b91607f1691611985565b9092916001600160a01b038416918215611cf75760009282845260026020526001600160a01b036040852054169333151580611c47575b5084159687159788611c0d575b83835260036020526040832060018154019055858352600260205260408320846001600160a01b03198254161790558584887fddf252ad1be2c89b69c2b068fc378daa952ba7f163c4a11628f55a4df523b3ef8680a415611b9057600854858352600960205280604084205568010000000000000000811015610ed857856106fe826001611a859401600855611d0d565b828603611b31575b50866001600160a01b039495969790611b29575b611ae8575b505016808303611ab557505050565b7f64283d7b0000000000000000000000000000000000000000000000000000000060005260045260245260445260646000fd5b848152600c60205260404291205584847f634a85b36d67a9395597c188fd416e0f5ff0da58c3eb547684e0e3c71b503d4f6020604051428152a43880611aa6565b506001611aa1565b611b3a90611d3e565b600019810197908811611b7c578282526006602090815260408084208a8552825280842087905586845260079091528220979097556001600160a01b03611a8d565b602482634e487b7160e01b81526011600452fd5b858314611a8557611ba086611d3e565b858352600760205260408320549087845260066020526040842091818103611be2575b5086845260076020528360408120558352602052816040812055611a85565b8185528260205260408520548186528360205280604087205585526007602052604085205538611bc3565b611c2e86600052600460205260406000206001600160a01b03198154169055565b86835260036020526040832080546000190190556119f4565b80611ca0575b15611c5857386119e7565b839085611c7157602491637e27328960e01b8252600452fd5b6044917f177e802f00000000000000000000000000000000000000000000000000000000825233600452602452fd5b503385148015611cce575b80611c4d57508381526004602052336001600160a01b0360408320541614611c4d565b508481526005602052604081206001600160a01b033316825260205260ff604082205416611cab565b633250574960e11b600052600060045260246000fd5b600854811015611d2857600860005260206000200190600090565b634e487b7160e01b600052603260045260246000fd5b6001600160a01b03168015611d5e57600052600360205260406000205490565b7f89c62b6400000000000000000000000000000000000000000000000000000000600052600060045260246000fd5b600052600c6020526040600020548015611dc957620151808101809111611db357421090565b634e487b7160e01b600052601160045260246000fd5b50600090565b600052600c6020526040600020548015611dc95762015180810190818111611db35781421015611e0b574290036201518001908111611db35790565b5050600090565b8060005260026020526001600160a01b0360406000205416908115610e55575090565b3360009081527faa1d7351356c4ddc11907b1ee0660f579cfdf507235af2ae01ecd22a4b7ceaae602052604090205460ff1615611e6e57565b63e2517d3f60e01b600052336004527f9f2df0fed2c77648de5860a4cc508cd0818c85b8b8a1ab4ceeef8d981c8956a660245260446000fd5b80600052600a60205260406000206001600160a01b03331660005260205260ff6040600020541615611ed65750565b63e2517d3f60e01b6000523360045260245260446000fd5b80600052600a60205260406000206001600160a01b03831660005260205260ff6040600020541615600014611e0b5780600052600a60205260406000206001600160a01b0383166000526020526040600020600160ff198254161790556001600160a01b03339216907f2f8788117e7eff1d82e926ec794901d17c78024a50270940304540a733656f0d600080a4600190565b80600052600a60205260406000206001600160a01b03831660005260205260ff60406000205416600014611e0b5780600052600a60205260406000206001600160a01b038316600052602052604060002060ff1981541690556001600160a01b03339216907ff6391f5c32d9c69d2a47ea670b442974b53935d1edc7fd64eb21e047a839171b600080a4600190565b93909293823b612022575b5050505050565b6120696001600160a01b0392836020951696846040519788968796630a85bd0160e11b88521660048701521660248501526044840152608060648401526084830190611876565b03816000865af1809160009161210a575b50906120d357503d156120cc573d61209181611923565b9061209f6040519283611901565b81523d6000602083013e5b805190816120c75782633250574960e11b60005260045260246000fd5b602001fd5b60606120aa565b6001600160e01b0319630a85bd0160e11b9116036120f65750388080808061201b565b633250574960e11b60005260045260246000fd5b6020813d60201161214c575b8161212360209383611901565b810103126121485751906001600160e01b03198216820361214557503861207a565b80fd5b5080fd5b3d915061211656fea26469706673582212202a9e2d099955dd01b08ca269f40f6757e12f0a359c63fd9880dd69a2ddae256e64736f6c634300081c00332f8788117e7eff1d82e926ec794901d17c78024a50270940304540a733656f0daa1d7351356c4ddc11907b1ee0660f579cfdf507235af2ae01ecd22a4b7ceaae",
  "devdoc": {
    "author": "Saving Banking Team",
    "details": "Each deposit is represented by a unique, transferable NFT certificate  Features: - Mints NFT when user creates a deposit (tokenId = depositId) - Burns NFT when deposit is closed (optional, currently not used) - Supports enumeration for listing user's certificates - Transferable: allows secondary market for deposit positions  Security: - Only MINTER_ROLE (typically SavingBank) can mint/burn certificates - DEFAULT_ADMIN_ROLE can manage roles and set base URI",
    "errors": {
      "AccessControlBadConfirmation()": [
        {
          "details": "The caller of a function is not the expected one. NOTE: Don't confuse with {AccessControlUnauthorizedAccount}."
        }
      ],
      "AccessControlUnauthorizedAccount(address,bytes32)": [
        {
          "details": "The `account` is missing a role."
        }
      ],
      "ERC721EnumerableForbiddenBatchMint()": [
        {
          "details": "Batch mint is not allowed."
        }
      ],
      "ERC721IncorrectOwner(address,uint256,address)": [
        {
          "details": "Indicates an error related to the ownership over a particular token. Used in transfers.",
          "params": {
            "owner": "Address of the current owner of a token.",
            "sender": "Address whose tokens are being transferred.",
            "tokenId": "Identifier number of a token."
          }
        }
      ],
      "ERC721InsufficientApproval(address,uint256)": [
        {
          "details": "Indicates a failure with the `operator`s approval. Used in transfers.",
          "params": {
            "operator": "Address that may be allowed to operate on tokens without being their owner.",
            "tokenId": "Identifier number of a token."
          }
        }
      ],
      "ERC721InvalidApprover(address)": [
        {
          "details": "Indicates a failure with the `approver` of a token to be approved. Used in approvals.",
          "params": {
            "approver": "Address initiating an approval operation."
          }
        }
      ],
      "ERC721InvalidOperator(address)": [
        {
          "details": "Indicates a failure with the `operator` to be approved. Used in approvals.",
          "params": {
            "operator": "Address that may be allowed to operate on tokens without being their owner."
          }
        }
      ],
      "ERC721InvalidOwner(address)": [
        {
          "details": "Indicates that an address can't be an owner. For example, `address(0)` is a forbidden owner in ERC-20. Used in balance queries.",
          "params": {
            "owner": "Address of the current owner of a token."
          }
        }
      ],
      "ERC721InvalidReceiver(address)": [
        {
          "details": "Indicates a failure with the token `receiver`. Used in transfers.",
          "params": {
            "receiver": "Address to which tokens are being transferred."
          }
        }
      ],
      "ERC721InvalidSender(address)": [
        {
          "details": "Indicates a failure with the token `sender`. Used in transfers.",
          "params": {
            "sender": "Address whose tokens are being transferred."
          }
        }
      ],
      "ERC721NonexistentToken(uint256)": [
        {
          "details": "Indicates a `tokenId` whose `owner` is the zero address.",
          "params": {
            "tokenId": "Identifier number of a token."
          }
        }
      ],
      "ERC721OutOfBoundsIndex(address,uint256)": [
        {
          "details": "An `owner`'s token query was out of bounds for `index`. NOTE: The owner being `address(0)` indicates a global out of bounds index."
        }
      ]
    },
    "events": {
      "Approval(address,address,uint256)": {
        "details": "Emitted when `owner` enables `approved` to manage the `tokenId` token."
      },
      "ApprovalForAll(address,address,bool)": {
        "details": "Emitted when `owner` enables or disables (`approved`) `operator` to manage all of its assets."
      },
      "RoleAdminChanged(bytes32,bytes32,bytes32)": {
        "details": "Emitted when `newAdminRole` is set as ``role``'s admin role, replacing `previousAdminRole` `DEFAULT_ADMIN_ROLE` is the starting admin for all roles, despite {RoleAdminChanged} not being emitted to signal this."
      },
      "RoleGranted(bytes32,address,address)": {
        "details": "Emitted when `account` is granted `role`. `sender` is the account that originated the contract call. This account bears the admin role (for the granted role). Expected in cases where the role was granted using the internal {AccessControl-_grantRole}."
      },
      "RoleRevoked(bytes32,address,address)": {
        "details": "Emitted when `account` is revoked `role`. `sender` is the account that originated the contract call:   - if using `revokeRole`, it is the admin role bearer   - if using `renounceRole`, it is the role bearer (i.e. `account`)"
      },
      "Transfer(address,address,uint256)": {
        "details": "Emitted when `tokenId` token is transferred from `from` to `to`."
      }
    },
    "kind": "dev",
    "methods": {
      "approve(address,uint256)": {
        "details": "See {IERC721-approve}."
      },
      "balanceOf(address)": {
        "details": "See {IERC721-balanceOf}."
      },
      "burnCertificate(uint256)": {
        "details": "Only callable by addresses with MINTER_ROLE",
        "params": {
          "depositId": "The deposit ID whose certificate will be burned  Requirements: - Certificate for this depositId must exist  Note: Currently not used in SavingBank (certificates remain after withdrawal)"
        }
      },
      "constructor": {
        "details": "Grants DEFAULT_ADMIN_ROLE and MINTER_ROLE to deployer",
        "params": {
          "name": "The name of the NFT collection (e.g., \"SavingBank Deposit Certificate\")",
          "symbol": "The symbol of the NFT collection (e.g., \"SBDC\")"
        }
      },
      "exists(uint256)": {
        "params": {
          "depositId": "The deposit ID to check"
        },
        "returns": {
          "_0": "True if certificate exists, false otherwise"
        }
      },
      "getApproved(uint256)": {
        "details": "See {IERC721-getApproved}."
      },
      "getLastTransferTime(uint256)": {
        "params": {
          "tokenId": "The token ID to check"
        },
        "returns": {
          "_0": "The timestamp of the last transfer (0 if never transferred)"
        }
      },
      "getRemainingCooldown(uint256)": {
        "params": {
          "tokenId": "The token ID to check"
        },
        "returns": {
          "_0": "Remaining seconds in cooldown (0 if not in cooldown)"
        }
      },
      "getRoleAdmin(bytes32)": {
        "details": "Returns the admin role that controls `role`. See {grantRole} and {revokeRole}. To change a role's admin, use {_setRoleAdmin}."
      },
      "grantRole(bytes32,address)": {
        "details": "Grants `role` to `account`. If `account` had not been already granted `role`, emits a {RoleGranted} event. Requirements: - the caller must have ``role``'s admin role. May emit a {RoleGranted} event."
      },
      "hasRole(bytes32,address)": {
        "details": "Returns `true` if `account` has been granted `role`."
      },
      "isApprovedForAll(address,address)": {
        "details": "See {IERC721-isApprovedForAll}."
      },
      "isInCooldown(uint256)": {
        "params": {
          "tokenId": "The token ID to check"
        },
        "returns": {
          "_0": "True if still in cooldown, false if cooldown expired or never transferred"
        }
      },
      "mintCertificate(address,uint256)": {
        "details": "Only callable by addresses with MINTER_ROLE (typically SavingBank)",
        "params": {
          "depositId": "The unique deposit ID (also becomes the tokenId)",
          "to": "The address that will own the certificate"
        },
        "returns": {
          "_0": "The tokenId of the minted certificate (same as depositId)  Requirements: - Certificate for this depositId must not already exist - to must not be zero address  Note: The depositId is used as the tokenId for easy mapping"
        }
      },
      "name()": {
        "details": "See {IERC721Metadata-name}."
      },
      "ownerOf(uint256)": {
        "details": "See {IERC721-ownerOf}."
      },
      "renounceRole(bytes32,address)": {
        "details": "Revokes `role` from the calling account. Roles are often managed via {grantRole} and {revokeRole}: this function's purpose is to provide a mechanism for accounts to lose their privileges if they are compromised (such as when a trusted device is misplaced). If the calling account had been revoked `role`, emits a {RoleRevoked} event. Requirements: - the caller must be `callerConfirmation`. May emit a {RoleRevoked} event."
      },
      "revokeRole(bytes32,address)": {
        "details": "Revokes `role` from `account`. If `account` had been granted `role`, emits a {RoleRevoked} event. Requirements: - the caller must have ``role``'s admin role. May emit a {RoleRevoked} event."
      },
      "safeTransferFrom(address,address,uint256)": {
        "details": "See {IERC721-safeTransferFrom}."
      },
      "safeTransferFrom(address,address,uint256,bytes)": {
        "details": "See {IERC721-safeTransferFrom}."
      },
      "setApprovalForAll(address,bool)": {
        "details": "See {IERC721-setApprovalForAll}."
      },
      "setBaseURI(string)": {
        "details": "Only callable by DEFAULT_ADMIN_ROLE",
        "params": {
          "baseTokenURI": "The base URI to set (e.g., \"https://api.savingbank.com/certificates/\")"
        }
      },
      "supportsInterface(bytes4)": {
        "params": {
          "interfaceId": "The interface identifier to check"
        },
        "returns": {
          "_0": "True if the interface is supported"
        }
      },
      "symbol()": {
        "details": "See {IERC721Metadata-symbol}."
      },
      "tokenByIndex(uint256)": {
        "details": "See {IERC721Enumerable-tokenByIndex}."
      },
      "tokenOfOwnerByIndex(address,uint256)": {
        "details": "See {IERC721Enumerable-tokenOfOwnerByIndex}."
      },
      "tokenURI(uint256)": {
        "details": "See {IERC721Metadata-tokenURI}."
      },
      "totalSupply()": {
        "details": "See {IERC721Enumerable-totalSupply}."
      },
      "transferFrom(address,address,uint256)": {
        "details": "See {IERC721-transferFrom}."
      }
    },
    "stateVariables": {
      "_baseTokenURI": {
        "details": "Base URI for token metadata"
      },
      "_depositExists": {
        "details": "Mapping to track which deposit IDs have certificates"
      },
      "_lastTransferTime": {
        "details": "Mapping to track last transfer timestamp for each token"
      }
    },
    "title": "DepositCertificate",
    "version": 1
  },
  "userdoc": {
    "events": {
      "CertificateTransferred(uint256,address,address,uint256)": {
        "notice": "Emitted when a certificate is transferred between addresses"
      }
    },
    "kind": "user",
    "methods": {
      "MINTER_ROLE()": {
        "notice": "Role identifier for minting and burning certificates"
      },
      "TRANSFER_COOLDOWN()": {
        "notice": "Transfer cooldown period (24 hours) - prevents instant transferwithdrawal attacks"
      },
      "burnCertificate(uint256)": {
        "notice": "Burns a certificate NFT when deposit is closed"
      },
      "constructor": {
        "notice": "Initializes the NFT collection with name and symbol"
      },
      "exists(uint256)": {
        "notice": "Checks if a certificate exists for a given deposit ID"
      },
      "getLastTransferTime(uint256)": {
        "notice": "Get the last transfer timestamp for a token"
      },
      "getRemainingCooldown(uint256)": {
        "notice": "Get remaining cooldown time for a token"
      },
      "isInCooldown(uint256)": {
        "notice": "Check if a token is in transfer cooldown period"
      },
      "mintCertificate(address,uint256)": {
        "notice": "Mints a certificate NFT to represent a deposit"
      },
      "setBaseURI(string)": {
        "notice": "Sets the base URI for token metadata"
      },
      "supportsInterface(bytes4)": {
        "notice": "Checks if the contract supports a given interface"
      }
    },
    "notice": "ERC721 NFT contract representing deposit certificates for saving plans",
    "version": 1
  },
  "storageLayout": {
    "storage": [
      {
        "astId": 1721,
        "contract": "contracts/certificates/DepositCertificate.sol:DepositCertificate",
        "label": "_name",
        "offset": 0,
        "slot": "0",
        "type": "t_string_storage"
      },
      {
        "astId": 1723,
        "contract": "contracts/certificates/DepositCertificate.sol:DepositCertificate",
        "label": "_symbol",
        "offset": 0,
        "slot": "1",
        "type": "t_string_storage"
      },
      {
        "astId": 1727,
        "contract": "contracts/certificates/DepositCertificate.sol:DepositCertificate",
        "label": "_owners",
        "offset": 0,
        "slot": "2",
        "type": "t_mapping(t_uint256,t_address)"
      },
      {
        "astId": 1731,
        "contract": "contracts/certificates/DepositCertificate.sol:DepositCertificate",
        "label": "_balances",
        "offset": 0,
        "slot": "3",
        "type": "t_mapping(t_address,t_uint256)"
      },
      {
        "astId": 1735,
        "contract": "contracts/certificates/DepositCertificate.sol:DepositCertificate",
        "label": "_tokenApprovals",
        "offset": 0,
        "slot": "4",
        "type": "t_mapping(t_uint256,t_address)"
      },
      {
        "astId": 1741,
        "contract": "contracts/certificates/DepositCertificate.sol:DepositCertificate",
        "label": "_operatorApprovals",
        "offset": 0,
        "slot": "5",
        "type": "t_mapping(t_address,t_mapping(t_address,t_bool))"
      },
      {
        "astId": 2799,
        "contract": "contracts/certificates/DepositCertificate.sol:DepositCertificate",
        "label": "_ownedTokens",
        "offset": 0,
        "slot": "6",
        "type": "t_mapping(t_address,t_mapping(t_uint256,t_uint256))"
      },
      {
        "astId": 2803,
        "contract": "contracts/certificates/DepositCertificate.sol:DepositCertificate",
        "label": "_ownedTokensIndex",
        "offset": 0,
        "slot": "7",
        "type": "t_mapping(t_uint256,t_uint256)"
      },
      {
        "astId": 2806,
        "contract": "contracts/certificates/DepositCertificate.sol:DepositCertificate",
        "label": "_allTokens",
        "offset": 0,
        "slot": "8",
        "type": "t_array(t_uint256)dyn_storage"
      },
      {
        "astId": 2810,
        "contract": "contracts/certificates/DepositCertificate.sol:DepositCertificate",
        "label": "_allTokensIndex",
        "offset": 0,
        "slot": "9",
        "type": "t_mapping(t_uint256,t_uint256)"
      },
      {
        "astId": 26,
        "contract": "contracts/certificates/DepositCertificate.sol:DepositCertificate",
        "label": "_roles",
        "offset": 0,
        "slot": "10",
        "type": "t_mapping(t_bytes32,t_struct(RoleData)21_storage)"
      },
      {
        "astId": 10053,
        "contract": "contracts/certificates/DepositCertificate.sol:DepositCertificate",
        "label": "_depositExists",
        "offset": 0,
        "slot": "11",
        "type": "t_mapping(t_uint256,t_bool)"
      },
      {
        "astId": 10058,
        "contract": "contracts/certificates/DepositCertificate.sol:DepositCertificate",
        "label": "_lastTransferTime",
        "offset": 0,
        "slot": "12",
        "type": "t_mapping(t_uint256,t_uint256)"
      },
      {
        "astId": 10061,
        "contract": "contracts/certificates/DepositCertificate.sol:DepositCertificate",
        "label": "_baseTokenURI",
        "offset": 0,
        "slot": "13",
        "type": "t_string_storage"
      }
    ],
    "types": {
      "t_address": {
        "encoding": "inplace",
        "label": "address",
        "numberOfBytes": "20"
      },
      "t_array(t_uint256)dyn_storage": {
        "base": "t_uint256",
        "encoding": "dynamic_array",
        "label": "uint256[]",
        "numberOfBytes": "32"
      },
      "t_bool": {
        "encoding": "inplace",
        "label": "bool",
        "numberOfBytes": "1"
      },
      "t_bytes32": {
        "encoding": "inplace",
        "label": "bytes32",
        "numberOfBytes": "32"
      },
      "t_mapping(t_address,t_bool)": {
        "encoding": "mapping",
        "key": "t_address",
        "label": "mapping(address => bool)",
        "numberOfBytes": "32",
        "value": "t_bool"
      },
      "t_mapping(t_address,t_mapping(t_address,t_bool))": {
        "encoding": "mapping",
        "key": "t_address",
        "label": "mapping(address => mapping(address => bool))",
        "numberOfBytes": "32",
        "value": "t_mapping(t_address,t_bool)"
      },
      "t_mapping(t_address,t_mapping(t_uint256,t_uint256))": {
        "encoding": "mapping",
        "key": "t_address",
        "label": "mapping(address => mapping(uint256 => uint256))",
        "numberOfBytes": "32",
        "value": "t_mapping(t_uint256,t_uint256)"
      },
      "t_mapping(t_address,t_uint256)": {
        "encoding": "mapping",
        "key": "t_address",
        "label": "mapping(address => uint256)",
        "numberOfBytes": "32",
        "value": "t_uint256"
      },
      "t_mapping(t_bytes32,t_struct(RoleData)21_storage)": {
        "encoding": "mapping",
        "key": "t_bytes32",
        "label": "mapping(bytes32 => struct AccessControl.RoleData)",
        "numberOfBytes": "32",
        "value": "t_struct(RoleData)21_storage"
      },
      "t_mapping(t_uint256,t_address)": {
        "encoding": "mapping",
        "key": "t_uint256",
        "label": "mapping(uint256 => address)",
        "numberOfBytes": "32",
        "value": "t_address"
      },
      "t_mapping(t_uint256,t_bool)": {
        "encoding": "mapping",
        "key": "t_uint256",
        "label": "mapping(uint256 => bool)",
        "numberOfBytes": "32",
        "value": "t_bool"
      },
      "t_mapping(t_uint256,t_uint256)": {
        "encoding": "mapping",
        "key": "t_uint256",
        "label": "mapping(uint256 => uint256)",
        "numberOfBytes": "32",
        "value": "t_uint256"
      },
      "t_string_storage": {
        "encoding": "bytes",
        "label": "string",
        "numberOfBytes": "32"
      },
      "t_struct(RoleData)21_storage": {
        "encoding": "inplace",
        "label": "struct AccessControl.RoleData",
        "members": [
          {
            "astId": 18,
            "contract": "contracts/certificates/DepositCertificate.sol:DepositCertificate",
            "label": "hasRole",
            "offset": 0,
            "slot": "0",
            "type": "t_mapping(t_address,t_bool)"
          },
          {
            "astId": 20,
            "contract": "contracts/certificates/DepositCertificate.sol:DepositCertificate",
            "label": "adminRole",
            "offset": 0,
            "slot": "1",
            "type": "t_bytes32"
          }
        ],
        "numberOfBytes": "64"
      },
      "t_uint256": {
        "encoding": "inplace",
        "label": "uint256",
        "numberOfBytes": "32"
      }
    }
  }
}