{
  "address": "0xca06b1BD160140D6624f41e9bDc8aE4bDC296187",
  "abi": [
    {
      "inputs": [],
      "stateMutability": "nonpayable",
      "type": "constructor"
    },
    {
      "inputs": [],
      "name": "AccessControlBadConfirmation",
      "type": "error"
    },
    {
      "inputs": [
        {
          "internalType": "address",
          "name": "account",
          "type": "address"
        },
        {
          "internalType": "bytes32",
          "name": "neededRole",
          "type": "bytes32"
        }
      ],
      "name": "AccessControlUnauthorizedAccount",
      "type": "error"
    },
    {
      "inputs": [
        {
          "internalType": "address",
          "name": "spender",
          "type": "address"
        },
        {
          "internalType": "uint256",
          "name": "allowance",
          "type": "uint256"
        },
        {
          "internalType": "uint256",
          "name": "needed",
          "type": "uint256"
        }
      ],
      "name": "ERC20InsufficientAllowance",
      "type": "error"
    },
    {
      "inputs": [
        {
          "internalType": "address",
          "name": "sender",
          "type": "address"
        },
        {
          "internalType": "uint256",
          "name": "balance",
          "type": "uint256"
        },
        {
          "internalType": "uint256",
          "name": "needed",
          "type": "uint256"
        }
      ],
      "name": "ERC20InsufficientBalance",
      "type": "error"
    },
    {
      "inputs": [
        {
          "internalType": "address",
          "name": "approver",
          "type": "address"
        }
      ],
      "name": "ERC20InvalidApprover",
      "type": "error"
    },
    {
      "inputs": [
        {
          "internalType": "address",
          "name": "receiver",
          "type": "address"
        }
      ],
      "name": "ERC20InvalidReceiver",
      "type": "error"
    },
    {
      "inputs": [
        {
          "internalType": "address",
          "name": "sender",
          "type": "address"
        }
      ],
      "name": "ERC20InvalidSender",
      "type": "error"
    },
    {
      "inputs": [
        {
          "internalType": "address",
          "name": "spender",
          "type": "address"
        }
      ],
      "name": "ERC20InvalidSpender",
      "type": "error"
    },
    {
      "anonymous": false,
      "inputs": [
        {
          "indexed": true,
          "internalType": "address",
          "name": "owner",
          "type": "address"
        },
        {
          "indexed": true,
          "internalType": "address",
          "name": "spender",
          "type": "address"
        },
        {
          "indexed": false,
          "internalType": "uint256",
          "name": "value",
          "type": "uint256"
        }
      ],
      "name": "Approval",
      "type": "event"
    },
    {
      "anonymous": false,
      "inputs": [
        {
          "indexed": true,
          "internalType": "bytes32",
          "name": "role",
          "type": "bytes32"
        },
        {
          "indexed": true,
          "internalType": "bytes32",
          "name": "previousAdminRole",
          "type": "bytes32"
        },
        {
          "indexed": true,
          "internalType": "bytes32",
          "name": "newAdminRole",
          "type": "bytes32"
        }
      ],
      "name": "RoleAdminChanged",
      "type": "event"
    },
    {
      "anonymous": false,
      "inputs": [
        {
          "indexed": true,
          "internalType": "bytes32",
          "name": "role",
          "type": "bytes32"
        },
        {
          "indexed": true,
          "internalType": "address",
          "name": "account",
          "type": "address"
        },
        {
          "indexed": true,
          "internalType": "address",
          "name": "sender",
          "type": "address"
        }
      ],
      "name": "RoleGranted",
      "type": "event"
    },
    {
      "anonymous": false,
      "inputs": [
        {
          "indexed": true,
          "internalType": "bytes32",
          "name": "role",
          "type": "bytes32"
        },
        {
          "indexed": true,
          "internalType": "address",
          "name": "account",
          "type": "address"
        },
        {
          "indexed": true,
          "internalType": "address",
          "name": "sender",
          "type": "address"
        }
      ],
      "name": "RoleRevoked",
      "type": "event"
    },
    {
      "anonymous": false,
      "inputs": [
        {
          "indexed": true,
          "internalType": "address",
          "name": "from",
          "type": "address"
        },
        {
          "indexed": true,
          "internalType": "address",
          "name": "to",
          "type": "address"
        },
        {
          "indexed": false,
          "internalType": "uint256",
          "name": "value",
          "type": "uint256"
        }
      ],
      "name": "Transfer",
      "type": "event"
    },
    {
      "inputs": [],
      "name": "DEFAULT_ADMIN_ROLE",
      "outputs": [
        {
          "internalType": "bytes32",
          "name": "",
          "type": "bytes32"
        }
      ],
      "stateMutability": "view",
      "type": "function"
    },
    {
      "inputs": [],
      "name": "MINTER_ROLE",
      "outputs": [
        {
          "internalType": "bytes32",
          "name": "",
          "type": "bytes32"
        }
      ],
      "stateMutability": "view",
      "type": "function"
    },
    {
      "inputs": [
        {
          "internalType": "address",
          "name": "owner",
          "type": "address"
        },
        {
          "internalType": "address",
          "name": "spender",
          "type": "address"
        }
      ],
      "name": "allowance",
      "outputs": [
        {
          "internalType": "uint256",
          "name": "",
          "type": "uint256"
        }
      ],
      "stateMutability": "view",
      "type": "function"
    },
    {
      "inputs": [
        {
          "internalType": "address",
          "name": "spender",
          "type": "address"
        },
        {
          "internalType": "uint256",
          "name": "value",
          "type": "uint256"
        }
      ],
      "name": "approve",
      "outputs": [
        {
          "internalType": "bool",
          "name": "",
          "type": "bool"
        }
      ],
      "stateMutability": "nonpayable",
      "type": "function"
    },
    {
      "inputs": [
        {
          "internalType": "address",
          "name": "account",
          "type": "address"
        }
      ],
      "name": "balanceOf",
      "outputs": [
        {
          "internalType": "uint256",
          "name": "",
          "type": "uint256"
        }
      ],
      "stateMutability": "view",
      "type": "function"
    },
    {
      "inputs": [
        {
          "internalType": "uint256",
          "name": "amount",
          "type": "uint256"
        }
      ],
      "name": "burn",
      "outputs": [],
      "stateMutability": "nonpayable",
      "type": "function"
    },
    {
      "inputs": [
        {
          "internalType": "address",
          "name": "from",
          "type": "address"
        },
        {
          "internalType": "uint256",
          "name": "amount",
          "type": "uint256"
        }
      ],
      "name": "burnFrom",
      "outputs": [],
      "stateMutability": "nonpayable",
      "type": "function"
    },
    {
      "inputs": [],
      "name": "decimals",
      "outputs": [
        {
          "internalType": "uint8",
          "name": "",
          "type": "uint8"
        }
      ],
      "stateMutability": "view",
      "type": "function"
    },
    {
      "inputs": [
        {
          "internalType": "uint256",
          "name": "amount",
          "type": "uint256"
        }
      ],
      "name": "formatAmount",
      "outputs": [
        {
          "internalType": "string",
          "name": "",
          "type": "string"
        }
      ],
      "stateMutability": "view",
      "type": "function"
    },
    {
      "inputs": [
        {
          "internalType": "bytes32",
          "name": "role",
          "type": "bytes32"
        }
      ],
      "name": "getRoleAdmin",
      "outputs": [
        {
          "internalType": "bytes32",
          "name": "",
          "type": "bytes32"
        }
      ],
      "stateMutability": "view",
      "type": "function"
    },
    {
      "inputs": [
        {
          "internalType": "bytes32",
          "name": "role",
          "type": "bytes32"
        },
        {
          "internalType": "address",
          "name": "account",
          "type": "address"
        }
      ],
      "name": "grantRole",
      "outputs": [],
      "stateMutability": "nonpayable",
      "type": "function"
    },
    {
      "inputs": [
        {
          "internalType": "bytes32",
          "name": "role",
          "type": "bytes32"
        },
        {
          "internalType": "address",
          "name": "account",
          "type": "address"
        }
      ],
      "name": "hasRole",
      "outputs": [
        {
          "internalType": "bool",
          "name": "",
          "type": "bool"
        }
      ],
      "stateMutability": "view",
      "type": "function"
    },
    {
      "inputs": [
        {
          "internalType": "address",
          "name": "to",
          "type": "address"
        },
        {
          "internalType": "uint256",
          "name": "amount",
          "type": "uint256"
        }
      ],
      "name": "mint",
      "outputs": [],
      "stateMutability": "nonpayable",
      "type": "function"
    },
    {
      "inputs": [
        {
          "internalType": "address[]",
          "name": "recipients",
          "type": "address[]"
        },
        {
          "internalType": "uint256[]",
          "name": "amounts",
          "type": "uint256[]"
        }
      ],
      "name": "mintBatch",
      "outputs": [],
      "stateMutability": "nonpayable",
      "type": "function"
    },
    {
      "inputs": [],
      "name": "name",
      "outputs": [
        {
          "internalType": "string",
          "name": "",
          "type": "string"
        }
      ],
      "stateMutability": "view",
      "type": "function"
    },
    {
      "inputs": [
        {
          "internalType": "bytes32",
          "name": "role",
          "type": "bytes32"
        },
        {
          "internalType": "address",
          "name": "callerConfirmation",
          "type": "address"
        }
      ],
      "name": "renounceRole",
      "outputs": [],
      "stateMutability": "nonpayable",
      "type": "function"
    },
    {
      "inputs": [
        {
          "internalType": "bytes32",
          "name": "role",
          "type": "bytes32"
        },
        {
          "internalType": "address",
          "name": "account",
          "type": "address"
        }
      ],
      "name": "revokeRole",
      "outputs": [],
      "stateMutability": "nonpayable",
      "type": "function"
    },
    {
      "inputs": [
        {
          "internalType": "bytes4",
          "name": "interfaceId",
          "type": "bytes4"
        }
      ],
      "name": "supportsInterface",
      "outputs": [
        {
          "internalType": "bool",
          "name": "",
          "type": "bool"
        }
      ],
      "stateMutability": "view",
      "type": "function"
    },
    {
      "inputs": [],
      "name": "symbol",
      "outputs": [
        {
          "internalType": "string",
          "name": "",
          "type": "string"
        }
      ],
      "stateMutability": "view",
      "type": "function"
    },
    {
      "inputs": [],
      "name": "totalSupply",
      "outputs": [
        {
          "internalType": "uint256",
          "name": "",
          "type": "uint256"
        }
      ],
      "stateMutability": "view",
      "type": "function"
    },
    {
      "inputs": [
        {
          "internalType": "address",
          "name": "to",
          "type": "address"
        },
        {
          "internalType": "uint256",
          "name": "value",
          "type": "uint256"
        }
      ],
      "name": "transfer",
      "outputs": [
        {
          "internalType": "bool",
          "name": "",
          "type": "bool"
        }
      ],
      "stateMutability": "nonpayable",
      "type": "function"
    },
    {
      "inputs": [
        {
          "internalType": "address",
          "name": "from",
          "type": "address"
        },
        {
          "internalType": "address",
          "name": "to",
          "type": "address"
        },
        {
          "internalType": "uint256",
          "name": "value",
          "type": "uint256"
        }
      ],
      "name": "transferFrom",
      "outputs": [
        {
          "internalType": "bool",
          "name": "",
          "type": "bool"
        }
      ],
      "stateMutability": "nonpayable",
      "type": "function"
    }
  ],
  "transactionHash": "0xd3f0dc449fca5607784d9e852a2e9b52f815c729167bcd576876cc2dc409cc0a",
  "args": [],
  "numDeployments": 1,
  "solcInputHash": "9248b679dd6fb091b3fa150489725389",
  "bytecode": "0x6080604052346103eb57604080519081016001600160401b038111828210176102f657604090815260098252684d6f636b205553444360b81b602083015280519081016001600160401b038111828210176102f65760405260048152635553444360e01b602082015281516001600160401b0381116102f657600354600181811c911680156103e1575b60208210146102d657601f811161037c575b50602092601f8211600114610317579281929360009261030c575b50508160011b916000199060031b1c1916176003555b80516001600160401b0381116102f657600454600181811c911680156102ec575b60208210146102d657601f8111610271575b50602091601f821160011461020d57918192600092610202575b50508160011b916000199060031b1c1916176004555b600660ff1981541617600655610144336103f0565b5061014e3361046c565b5060ff60065416604d81116101d657600a0a80620f42400290620f42408204036101d65733156101ec576002548181018091116101d657600255600033815280602052604081208281540190556040519182527fddf252ad1be2c89b69c2b068fc378daa952ba7f163c4a11628f55a4df523b3ef60203393a36040516112e390816105058239f35b634e487b7160e01b600052601160045260246000fd5b63ec442f0560e01b600052600060045260246000fd5b015190503880610119565b601f198216926004600052806000209160005b85811061025957508360019510610240575b505050811b0160045561012f565b015160001960f88460031b161c19169055388080610232565b91926020600181928685015181550194019201610220565b60046000527f8a35acfbc15ff81a39ae7d344fd709f28e8600b4aa8c65c6b64bfe7fe36bd19b601f830160051c810191602084106102cc575b601f0160051c01905b8181106102c057506100ff565b600081556001016102b3565b90915081906102aa565b634e487b7160e01b600052602260045260246000fd5b90607f16906100ed565b634e487b7160e01b600052604160045260246000fd5b0151905038806100b6565b601f198216936003600052806000209160005b868110610364575083600195961061034b575b505050811b016003556100cc565b015160001960f88460031b161c1916905538808061033d565b9192602060018192868501518155019401920161032a565b60036000527fc2575a0e9e593c00f959f8c92f12db2869c3395a3b0502d05e2516446f71f85b601f830160051c810191602084106103d7575b601f0160051c01905b8181106103cb575061009b565b600081556001016103be565b90915081906103b5565b90607f1690610089565b600080fd5b6001600160a01b0381166000908152600080516020611828833981519152602052604090205460ff16610466576001600160a01b0316600081815260008051602061182883398151915260205260408120805460ff191660011790553391906000805160206117e88339815191528180a4600190565b50600090565b6001600160a01b0381166000908152600080516020611808833981519152602052604090205460ff16610466576001600160a01b0316600081815260008051602061180883398151915260205260408120805460ff191660011790553391907f9f2df0fed2c77648de5860a4cc508cd0818c85b8b8a1ab4ceeef8d981c8956a6906000805160206117e88339815191529080a460019056fe608080604052600436101561001357600080fd5b60003560e01c90816301ffc9a714610ade5750806306fdde0314610a1f578063095ea7b31461093b57806318160ddd1461091d57806319af2823146107a757806323b872dd1461076f578063248a9ca31461073a5780632f2ff15d146106fa578063313ce567146106d957806336568abe1461067a57806340c10f191461063957806342966c68146105c257806370a082311461058857806379cc6790146104e15780637c88e3d91461039357806391d148541461034557806395d89b411461023d578063a217fddf14610221578063a9059cbb146101f0578063d5391393146101b5578063d547741f1461016e5763dd62ed3e1461011157600080fd5b346101695760403660031901126101695761012a610bcb565b6001600160a01b0361013a610be1565b911660005260016020526001600160a01b03604060002091166000526020526020604060002054604051908152f35b600080fd5b34610169576040366003190112610169576101b360043561018d610be1565b906101ae6101a982600052600560205260016040600020015490565b61105d565b61113e565b005b346101695760003660031901126101695760206040517f9f2df0fed2c77648de5860a4cc508cd0818c85b8b8a1ab4ceeef8d981c8956a68152f35b346101695760403660031901126101695761021661020c610bcb565b6024359033610ef4565b602060405160018152f35b3461016957600036600319011261016957602060405160008152f35b346101695760003660031901126101695760405160006004548060011c9060018116801561033b575b6020831081146103275782855290811561030357506001146102a3575b61029f8361029381850382610c28565b60405191829182610b9f565b0390f35b91905060046000527f8a35acfbc15ff81a39ae7d344fd709f28e8600b4aa8c65c6b64bfe7fe36bd19b916000905b8082106102e957509091508101602001610293610283565b9192600181602092548385880101520191019092916102d1565b60ff191660208086019190915291151560051b840190910191506102939050610283565b602484634e487b7160e01b81526022600452fd5b91607f1691610266565b346101695760403660031901126101695761035e610be1565b60043560005260056020526001600160a01b0360406000209116600052602052602060ff604060002054166040519015158152f35b346101695760403660031901126101695760043567ffffffffffffffff8111610169576103c4903690600401610bf7565b9060243567ffffffffffffffff8111610169576103e5903690600401610bf7565b906103ee610feb565b81840361049d5783156104595760005b84811061040757005b806104306001600160a01b036104286104236001958a8a610d1d565b610d43565b161515610cd2565b610453610441610423838989610d1d565b61044c838787610d1d565b35906111cd565b016103fe565b606460405162461bcd60e51b815260206004820152601860248201527f456d70747920617272617973206e6f7420616c6c6f77656400000000000000006044820152fd5b606460405162461bcd60e51b815260206004820152601660248201527f417272617973206c656e677468206d69736d61746368000000000000000000006044820152fd5b34610169576040366003190112610169576104fa610bcb565b6024356001600160a01b038216600052600160205260406000206001600160a01b0333166000526020528060406000205410610544576101b39161053f823383610e27565b61122c565b606460405162461bcd60e51b815260206004820152601d60248201527f4275726e20616d6f756e74206578636565647320616c6c6f77616e63650000006044820152fd5b34610169576020366003190112610169576001600160a01b036105a9610bcb565b1660005260006020526020604060002054604051908152f35b346101695760203660031901126101695760043533600052600060205280604060002054106105f5576101b3903361122c565b606460405162461bcd60e51b815260206004820152601460248201527f496e73756666696369656e742062616c616e63650000000000000000000000006044820152fd5b34610169576040366003190112610169576101b3610655610bcb565b61065d610feb565b6106716001600160a01b0382161515610cd2565b602435906111cd565b3461016957604036600319011261016957610693610be1565b336001600160a01b038216036106af576101b39060043561113e565b7f6697b2320000000000000000000000000000000000000000000000000000000060005260046000fd5b3461016957600036600319011261016957602060ff60065416604051908152f35b34610169576040366003190112610169576101b3600435610719610be1565b906107356101a982600052600560205260016040600020015490565b6110a4565b34610169576020366003190112610169576020610767600435600052600560205260016040600020015490565b604051908152f35b346101695760603660031901126101695761021661078b610bcb565b610793610be1565b604435916107a2833383610e27565b610ef4565b346101695760203660031901126101695760065460ff166004356107d36107cd83610c60565b82610c71565b906107dd83610c60565b908115610907570691600119019160ff83116108f15760056108176108116102939361080b61029f97610c60565b90610c71565b93610d57565b6000600a8510156108d357506001610836610830610c97565b95610d57565b60206040519684610850899651809285808a019101610b7c565b85017f2e000000000000000000000000000000000000000000000000000000000000008382015261088a8251809385602185019101610b7c565b010161089f8251809360208685019101610b7c565b01017f2055534443000000000000000000000000000000000000000000000000000000815203601a19810184520182610c28565b60405160019161083691906108e9602083610c28565b815295610d57565b634e487b7160e01b600052601160045260246000fd5b634e487b7160e01b600052601260045260246000fd5b34610169576000366003190112610169576020600254604051908152f35b3461016957604036600319011261016957610954610bcb565b6024359033156109f0576001600160a01b03169081156109c157336000526001602052604060002082600052602052806040600020556040519081527f8c5be1e5ebec7d5bd14f71427d1e84f3dd0314c0f7b2291e5b200ac8c7c3b92560203392a3602060405160018152f35b7f94280d6200000000000000000000000000000000000000000000000000000000600052600060045260246000fd5b7fe602df0500000000000000000000000000000000000000000000000000000000600052600060045260246000fd5b346101695760003660031901126101695760405160006003548060011c90600181168015610ad4575b602083108114610327578285529081156103035750600114610a745761029f8361029381850382610c28565b91905060036000527fc2575a0e9e593c00f959f8c92f12db2869c3395a3b0502d05e2516446f71f85b916000905b808210610aba57509091508101602001610293610283565b919260018160209254838588010152019101909291610aa2565b91607f1691610a48565b3461016957602036600319011261016957600435907fffffffff00000000000000000000000000000000000000000000000000000000821680920361016957817f7965db0b0000000000000000000000000000000000000000000000000000000060209314908115610b52575b5015158152f35b7f01ffc9a70000000000000000000000000000000000000000000000000000000091501483610b4b565b60005b838110610b8f5750506000910152565b8181015183820152602001610b7f565b60409160208252610bbf8151809281602086015260208686019101610b7c565b601f01601f1916010190565b600435906001600160a01b038216820361016957565b602435906001600160a01b038216820361016957565b9181601f840112156101695782359167ffffffffffffffff8311610169576020808501948460051b01011161016957565b90601f8019910116810190811067ffffffffffffffff821117610c4a57604052565b634e487b7160e01b600052604160045260246000fd5b60ff16604d81116108f157600a0a90565b8115610907570490565b67ffffffffffffffff8111610c4a57601f01601f191660200190565b60405190610ca6604083610c28565b600182527f30000000000000000000000000000000000000000000000000000000000000006020830152565b15610cd957565b606460405162461bcd60e51b815260206004820152601b60248201527f43616e6e6f74206d696e7420746f207a65726f206164647265737300000000006044820152fd5b9190811015610d2d5760051b0190565b634e487b7160e01b600052603260045260246000fd5b356001600160a01b03811681036101695790565b8015610e1b57600081805b610e035750610d7081610c7b565b90610d7e6040519283610c28565b808252601f19610d8d82610c7b565b013660208401375b80928015610dfc5760001982019182116108f1578193600a820660300192836030116108f15784511115610d2d57601f7fff00000000000000000000000000000000000000000000000000000000000000600a9460f81b1660001a91850101530491610d95565b5050905090565b9060001981146108f1576001600a9101910480610d62565b50610e24610c97565b90565b6001600160a01b0390929192169182600052600160205260406000206001600160a01b038216600052602052604060002054926000198410610e6a575b50505050565b828410610eb55780156109f0576001600160a01b038216156109c15760005260016020526001600160a01b036040600020911660005260205260406000209103905538808080610e64565b506001600160a01b0383917ffb8f41b2000000000000000000000000000000000000000000000000000000006000521660045260245260445260646000fd5b6001600160a01b0316908115610fbc576001600160a01b0316918215610f8d576000828152806020526040812054828110610f735791604082827fddf252ad1be2c89b69c2b068fc378daa952ba7f163c4a11628f55a4df523b3ef958760209652828652038282205586815280845220818154019055604051908152a3565b60649363391434e360e21b83949352600452602452604452fd5b7fec442f0500000000000000000000000000000000000000000000000000000000600052600060045260246000fd5b7f96c6fd1e00000000000000000000000000000000000000000000000000000000600052600060045260246000fd5b3360009081527f15a28d26fa1bf736cf7edc9922607171ccb09c3c73b808e7772a3013e068a522602052604090205460ff161561102457565b63e2517d3f60e01b600052336004527f9f2df0fed2c77648de5860a4cc508cd0818c85b8b8a1ab4ceeef8d981c8956a660245260446000fd5b80600052600560205260406000206001600160a01b03331660005260205260ff604060002054161561108c5750565b63e2517d3f60e01b6000523360045260245260446000fd5b80600052600560205260406000206001600160a01b03831660005260205260ff60406000205416156000146111375780600052600560205260406000206001600160a01b0383166000526020526040600020600160ff198254161790556001600160a01b03339216907f2f8788117e7eff1d82e926ec794901d17c78024a50270940304540a733656f0d600080a4600190565b5050600090565b80600052600560205260406000206001600160a01b03831660005260205260ff604060002054166000146111375780600052600560205260406000206001600160a01b038316600052602052604060002060ff1981541690556001600160a01b03339216907ff6391f5c32d9c69d2a47ea670b442974b53935d1edc7fd64eb21e047a839171b600080a4600190565b6001600160a01b0316908115610f8d576002548181018091116108f1576002557fddf252ad1be2c89b69c2b068fc378daa952ba7f163c4a11628f55a4df523b3ef602060009284845283825260408420818154019055604051908152a3565b6001600160a01b03168015610fbc5760009181835282602052604083205481811061129457817fddf252ad1be2c89b69c2b068fc378daa952ba7f163c4a11628f55a4df523b3ef926020928587528684520360408620558060025403600255604051908152a3565b839263391434e360e21b60649552600452602452604452fdfea26469706673582212206d66466ec5436051fbfb41ee70302d109892c3fc8e0f20441f2311274526690864736f6c634300081c00332f8788117e7eff1d82e926ec794901d17c78024a50270940304540a733656f0d15a28d26fa1bf736cf7edc9922607171ccb09c3c73b808e7772a3013e068a52205b8ccbb9d4d8fb16ea74ce3c29a41f1b461fbdaff4714a0d9a8eb05499746bc",
  "devdoc": {
    "details": "Mock USDC token for testing the saving bank systemOnly for development and testing purposes",
    "errors": {
      "AccessControlBadConfirmation()": [
        {
          "details": "The caller of a function is not the expected one. NOTE: Don't confuse with {AccessControlUnauthorizedAccount}."
        }
      ],
      "AccessControlUnauthorizedAccount(address,bytes32)": [
        {
          "details": "The `account` is missing a role."
        }
      ],
      "ERC20InsufficientAllowance(address,uint256,uint256)": [
        {
          "details": "Indicates a failure with the `spender`s `allowance`. Used in transfers.",
          "params": {
            "allowance": "Amount of tokens a `spender` is allowed to operate with.",
            "needed": "Minimum amount required to perform a transfer.",
            "spender": "Address that may be allowed to operate on tokens without being their owner."
          }
        }
      ],
      "ERC20InsufficientBalance(address,uint256,uint256)": [
        {
          "details": "Indicates an error related to the current `balance` of a `sender`. Used in transfers.",
          "params": {
            "balance": "Current balance for the interacting account.",
            "needed": "Minimum amount required to perform a transfer.",
            "sender": "Address whose tokens are being transferred."
          }
        }
      ],
      "ERC20InvalidApprover(address)": [
        {
          "details": "Indicates a failure with the `approver` of a token to be approved. Used in approvals.",
          "params": {
            "approver": "Address initiating an approval operation."
          }
        }
      ],
      "ERC20InvalidReceiver(address)": [
        {
          "details": "Indicates a failure with the token `receiver`. Used in transfers.",
          "params": {
            "receiver": "Address to which tokens are being transferred."
          }
        }
      ],
      "ERC20InvalidSender(address)": [
        {
          "details": "Indicates a failure with the token `sender`. Used in transfers.",
          "params": {
            "sender": "Address whose tokens are being transferred."
          }
        }
      ],
      "ERC20InvalidSpender(address)": [
        {
          "details": "Indicates a failure with the `spender` to be approved. Used in approvals.",
          "params": {
            "spender": "Address that may be allowed to operate on tokens without being their owner."
          }
        }
      ]
    },
    "events": {
      "Approval(address,address,uint256)": {
        "details": "Emitted when the allowance of a `spender` for an `owner` is set by a call to {approve}. `value` is the new allowance."
      },
      "RoleAdminChanged(bytes32,bytes32,bytes32)": {
        "details": "Emitted when `newAdminRole` is set as ``role``'s admin role, replacing `previousAdminRole` `DEFAULT_ADMIN_ROLE` is the starting admin for all roles, despite {RoleAdminChanged} not being emitted to signal this."
      },
      "RoleGranted(bytes32,address,address)": {
        "details": "Emitted when `account` is granted `role`. `sender` is the account that originated the contract call. This account bears the admin role (for the granted role). Expected in cases where the role was granted using the internal {AccessControl-_grantRole}."
      },
      "RoleRevoked(bytes32,address,address)": {
        "details": "Emitted when `account` is revoked `role`. `sender` is the account that originated the contract call:   - if using `revokeRole`, it is the admin role bearer   - if using `renounceRole`, it is the role bearer (i.e. `account`)"
      },
      "Transfer(address,address,uint256)": {
        "details": "Emitted when `value` tokens are moved from one account (`from`) to another (`to`). Note that `value` may be zero."
      }
    },
    "kind": "dev",
    "methods": {
      "allowance(address,address)": {
        "details": "See {IERC20-allowance}."
      },
      "approve(address,uint256)": {
        "details": "See {IERC20-approve}. NOTE: If `value` is the maximum `uint256`, the allowance is not updated on `transferFrom`. This is semantically equivalent to an infinite approval. Requirements: - `spender` cannot be the zero address."
      },
      "balanceOf(address)": {
        "details": "See {IERC20-balanceOf}."
      },
      "burn(uint256)": {
        "details": "Burn tokens from caller's balance - useful for testing",
        "params": {
          "amount": "Amount to burn"
        }
      },
      "burnFrom(address,uint256)": {
        "details": "Burn tokens from specified address (with allowance) - useful for testing",
        "params": {
          "amount": "Amount to burn",
          "from": "Address to burn tokens from"
        }
      },
      "constructor": {
        "details": "Constructor sets token name, symbol, and initial supply"
      },
      "decimals()": {
        "details": "Override decimals to return 6 (like real USDC)"
      },
      "formatAmount(uint256)": {
        "details": "Utility function to get formatted amount string",
        "params": {
          "amount": "Raw amount in wei"
        },
        "returns": {
          "_0": "Formatted string with 2 decimal places"
        }
      },
      "getRoleAdmin(bytes32)": {
        "details": "Returns the admin role that controls `role`. See {grantRole} and {revokeRole}. To change a role's admin, use {_setRoleAdmin}."
      },
      "grantRole(bytes32,address)": {
        "details": "Grants `role` to `account`. If `account` had not been already granted `role`, emits a {RoleGranted} event. Requirements: - the caller must have ``role``'s admin role. May emit a {RoleGranted} event."
      },
      "hasRole(bytes32,address)": {
        "details": "Returns `true` if `account` has been granted `role`."
      },
      "mint(address,uint256)": {
        "details": "Mint new tokens - only for testing purposes",
        "params": {
          "amount": "Amount to mint (in wei - considering 6 decimals)",
          "to": "Address to mint tokens to"
        }
      },
      "mintBatch(address[],uint256[])": {
        "details": "Mint tokens to multiple addresses - useful for testing",
        "params": {
          "amounts": "Array of amounts to mint to each address",
          "recipients": "Array of addresses to mint to"
        }
      },
      "name()": {
        "details": "Returns the name of the token."
      },
      "renounceRole(bytes32,address)": {
        "details": "Revokes `role` from the calling account. Roles are often managed via {grantRole} and {revokeRole}: this function's purpose is to provide a mechanism for accounts to lose their privileges if they are compromised (such as when a trusted device is misplaced). If the calling account had been revoked `role`, emits a {RoleRevoked} event. Requirements: - the caller must be `callerConfirmation`. May emit a {RoleRevoked} event."
      },
      "revokeRole(bytes32,address)": {
        "details": "Revokes `role` from `account`. If `account` had been granted `role`, emits a {RoleRevoked} event. Requirements: - the caller must have ``role``'s admin role. May emit a {RoleRevoked} event."
      },
      "supportsInterface(bytes4)": {
        "details": "See {IERC165-supportsInterface}."
      },
      "symbol()": {
        "details": "Returns the symbol of the token, usually a shorter version of the name."
      },
      "totalSupply()": {
        "details": "See {IERC20-totalSupply}."
      },
      "transfer(address,uint256)": {
        "details": "See {IERC20-transfer}. Requirements: - `to` cannot be the zero address. - the caller must have a balance of at least `value`."
      },
      "transferFrom(address,address,uint256)": {
        "details": "See {IERC20-transferFrom}. Skips emitting an {Approval} event indicating an allowance update. This is not required by the ERC. See {xref-ERC20-_approve-address-address-uint256-bool-}[_approve]. NOTE: Does not update the allowance if the current allowance is the maximum `uint256`. Requirements: - `from` and `to` cannot be the zero address. - `from` must have a balance of at least `value`. - the caller must have allowance for ``from``'s tokens of at least `value`."
      }
    },
    "title": "MockUSDC",
    "version": 1
  },
  "userdoc": {
    "kind": "user",
    "methods": {
      "constructor": {
        "notice": "Creates a mock USDC with 6 decimals and initial supply for testing"
      },
      "mint(address,uint256)": {
        "notice": "Only addresses with MINTER_ROLE can call this function"
      },
      "mintBatch(address[],uint256[])": {
        "notice": "Arrays must have the same length"
      }
    },
    "notice": "This is a test token with 6 decimals like real USDC",
    "version": 1
  },
  "storageLayout": {
    "storage": [
      {
        "astId": 628,
        "contract": "contracts/tokens/MockUSDC.sol:MockUSDC",
        "label": "_balances",
        "offset": 0,
        "slot": "0",
        "type": "t_mapping(t_address,t_uint256)"
      },
      {
        "astId": 634,
        "contract": "contracts/tokens/MockUSDC.sol:MockUSDC",
        "label": "_allowances",
        "offset": 0,
        "slot": "1",
        "type": "t_mapping(t_address,t_mapping(t_address,t_uint256))"
      },
      {
        "astId": 636,
        "contract": "contracts/tokens/MockUSDC.sol:MockUSDC",
        "label": "_totalSupply",
        "offset": 0,
        "slot": "2",
        "type": "t_uint256"
      },
      {
        "astId": 638,
        "contract": "contracts/tokens/MockUSDC.sol:MockUSDC",
        "label": "_name",
        "offset": 0,
        "slot": "3",
        "type": "t_string_storage"
      },
      {
        "astId": 640,
        "contract": "contracts/tokens/MockUSDC.sol:MockUSDC",
        "label": "_symbol",
        "offset": 0,
        "slot": "4",
        "type": "t_string_storage"
      },
      {
        "astId": 26,
        "contract": "contracts/tokens/MockUSDC.sol:MockUSDC",
        "label": "_roles",
        "offset": 0,
        "slot": "5",
        "type": "t_mapping(t_bytes32,t_struct(RoleData)21_storage)"
      },
      {
        "astId": 11382,
        "contract": "contracts/tokens/MockUSDC.sol:MockUSDC",
        "label": "_decimals",
        "offset": 0,
        "slot": "6",
        "type": "t_uint8"
      }
    ],
    "types": {
      "t_address": {
        "encoding": "inplace",
        "label": "address",
        "numberOfBytes": "20"
      },
      "t_bool": {
        "encoding": "inplace",
        "label": "bool",
        "numberOfBytes": "1"
      },
      "t_bytes32": {
        "encoding": "inplace",
        "label": "bytes32",
        "numberOfBytes": "32"
      },
      "t_mapping(t_address,t_bool)": {
        "encoding": "mapping",
        "key": "t_address",
        "label": "mapping(address => bool)",
        "numberOfBytes": "32",
        "value": "t_bool"
      },
      "t_mapping(t_address,t_mapping(t_address,t_uint256))": {
        "encoding": "mapping",
        "key": "t_address",
        "label": "mapping(address => mapping(address => uint256))",
        "numberOfBytes": "32",
        "value": "t_mapping(t_address,t_uint256)"
      },
      "t_mapping(t_address,t_uint256)": {
        "encoding": "mapping",
        "key": "t_address",
        "label": "mapping(address => uint256)",
        "numberOfBytes": "32",
        "value": "t_uint256"
      },
      "t_mapping(t_bytes32,t_struct(RoleData)21_storage)": {
        "encoding": "mapping",
        "key": "t_bytes32",
        "label": "mapping(bytes32 => struct AccessControl.RoleData)",
        "numberOfBytes": "32",
        "value": "t_struct(RoleData)21_storage"
      },
      "t_string_storage": {
        "encoding": "bytes",
        "label": "string",
        "numberOfBytes": "32"
      },
      "t_struct(RoleData)21_storage": {
        "encoding": "inplace",
        "label": "struct AccessControl.RoleData",
        "members": [
          {
            "astId": 18,
            "contract": "contracts/tokens/MockUSDC.sol:MockUSDC",
            "label": "hasRole",
            "offset": 0,
            "slot": "0",
            "type": "t_mapping(t_address,t_bool)"
          },
          {
            "astId": 20,
            "contract": "contracts/tokens/MockUSDC.sol:MockUSDC",
            "label": "adminRole",
            "offset": 0,
            "slot": "1",
            "type": "t_bytes32"
          }
        ],
        "numberOfBytes": "64"
      },
      "t_uint256": {
        "encoding": "inplace",
        "label": "uint256",
        "numberOfBytes": "32"
      },
      "t_uint8": {
        "encoding": "inplace",
        "label": "uint8",
        "numberOfBytes": "1"
      }
    }
  }
}