{
  "address": "0xfFB768b9D631732516d3e136CF2fCC46E10880f2",
  "abi": [
    {
      "inputs": [
        {
          "internalType": "address",
          "name": "tokenAddress",
          "type": "address"
        },
        {
          "internalType": "address",
          "name": "certificateAddress",
          "type": "address"
        },
        {
          "internalType": "address",
          "name": "vaultAddress",
          "type": "address"
        }
      ],
      "stateMutability": "nonpayable",
      "type": "constructor"
    },
    {
      "inputs": [],
      "name": "AccessControlBadConfirmation",
      "type": "error"
    },
    {
      "inputs": [
        {
          "internalType": "address",
          "name": "account",
          "type": "address"
        },
        {
          "internalType": "bytes32",
          "name": "neededRole",
          "type": "bytes32"
        }
      ],
      "name": "AccessControlUnauthorizedAccount",
      "type": "error"
    },
    {
      "inputs": [
        {
          "internalType": "uint256",
          "name": "amount",
          "type": "uint256"
        },
        {
          "internalType": "uint256",
          "name": "maximumAllowed",
          "type": "uint256"
        }
      ],
      "name": "AmountAboveMaximum",
      "type": "error"
    },
    {
      "inputs": [
        {
          "internalType": "uint256",
          "name": "amount",
          "type": "uint256"
        },
        {
          "internalType": "uint256",
          "name": "minimumRequired",
          "type": "uint256"
        }
      ],
      "name": "AmountBelowMinimum",
      "type": "error"
    },
    {
      "inputs": [
        {
          "internalType": "uint256",
          "name": "depositId",
          "type": "uint256"
        },
        {
          "internalType": "uint256",
          "name": "remainingSeconds",
          "type": "uint256"
        }
      ],
      "name": "CertificateInCooldown",
      "type": "error"
    },
    {
      "inputs": [],
      "name": "ContractPaused",
      "type": "error"
    },
    {
      "inputs": [
        {
          "internalType": "uint256",
          "name": "depositId",
          "type": "uint256"
        }
      ],
      "name": "DepositAlreadyClosed",
      "type": "error"
    },
    {
      "inputs": [
        {
          "internalType": "uint256",
          "name": "depositId",
          "type": "uint256"
        }
      ],
      "name": "DepositNotActive",
      "type": "error"
    },
    {
      "inputs": [
        {
          "internalType": "uint256",
          "name": "depositId",
          "type": "uint256"
        }
      ],
      "name": "DepositNotFound",
      "type": "error"
    },
    {
      "inputs": [
        {
          "internalType": "uint256",
          "name": "depositId",
          "type": "uint256"
        },
        {
          "internalType": "uint256",
          "name": "maturityTimestamp",
          "type": "uint256"
        },
        {
          "internalType": "uint256",
          "name": "currentTimestamp",
          "type": "uint256"
        }
      ],
      "name": "DepositNotMature",
      "type": "error"
    },
    {
      "inputs": [
        {
          "internalType": "uint256",
          "name": "depositId",
          "type": "uint256"
        }
      ],
      "name": "DepositStillActive",
      "type": "error"
    },
    {
      "inputs": [],
      "name": "EnforcedPause",
      "type": "error"
    },
    {
      "inputs": [
        {
          "internalType": "uint256",
          "name": "amount",
          "type": "uint256"
        },
        {
          "internalType": "uint256",
          "name": "maximumAllowed",
          "type": "uint256"
        }
      ],
      "name": "ExcessiveDepositAmount",
      "type": "error"
    },
    {
      "inputs": [],
      "name": "ExpectedPause",
      "type": "error"
    },
    {
      "inputs": [
        {
          "internalType": "uint256",
          "name": "amount",
          "type": "uint256"
        },
        {
          "internalType": "uint256",
          "name": "minimumRequired",
          "type": "uint256"
        }
      ],
      "name": "InsufficientDepositAmount",
      "type": "error"
    },
    {
      "inputs": [
        {
          "internalType": "uint256",
          "name": "requested",
          "type": "uint256"
        },
        {
          "internalType": "uint256",
          "name": "available",
          "type": "uint256"
        }
      ],
      "name": "InsufficientVaultLiquidity",
      "type": "error"
    },
    {
      "inputs": [],
      "name": "InvalidAddress",
      "type": "error"
    },
    {
      "inputs": [
        {
          "internalType": "uint256",
          "name": "amount",
          "type": "uint256"
        }
      ],
      "name": "InvalidAmount",
      "type": "error"
    },
    {
      "inputs": [
        {
          "internalType": "uint256",
          "name": "annualInterestRateInBasisPoints",
          "type": "uint256"
        }
      ],
      "name": "InvalidInterestRate",
      "type": "error"
    },
    {
      "inputs": [
        {
          "internalType": "uint256",
          "name": "penaltyRateInBasisPoints",
          "type": "uint256"
        }
      ],
      "name": "InvalidPenaltyRate",
      "type": "error"
    },
    {
      "inputs": [
        {
          "internalType": "uint64",
          "name": "tenorSeconds",
          "type": "uint64"
        }
      ],
      "name": "InvalidTenorSeconds",
      "type": "error"
    },
    {
      "inputs": [
        {
          "internalType": "uint32",
          "name": "termInDays",
          "type": "uint32"
        }
      ],
      "name": "InvalidTermDays",
      "type": "error"
    },
    {
      "inputs": [
        {
          "internalType": "uint256",
          "name": "planId",
          "type": "uint256"
        }
      ],
      "name": "PlanNotEnabled",
      "type": "error"
    },
    {
      "inputs": [
        {
          "internalType": "uint256",
          "name": "planId",
          "type": "uint256"
        }
      ],
      "name": "PlanNotFound",
      "type": "error"
    },
    {
      "inputs": [],
      "name": "ReentrancyGuardReentrantCall",
      "type": "error"
    },
    {
      "inputs": [
        {
          "internalType": "address",
          "name": "token",
          "type": "address"
        }
      ],
      "name": "SafeERC20FailedOperation",
      "type": "error"
    },
    {
      "inputs": [
        {
          "internalType": "uint256",
          "name": "planId",
          "type": "uint256"
        }
      ],
      "name": "SavingPlanNotActive",
      "type": "error"
    },
    {
      "inputs": [
        {
          "internalType": "uint256",
          "name": "planId",
          "type": "uint256"
        }
      ],
      "name": "SavingPlanNotFound",
      "type": "error"
    },
    {
      "inputs": [
        {
          "internalType": "address",
          "name": "caller",
          "type": "address"
        },
        {
          "internalType": "address",
          "name": "expectedOwner",
          "type": "address"
        }
      ],
      "name": "UnauthorizedCaller",
      "type": "error"
    },
    {
      "inputs": [
        {
          "internalType": "address",
          "name": "caller",
          "type": "address"
        },
        {
          "internalType": "uint256",
          "name": "depositId",
          "type": "uint256"
        }
      ],
      "name": "UnauthorizedWithdrawal",
      "type": "error"
    },
    {
      "inputs": [],
      "name": "ZeroAddress",
      "type": "error"
    },
    {
      "inputs": [],
      "name": "ZeroAmount",
      "type": "error"
    },
    {
      "anonymous": false,
      "inputs": [
        {
          "indexed": true,
          "internalType": "uint256",
          "name": "depositId",
          "type": "uint256"
        },
        {
          "indexed": true,
          "internalType": "address",
          "name": "user",
          "type": "address"
        },
        {
          "indexed": true,
          "internalType": "uint256",
          "name": "savingPlanId",
          "type": "uint256"
        },
        {
          "indexed": false,
          "internalType": "uint256",
          "name": "amount",
          "type": "uint256"
        },
        {
          "indexed": false,
          "internalType": "uint32",
          "name": "termInDays",
          "type": "uint32"
        },
        {
          "indexed": false,
          "internalType": "uint256",
          "name": "maturityDate",
          "type": "uint256"
        },
        {
          "indexed": false,
          "internalType": "uint256",
          "name": "certificateId",
          "type": "uint256"
        }
      ],
      "name": "DepositCreated",
      "type": "event"
    },
    {
      "anonymous": false,
      "inputs": [
        {
          "indexed": true,
          "internalType": "uint256",
          "name": "depositId",
          "type": "uint256"
        },
        {
          "indexed": true,
          "internalType": "address",
          "name": "depositor",
          "type": "address"
        },
        {
          "indexed": true,
          "internalType": "uint256",
          "name": "planId",
          "type": "uint256"
        },
        {
          "indexed": false,
          "internalType": "uint256",
          "name": "principalAmount",
          "type": "uint256"
        },
        {
          "indexed": false,
          "internalType": "uint64",
          "name": "depositTimestamp",
          "type": "uint64"
        },
        {
          "indexed": false,
          "internalType": "uint64",
          "name": "maturityTimestamp",
          "type": "uint64"
        }
      ],
      "name": "DepositOpened",
      "type": "event"
    },
    {
      "anonymous": false,
      "inputs": [
        {
          "indexed": true,
          "internalType": "uint256",
          "name": "oldDepositId",
          "type": "uint256"
        },
        {
          "indexed": true,
          "internalType": "uint256",
          "name": "newDepositId",
          "type": "uint256"
        },
        {
          "indexed": true,
          "internalType": "address",
          "name": "depositor",
          "type": "address"
        },
        {
          "indexed": false,
          "internalType": "uint256",
          "name": "newPrincipalAmount",
          "type": "uint256"
        },
        {
          "indexed": false,
          "internalType": "uint256",
          "name": "newPlanId",
          "type": "uint256"
        }
      ],
      "name": "DepositRenewed",
      "type": "event"
    },
    {
      "anonymous": false,
      "inputs": [
        {
          "indexed": true,
          "internalType": "uint256",
          "name": "depositId",
          "type": "uint256"
        },
        {
          "indexed": true,
          "internalType": "address",
          "name": "user",
          "type": "address"
        },
        {
          "indexed": false,
          "internalType": "uint256",
          "name": "withdrawAmount",
          "type": "uint256"
        },
        {
          "indexed": false,
          "internalType": "uint256",
          "name": "interestAmount",
          "type": "uint256"
        },
        {
          "indexed": false,
          "internalType": "uint256",
          "name": "penaltyAmount",
          "type": "uint256"
        },
        {
          "indexed": false,
          "internalType": "bool",
          "name": "isEarlyWithdrawal",
          "type": "bool"
        }
      ],
      "name": "DepositWithdrawn",
      "type": "event"
    },
    {
      "anonymous": false,
      "inputs": [
        {
          "indexed": true,
          "internalType": "address",
          "name": "admin",
          "type": "address"
        },
        {
          "indexed": false,
          "internalType": "uint256",
          "name": "amount",
          "type": "uint256"
        }
      ],
      "name": "LiquidityDeposited",
      "type": "event"
    },
    {
      "anonymous": false,
      "inputs": [
        {
          "indexed": true,
          "internalType": "address",
          "name": "admin",
          "type": "address"
        },
        {
          "indexed": false,
          "internalType": "uint256",
          "name": "amount",
          "type": "uint256"
        }
      ],
      "name": "LiquidityWithdrawn",
      "type": "event"
    },
    {
      "anonymous": false,
      "inputs": [
        {
          "indexed": false,
          "internalType": "address",
          "name": "account",
          "type": "address"
        }
      ],
      "name": "Paused",
      "type": "event"
    },
    {
      "anonymous": false,
      "inputs": [
        {
          "indexed": true,
          "internalType": "uint256",
          "name": "planId",
          "type": "uint256"
        },
        {
          "indexed": true,
          "internalType": "address",
          "name": "oldReceiver",
          "type": "address"
        },
        {
          "indexed": true,
          "internalType": "address",
          "name": "newReceiver",
          "type": "address"
        }
      ],
      "name": "PenaltyReceiverUpdated",
      "type": "event"
    },
    {
      "anonymous": false,
      "inputs": [
        {
          "indexed": true,
          "internalType": "bytes32",
          "name": "role",
          "type": "bytes32"
        },
        {
          "indexed": true,
          "internalType": "bytes32",
          "name": "previousAdminRole",
          "type": "bytes32"
        },
        {
          "indexed": true,
          "internalType": "bytes32",
          "name": "newAdminRole",
          "type": "bytes32"
        }
      ],
      "name": "RoleAdminChanged",
      "type": "event"
    },
    {
      "anonymous": false,
      "inputs": [
        {
          "indexed": true,
          "internalType": "bytes32",
          "name": "role",
          "type": "bytes32"
        },
        {
          "indexed": true,
          "internalType": "address",
          "name": "account",
          "type": "address"
        },
        {
          "indexed": true,
          "internalType": "address",
          "name": "sender",
          "type": "address"
        }
      ],
      "name": "RoleGranted",
      "type": "event"
    },
    {
      "anonymous": false,
      "inputs": [
        {
          "indexed": true,
          "internalType": "bytes32",
          "name": "role",
          "type": "bytes32"
        },
        {
          "indexed": true,
          "internalType": "address",
          "name": "account",
          "type": "address"
        },
        {
          "indexed": true,
          "internalType": "address",
          "name": "sender",
          "type": "address"
        }
      ],
      "name": "RoleRevoked",
      "type": "event"
    },
    {
      "anonymous": false,
      "inputs": [
        {
          "indexed": true,
          "internalType": "uint256",
          "name": "planId",
          "type": "uint256"
        }
      ],
      "name": "SavingPlanActivated",
      "type": "event"
    },
    {
      "anonymous": false,
      "inputs": [
        {
          "indexed": true,
          "internalType": "uint256",
          "name": "planId",
          "type": "uint256"
        },
        {
          "indexed": false,
          "internalType": "string",
          "name": "name",
          "type": "string"
        }
      ],
      "name": "SavingPlanCreated",
      "type": "event"
    },
    {
      "anonymous": false,
      "inputs": [
        {
          "indexed": true,
          "internalType": "uint256",
          "name": "planId",
          "type": "uint256"
        }
      ],
      "name": "SavingPlanDeactivated",
      "type": "event"
    },
    {
      "anonymous": false,
      "inputs": [
        {
          "indexed": true,
          "internalType": "uint256",
          "name": "planId",
          "type": "uint256"
        },
        {
          "indexed": false,
          "internalType": "bool",
          "name": "isEnabled",
          "type": "bool"
        }
      ],
      "name": "SavingPlanStatusUpdated",
      "type": "event"
    },
    {
      "anonymous": false,
      "inputs": [
        {
          "indexed": true,
          "internalType": "uint256",
          "name": "planId",
          "type": "uint256"
        }
      ],
      "name": "SavingPlanUpdated",
      "type": "event"
    },
    {
      "anonymous": false,
      "inputs": [
        {
          "indexed": false,
          "internalType": "address",
          "name": "account",
          "type": "address"
        }
      ],
      "name": "Unpaused",
      "type": "event"
    },
    {
      "anonymous": false,
      "inputs": [
        {
          "indexed": true,
          "internalType": "address",
          "name": "admin",
          "type": "address"
        },
        {
          "indexed": false,
          "internalType": "uint256",
          "name": "amount",
          "type": "uint256"
        },
        {
          "indexed": false,
          "internalType": "uint256",
          "name": "newVaultBalance",
          "type": "uint256"
        }
      ],
      "name": "VaultDeposited",
      "type": "event"
    },
    {
      "anonymous": false,
      "inputs": [
        {
          "indexed": true,
          "internalType": "address",
          "name": "admin",
          "type": "address"
        },
        {
          "indexed": false,
          "internalType": "uint256",
          "name": "amount",
          "type": "uint256"
        },
        {
          "indexed": false,
          "internalType": "uint256",
          "name": "newVaultBalance",
          "type": "uint256"
        }
      ],
      "name": "VaultWithdrawn",
      "type": "event"
    },
    {
      "inputs": [],
      "name": "ADMIN_ROLE",
      "outputs": [
        {
          "internalType": "bytes32",
          "name": "",
          "type": "bytes32"
        }
      ],
      "stateMutability": "view",
      "type": "function"
    },
    {
      "inputs": [],
      "name": "DEFAULT_ADMIN_ROLE",
      "outputs": [
        {
          "internalType": "bytes32",
          "name": "",
          "type": "bytes32"
        }
      ],
      "stateMutability": "view",
      "type": "function"
    },
    {
      "inputs": [],
      "name": "PAUSER_ROLE",
      "outputs": [
        {
          "internalType": "bytes32",
          "name": "",
          "type": "bytes32"
        }
      ],
      "stateMutability": "view",
      "type": "function"
    },
    {
      "inputs": [
        {
          "internalType": "uint256",
          "name": "planId",
          "type": "uint256"
        }
      ],
      "name": "activateSavingPlan",
      "outputs": [],
      "stateMutability": "nonpayable",
      "type": "function"
    },
    {
      "inputs": [
        {
          "internalType": "uint256",
          "name": "depositId",
          "type": "uint256"
        }
      ],
      "name": "calculateEarlyWithdrawalPenalty",
      "outputs": [
        {
          "internalType": "uint256",
          "name": "penaltyAmount",
          "type": "uint256"
        }
      ],
      "stateMutability": "view",
      "type": "function"
    },
    {
      "inputs": [
        {
          "internalType": "uint256",
          "name": "amount",
          "type": "uint256"
        },
        {
          "internalType": "uint256",
          "name": "planId",
          "type": "uint256"
        },
        {
          "internalType": "uint32",
          "name": "termInDays",
          "type": "uint32"
        }
      ],
      "name": "calculateExpectedInterest",
      "outputs": [
        {
          "internalType": "uint256",
          "name": "",
          "type": "uint256"
        }
      ],
      "stateMutability": "view",
      "type": "function"
    },
    {
      "inputs": [
        {
          "internalType": "uint256",
          "name": "savingPlanId",
          "type": "uint256"
        },
        {
          "internalType": "uint256",
          "name": "amount",
          "type": "uint256"
        },
        {
          "internalType": "uint32",
          "name": "termInDays",
          "type": "uint32"
        }
      ],
      "name": "createDeposit",
      "outputs": [
        {
          "internalType": "uint256",
          "name": "depositId",
          "type": "uint256"
        }
      ],
      "stateMutability": "nonpayable",
      "type": "function"
    },
    {
      "inputs": [
        {
          "components": [
            {
              "internalType": "string",
              "name": "name",
              "type": "string"
            },
            {
              "internalType": "uint256",
              "name": "minDepositAmount",
              "type": "uint256"
            },
            {
              "internalType": "uint256",
              "name": "maxDepositAmount",
              "type": "uint256"
            },
            {
              "internalType": "uint32",
              "name": "minTermInDays",
              "type": "uint32"
            },
            {
              "internalType": "uint32",
              "name": "maxTermInDays",
              "type": "uint32"
            },
            {
              "internalType": "uint256",
              "name": "annualInterestRateInBasisPoints",
              "type": "uint256"
            },
            {
              "internalType": "uint256",
              "name": "penaltyRateInBasisPoints",
              "type": "uint256"
            }
          ],
          "internalType": "struct ISavingBankStructs.SavingPlanInput",
          "name": "input",
          "type": "tuple"
        }
      ],
      "name": "createSavingPlan",
      "outputs": [],
      "stateMutability": "nonpayable",
      "type": "function"
    },
    {
      "inputs": [
        {
          "internalType": "uint256",
          "name": "planId",
          "type": "uint256"
        }
      ],
      "name": "deactivateSavingPlan",
      "outputs": [],
      "stateMutability": "nonpayable",
      "type": "function"
    },
    {
      "inputs": [],
      "name": "depositCertificate",
      "outputs": [
        {
          "internalType": "contract IDepositCertificate",
          "name": "",
          "type": "address"
        }
      ],
      "stateMutability": "view",
      "type": "function"
    },
    {
      "inputs": [
        {
          "internalType": "uint256",
          "name": "amount",
          "type": "uint256"
        }
      ],
      "name": "depositToVault",
      "outputs": [],
      "stateMutability": "nonpayable",
      "type": "function"
    },
    {
      "inputs": [],
      "name": "depositToken",
      "outputs": [
        {
          "internalType": "contract IERC20",
          "name": "",
          "type": "address"
        }
      ],
      "stateMutability": "view",
      "type": "function"
    },
    {
      "inputs": [],
      "name": "getActiveDepositCount",
      "outputs": [
        {
          "internalType": "uint256",
          "name": "count",
          "type": "uint256"
        }
      ],
      "stateMutability": "view",
      "type": "function"
    },
    {
      "inputs": [
        {
          "internalType": "uint256",
          "name": "depositId",
          "type": "uint256"
        }
      ],
      "name": "getDeposit",
      "outputs": [
        {
          "components": [
            {
              "internalType": "uint256",
              "name": "id",
              "type": "uint256"
            },
            {
              "internalType": "address",
              "name": "user",
              "type": "address"
            },
            {
              "internalType": "uint256",
              "name": "savingPlanId",
              "type": "uint256"
            },
            {
              "internalType": "uint256",
              "name": "amount",
              "type": "uint256"
            },
            {
              "internalType": "uint32",
              "name": "termInDays",
              "type": "uint32"
            },
            {
              "internalType": "uint256",
              "name": "expectedInterest",
              "type": "uint256"
            },
            {
              "internalType": "uint256",
              "name": "depositDate",
              "type": "uint256"
            },
            {
              "internalType": "uint256",
              "name": "maturityDate",
              "type": "uint256"
            },
            {
              "internalType": "enum ISavingBankStructs.DepositStatus",
              "name": "status",
              "type": "uint8"
            }
          ],
          "internalType": "struct ISavingBankStructs.Deposit",
          "name": "",
          "type": "tuple"
        }
      ],
      "stateMutability": "view",
      "type": "function"
    },
    {
      "inputs": [],
      "name": "getDepositCertificateAddress",
      "outputs": [
        {
          "internalType": "address",
          "name": "",
          "type": "address"
        }
      ],
      "stateMutability": "view",
      "type": "function"
    },
    {
      "inputs": [],
      "name": "getDepositToken",
      "outputs": [
        {
          "internalType": "address",
          "name": "",
          "type": "address"
        }
      ],
      "stateMutability": "view",
      "type": "function"
    },
    {
      "inputs": [
        {
          "internalType": "uint256",
          "name": "planId",
          "type": "uint256"
        }
      ],
      "name": "getPenaltyReceiver",
      "outputs": [
        {
          "internalType": "address",
          "name": "",
          "type": "address"
        }
      ],
      "stateMutability": "view",
      "type": "function"
    },
    {
      "inputs": [
        {
          "internalType": "bytes32",
          "name": "role",
          "type": "bytes32"
        }
      ],
      "name": "getRoleAdmin",
      "outputs": [
        {
          "internalType": "bytes32",
          "name": "",
          "type": "bytes32"
        }
      ],
      "stateMutability": "view",
      "type": "function"
    },
    {
      "inputs": [
        {
          "internalType": "uint256",
          "name": "planId",
          "type": "uint256"
        }
      ],
      "name": "getSavingPlan",
      "outputs": [
        {
          "components": [
            {
              "internalType": "uint256",
              "name": "id",
              "type": "uint256"
            },
            {
              "internalType": "string",
              "name": "name",
              "type": "string"
            },
            {
              "internalType": "uint256",
              "name": "minDepositAmount",
              "type": "uint256"
            },
            {
              "internalType": "uint256",
              "name": "maxDepositAmount",
              "type": "uint256"
            },
            {
              "internalType": "uint32",
              "name": "minTermInDays",
              "type": "uint32"
            },
            {
              "internalType": "uint32",
              "name": "maxTermInDays",
              "type": "uint32"
            },
            {
              "internalType": "uint256",
              "name": "annualInterestRateInBasisPoints",
              "type": "uint256"
            },
            {
              "internalType": "uint256",
              "name": "penaltyRateInBasisPoints",
              "type": "uint256"
            },
            {
              "internalType": "bool",
              "name": "isActive",
              "type": "bool"
            }
          ],
          "internalType": "struct ISavingBankStructs.SavingPlan",
          "name": "",
          "type": "tuple"
        }
      ],
      "stateMutability": "view",
      "type": "function"
    },
    {
      "inputs": [],
      "name": "getTotalDeposits",
      "outputs": [
        {
          "internalType": "uint256",
          "name": "",
          "type": "uint256"
        }
      ],
      "stateMutability": "view",
      "type": "function"
    },
    {
      "inputs": [],
      "name": "getTotalPlans",
      "outputs": [
        {
          "internalType": "uint256",
          "name": "",
          "type": "uint256"
        }
      ],
      "stateMutability": "view",
      "type": "function"
    },
    {
      "inputs": [
        {
          "internalType": "address",
          "name": "user",
          "type": "address"
        }
      ],
      "name": "getUserDepositIds",
      "outputs": [
        {
          "internalType": "uint256[]",
          "name": "",
          "type": "uint256[]"
        }
      ],
      "stateMutability": "view",
      "type": "function"
    },
    {
      "inputs": [],
      "name": "getVaultAddress",
      "outputs": [
        {
          "internalType": "address",
          "name": "",
          "type": "address"
        }
      ],
      "stateMutability": "view",
      "type": "function"
    },
    {
      "inputs": [],
      "name": "getVaultBalance",
      "outputs": [
        {
          "internalType": "uint256",
          "name": "",
          "type": "uint256"
        }
      ],
      "stateMutability": "view",
      "type": "function"
    },
    {
      "inputs": [
        {
          "internalType": "bytes32",
          "name": "role",
          "type": "bytes32"
        },
        {
          "internalType": "address",
          "name": "account",
          "type": "address"
        }
      ],
      "name": "grantRole",
      "outputs": [],
      "stateMutability": "nonpayable",
      "type": "function"
    },
    {
      "inputs": [
        {
          "internalType": "bytes32",
          "name": "role",
          "type": "bytes32"
        },
        {
          "internalType": "address",
          "name": "account",
          "type": "address"
        }
      ],
      "name": "hasRole",
      "outputs": [
        {
          "internalType": "bool",
          "name": "",
          "type": "bool"
        }
      ],
      "stateMutability": "view",
      "type": "function"
    },
    {
      "inputs": [
        {
          "internalType": "uint256",
          "name": "depositId",
          "type": "uint256"
        }
      ],
      "name": "isDepositMature",
      "outputs": [
        {
          "internalType": "bool",
          "name": "",
          "type": "bool"
        }
      ],
      "stateMutability": "view",
      "type": "function"
    },
    {
      "inputs": [],
      "name": "pause",
      "outputs": [],
      "stateMutability": "nonpayable",
      "type": "function"
    },
    {
      "inputs": [],
      "name": "paused",
      "outputs": [
        {
          "internalType": "bool",
          "name": "",
          "type": "bool"
        }
      ],
      "stateMutability": "view",
      "type": "function"
    },
    {
      "inputs": [
        {
          "internalType": "uint256",
          "name": "depositId",
          "type": "uint256"
        },
        {
          "internalType": "uint256",
          "name": "newPlanId",
          "type": "uint256"
        },
        {
          "internalType": "uint32",
          "name": "newTermInDays",
          "type": "uint32"
        }
      ],
      "name": "renewDeposit",
      "outputs": [
        {
          "internalType": "uint256",
          "name": "newDepositId",
          "type": "uint256"
        }
      ],
      "stateMutability": "nonpayable",
      "type": "function"
    },
    {
      "inputs": [
        {
          "internalType": "bytes32",
          "name": "role",
          "type": "bytes32"
        },
        {
          "internalType": "address",
          "name": "callerConfirmation",
          "type": "address"
        }
      ],
      "name": "renounceRole",
      "outputs": [],
      "stateMutability": "nonpayable",
      "type": "function"
    },
    {
      "inputs": [
        {
          "internalType": "bytes32",
          "name": "role",
          "type": "bytes32"
        },
        {
          "internalType": "address",
          "name": "account",
          "type": "address"
        }
      ],
      "name": "revokeRole",
      "outputs": [],
      "stateMutability": "nonpayable",
      "type": "function"
    },
    {
      "inputs": [
        {
          "internalType": "bytes4",
          "name": "interfaceId",
          "type": "bytes4"
        }
      ],
      "name": "supportsInterface",
      "outputs": [
        {
          "internalType": "bool",
          "name": "",
          "type": "bool"
        }
      ],
      "stateMutability": "view",
      "type": "function"
    },
    {
      "inputs": [],
      "name": "unpause",
      "outputs": [],
      "stateMutability": "nonpayable",
      "type": "function"
    },
    {
      "inputs": [
        {
          "internalType": "uint256",
          "name": "planId",
          "type": "uint256"
        },
        {
          "internalType": "address",
          "name": "newReceiver",
          "type": "address"
        }
      ],
      "name": "updatePenaltyReceiver",
      "outputs": [],
      "stateMutability": "nonpayable",
      "type": "function"
    },
    {
      "inputs": [
        {
          "internalType": "uint256",
          "name": "planId",
          "type": "uint256"
        },
        {
          "components": [
            {
              "internalType": "string",
              "name": "name",
              "type": "string"
            },
            {
              "internalType": "uint256",
              "name": "minDepositAmount",
              "type": "uint256"
            },
            {
              "internalType": "uint256",
              "name": "maxDepositAmount",
              "type": "uint256"
            },
            {
              "internalType": "uint32",
              "name": "minTermInDays",
              "type": "uint32"
            },
            {
              "internalType": "uint32",
              "name": "maxTermInDays",
              "type": "uint32"
            },
            {
              "internalType": "uint256",
              "name": "annualInterestRateInBasisPoints",
              "type": "uint256"
            },
            {
              "internalType": "uint256",
              "name": "penaltyRateInBasisPoints",
              "type": "uint256"
            }
          ],
          "internalType": "struct ISavingBankStructs.SavingPlanInput",
          "name": "input",
          "type": "tuple"
        }
      ],
      "name": "updateSavingPlan",
      "outputs": [],
      "stateMutability": "nonpayable",
      "type": "function"
    },
    {
      "inputs": [
        {
          "internalType": "uint256",
          "name": "planId",
          "type": "uint256"
        },
        {
          "internalType": "bool",
          "name": "isEnabled",
          "type": "bool"
        }
      ],
      "name": "updateSavingPlanStatus",
      "outputs": [],
      "stateMutability": "nonpayable",
      "type": "function"
    },
    {
      "inputs": [],
      "name": "vault",
      "outputs": [
        {
          "internalType": "contract IVault",
          "name": "",
          "type": "address"
        }
      ],
      "stateMutability": "view",
      "type": "function"
    },
    {
      "inputs": [
        {
          "internalType": "uint256",
          "name": "depositId",
          "type": "uint256"
        }
      ],
      "name": "withdrawDeposit",
      "outputs": [],
      "stateMutability": "nonpayable",
      "type": "function"
    },
    {
      "inputs": [
        {
          "internalType": "uint256",
          "name": "amount",
          "type": "uint256"
        }
      ],
      "name": "withdrawFromVault",
      "outputs": [],
      "stateMutability": "nonpayable",
      "type": "function"
    }
  ],
  "transactionHash": "0xdd6c9f524fecf67c64b9236547624fcccd84bf4e7d4ece7a24849d06bdb4a5ec",
  "args": [
    "0xca06b1BD160140D6624f41e9bDc8aE4bDC296187",
    "0x2A961935374CFF8CeB9233B58d423fef56F9645D",
    "0x6F4C9B4C6205E1D553206F2fc44F52523c764D9b"
  ],
  "numDeployments": 1,
  "solcInputHash": "9248b679dd6fb091b3fa150489725389",
  "bytecode": "0x60e03461017c57601f6139e438819003918201601f19168301916001600160401b038311848410176101815780849260609460405283398101031261017c5761004781610197565b90610060604061005960208401610197565b9201610197565b6001600255916001600160a01b03168015801561016b575b801561015a575b610149576080526001600160a01b0390811660a0521660c052600160038190556004556100ab336101ab565b506100b533610227565b506040516136c490816102c0823960805181818161039b01528181610ad501528181610e3f01528181611ac901528181611bcb0152611cba015260a051818181610a8b01528181610ef7015281816118910152611f98015260c0518181816103570152818161040701528181610b0e01528181610e7801528181611a5e01528181611b6801528181611c470152612abb0152f35b63e6c4247b60e01b60005260046000fd5b506001600160a01b0383161561007f565b506001600160a01b03821615610078565b600080fd5b634e487b7160e01b600052604160045260246000fd5b51906001600160a01b038216820361017c57565b6001600160a01b03811660009081526000805160206139c4833981519152602052604090205460ff16610221576001600160a01b031660008181526000805160206139c483398151915260205260408120805460ff191660011790553391906000805160206139848339815191528180a4600190565b50600090565b6001600160a01b03811660009081526000805160206139a4833981519152602052604090205460ff16610221576001600160a01b031660008181526000805160206139a483398151915260205260408120805460ff191660011790553391907fa49807205ce4d355092ef5a8a18f56e8913cf4a201fbe287825b095693c21775906000805160206139848339815191529080a460019056fe608080604052600436101561001357600080fd5b600090813560e01c90816301ffc9a714612b6857508063076d081514612a8d578063168a482214612a615780631ca627d3146126a15780631dcf4d2c146125b95780632281b6d51461259a578063240d3f2414611f5a578063248a9ca314611f2c5780632f2ff15d14611eeb57806333289a461461184e57806336568abe146117f057806336a73e20146117b05780633f4ba83a1461172f57806343d79784146116b25780635c975abb1461168f57806365cacaa41461033757806375b238fc14611654578063836a3a1e146115e75780638456cb591461158d5780638581d8a914610a6b5780638ff02262146114af57806391d1485414611463578063977b4da71461123a5780639f9fb968146110d5578063a0d04f0014610be4578063a217fddf14610bc8578063b046229614610aaf578063b92deef814610a6b578063c89039c51461037b578063d122c900146109a4578063d4e4487d146108e8578063d547741f1461089e578063d626266a14610599578063e35480f214610518578063e3f20499146104c0578063e63ab1e914610485578063ed12e8ef146103bf578063fb1b5c7b1461037b578063fbfa77cf146103375763fde7eb88146101d957600080fd5b34610334576101e736612c1e565b91928181526005602052604081209160405161020281612c45565b835481526001840160405190818582549261021c84612d03565b808452936001811690811561031257506001146102d1575b5061024192500382612c78565b6020820152600284015460408201526003840154606082015263ffffffff6004850154818116608084015260201c1660a082015260ff600760058601549560c08401968752600681015460e0850152015416151561010082015251156102bf5760206102b7868663ffffffff87519116916132b8565b604051908152f35b60249250620222af60e61b8252600452fd5b87525060208620909186915b8183106102f65750509060206102419282010138610234565b60209193508060019154838588010152019101909183926102dd565b90506020925061024194915060ff191682840152151560051b82010138610234565b80fd5b503461033457806003193601126103345760206040516001600160a01b037f0000000000000000000000000000000000000000000000000000000000000000168152f35b503461033457806003193601126103345760206040516001600160a01b037f0000000000000000000000000000000000000000000000000000000000000000168152f35b5034610334578060031936011261033457604051907f12065fe00000000000000000000000000000000000000000000000000000000082526020826004816001600160a01b037f0000000000000000000000000000000000000000000000000000000000000000165afa9081156104795790610441575b602090604051908152f35b506020813d602011610471575b8161045b60209383612c78565b8101031261046c5760209051610436565b600080fd5b3d915061044e565b604051903d90823e3d90fd5b503461033457806003193601126103345760206040517f65d7a28e3265b37a6474929f336521b332c1681b933f6cb9f3376673440d862a8152f35b503461033457602036600319011261033457600435908181526005602052604081205415610507576040816020936001600160a01b03935260088452205416604051908152f35b602491620222af60e61b8252600452fd5b503461033457602036600319011261033457600435610535613057565b808252600560205260408220541561058857808252600560205260408220600701805460ff191660011790557fd56b2ecc5589b9acc8d71f6d84ce43da5601e7cc181695060306f1e8f565375f8280a280f35b620222af60e61b8252600452602490fd5b50346103345760403660031901126103345760043560243567ffffffffffffffff811161089a57806004019060e06003198236030112610896576105db613057565b6105e3613182565b8284526005602052604084205415610884576064810163ffffffff61060782612c9a565b161561087357608482019061061b82612c9a565b63ffffffff8061062a84612c9a565b16911611156108525760a483013592831561083f5760c481013594612710861161082c578061065891612cd0565b8789526005602052600160408a20019167ffffffffffffffff82116108185761068b826106858554612d03565b85612d3d565b89908a601f84116001146107a457936106cb8461072198956044956107529b99956106fa9992610799575b50508160011b916000199060031b1c19161790565b90555b898b5260056020526024810135600260408d200155898b5260056020520135600360408b200155612c9a565b868852600560205263ffffffff600460408a2001911663ffffffff19825416179055612c9a565b8486526005602052600460408720019067ffffffff0000000082549160201b169067ffffffff000000001916179055565b82845260056020526005604085200155818352600560205260066040842001557f56bc7943525c3e6f4d9021b1a117499da7c54a7f1301c0f40fe346c54f175b238280a280f35b0135905038806106b6565b50838b5260208b2091601f1984168c5b8181106108005750846044946107529a98946106fa98946107219b98600195106107e6575b505050811b0190556106ce565b0135600019600384901b60f8161c191690553880806107d9565b919360206001819287870135815501950192016107b4565b60248a634e487b7160e01b81526041600452fd5b60248887630710ca8760e21b8252600452fd5b602487856378db6dd360e11b8252600452fd5b60248663ffffffff61086385612c9a565b630a00ec9560e31b835216600452fd5b8463ffffffff610863602493612c9a565b60248484620222af60e61b8252600452fd5b8380fd5b8280fd5b5034610334576040366003190112610334576108e46004356108be612c08565b906108df6108da82600052600060205260016040600020015490565b61313b565b613464565b5080f35b5034610334576020366003190112610334576004356001600160a01b0381168091036109a0578152600760205260408120604051908160208254918281520190819285526020852090855b81811061098a5750505082610949910383612c78565b604051928392602084019060208552518091526040840192915b818110610971575050500390f35b8251845285945060209384019390920191600101610963565b8254845260209093019260019283019201610933565b5080fd5b50346103345760203660031901126103345760043590818152600660205260408120916040516109d381612c45565b835481526001600160a01b036001850154166020820152600284015460408201526003840154606082015263ffffffff6004850154166080820152600584015460a0820152600684015460c0820152610a4360ff600860078701549660e085019788520154166101008301612d8f565b5115610a585760208351421015604051908152f35b60249250631585bdab60e31b8252600452fd5b503461033457806003193601126103345760206040516001600160a01b037f0000000000000000000000000000000000000000000000000000000000000000168152f35b503461033457602036600319011261033457600435610acc613057565b8015610bb657817f0000000000000000000000000000000000000000000000000000000000000000610b00833033846134f3565b610b35836001600160a01b037f000000000000000000000000000000000000000000000000000000000000000016809361354d565b803b156109a057818091602460405180948193633b6ac70d60e11b83528860048401525af18015610bab57610b96575b50506040519081527f7ff07ce9a287649537e4b012e45cf012d90228b12e2b56bb03515a6b5436fcdf60203392a280f35b81610ba091612c78565b6109a0578138610b65565b6040513d84823e3d90fd5b633728b83d60e01b8252600452602490fd5b5034610334578060031936011261033457602090604051908152f35b503461033457610bf336612c1e565b9190610bfd61327f565b610c05613182565b8184526005602052604084209260405194610c1f86612c45565b8454865260018501604051908183825492610c3984612d03565b80845293600181169081156110b35750600114611072575b50610c5e92500382612c78565b602087015260028501549560408101968752600386015460608201908152600487015497608083019263ffffffff8a16845263ffffffff60a082019a60201c168a5260ff600760058b01549a60c084019b8c52600681015460e08501520154169061010081019115158252511561106057511561104d57518086106110365750518015158061102d575b61101657505163ffffffff8381169791168710611003575163ffffffff168611610ff057856004548096610d1b82612cab565b600455610d43610d3963ffffffff610d3288612ff6565b1642612fd1565b998a9251886132b8565b9260405193610d5185612c45565b83855263ffffffff6020860192338452604087018b815260608801908b82526080890192835260a089019485526001600160a01b0360c08a019642885260e08b019889526101008b01998c8b528c52600660205260408c209a518b5551166001600160a01b0360018b01911673ffffffffffffffffffffffffffffffffffffffff19825416179055516002890155516003880155511663ffffffff60048701911663ffffffff1982541617905551600585015551600684015551600783015551906003821015610fdc57906008610e289201612fde565b3381526007602052610e3d8560408320613013565b7f0000000000000000000000000000000000000000000000000000000000000000610e6a843033846134f3565b610e9f846001600160a01b037f000000000000000000000000000000000000000000000000000000000000000016809361354d565b803b156109a057818091602460405180948193633b6ac70d60e11b83528960048401525af18015610bab57908291610fc7575b505060405163a5015dd160e01b815233600482015260248101869052602081604481857f00000000000000000000000000000000000000000000000000000000000000006001600160a01b03165af19182156104795791610f94575b506020958592610f847fd91a1948f9dabd5ed1995311385c4f57c33bfb0ebeebc884f052c3d7b85cf56c936040519384933398859094939263ffffffff6060936080840197845216602083015260408201520152565b0390a46001600255604051908152f35b90506020813d602011610fbf575b81610faf60209383612c78565b8101031261046c57516020610f2e565b3d9150610fa2565b81610fd191612c78565b610334578038610ed2565b602483634e487b7160e01b81526021600452fd5b8086630a00ec9560e31b60249352600452fd5b60248288630a00ec9560e31b8252600452fd5b8260449186637108d79b60e01b8352600452602452fd5b50808511610ce8565b83604491876320341dc760e11b8352600452602452fd5b6024848863771fc80f60e01b8252600452fd5b60248589620222af60e61b8252600452fd5b85525060208420909184915b818310611097575050906020610c5e9282010138610c51565b602091935080600191548385880101520191019091839261107e565b905060209250610c5e94915060ff191682840152151560051b82010138610c51565b503461033457602036600319011261033457600435816101006040516110fa81612c45565b8281528260208201528260408201528260608201528260808201528260a08201528260c08201528260e0820152015280825260066020526040822054156112285781526006602052604081206040519061115382612c45565b805482526001600160a01b03600182015416906020830191825260028101546040840190815260038201546060850190815263ffffffff806004850154166080870190815260058501549260a0880193845260068601549460c089019586526001600160a01b0360ff600860078a01549960e08d019a8b52015416986111de6101008c019a8b612d8f565b6040519a518b52511660208a0152516040890152516060880152511660808601525160a08501525160c08401525160e0830152516003811015610fdc576101209250610100820152f35b631585bdab60e31b8252600452602490fd5b5034610334576020366003190112610334576004358161010060405161125f81612c45565b828152606060208201528260408201528260608201528260808201528260a08201528260c08201528260e08201520152808252600560205260408220541561058857815260056020526040812090604051906112ba82612c45565b82548252600183016040519081838254926112d484612d03565b80845293600181169081156114415750600114611400575b506112f992500382612c78565b602083019081526002840154936040840194855260038101546060850190815260048201546080860163ffffffff8216815263ffffffff60a088019260201c16825260058401549260c0880193845260ff600760068701549660e08b0197885201541695610100890196151587526040519860208a525160208a0152519861012060408a0152895197886101408b0152805b8981106113ea57508997959363ffffffff938a9896938593610160809d8d0101525160608b01525160808a0152511660a0880152511660c08601525160e085015251610100840152511515610120830152601f80199101168101030190f35b6020818d018101516101608d840101520161138b565b85525060208420909184915b8183106114255750509060206112f992820101386112ec565b602091935080600191548385880101520191019091839261140c565b9050602092506112f994915060ff191682840152151560051b820101386112ec565b5034610334576040366003190112610334576001600160a01b036040611487612c08565b92600435815280602052209116600052602052602060ff604060002054166040519015158152f35b503461033457604036600319011261033457600435602435801515808203610896576114d9613057565b8284526005602052604084205415610884577f5e1ca0d952c66a9da686a54ae9512d637b650b7bcb8c79191d531bab42a65407602084928387526005825261153385600760408a20019060ff801983541691151516179055565b604051908152a215611566577fd56b2ecc5589b9acc8d71f6d84ce43da5601e7cc181695060306f1e8f565375f8280a280f35b7f433fec89376a0dfeffa81e0d77e8136e9aa6ffb7d3ed37885ecc3d97df0870c58280a280f35b50346103345780600319360112610334576115a66130c9565b6115ae613182565b600160ff19815416176001557f62e78cea01bee320cd4e420270b5ea74000d11b0c9f74754ebdbfc544b05a2586020604051338152a180f35b503461033457602036600319011261033457600435611604613057565b808252600560205260408220541561058857808252600560205260408220600701805460ff191690557f433fec89376a0dfeffa81e0d77e8136e9aa6ffb7d3ed37885ecc3d97df0870c58280a280f35b503461033457806003193601126103345760206040517fa49807205ce4d355092ef5a8a18f56e8913cf4a201fbe287825b095693c217758152f35b5034610334578060031936011261033457602060ff600154166040519015158152f35b5034610334578060031936011261033457806001600454905b8181106116dd57602083604051908152f35b808452600660205260ff600860408620015416600381101561171b5715611707575b6001016116cb565b91611713600191612cab565b9290506116ff565b602485634e487b7160e01b81526021600452fd5b50346103345780600319360112610334576117486130c9565b60015460ff8116156117885760ff19166001557f5db9ee0a495bf2e6ff9c91a7834c1ba4fdd244a5e8aa4e537bd38aeae4b073aa6020604051338152a180f35b6004827f8dfc202b000000000000000000000000000000000000000000000000000000008152fd5b50346103345780600319360112610334576003546000198101919082116117dc57602082604051908152f35b80634e487b7160e01b602492526011600452fd5b50346103345760403660031901126103345761180a612c08565b336001600160a01b03821603611826576108e490600435613464565b6004827f6697b232000000000000000000000000000000000000000000000000000000008152fd5b50346103345760203660031901126103345760043561186b61327f565b611873613182565b80825260066020526040822090815415611ed9576001600160a01b037f0000000000000000000000000000000000000000000000000000000000000000166040516331a9108f60e11b8152826004820152602081602481855afa908115611e88578591611eaa575b506001600160a01b0333911603611e9357604051631d27c97f60e21b8152826004820152602081602481855afa908115611e88578591611e59575b50611de05750600882019160ff835416600381101561171b57611db45760028101805485526005602052604085209160405161195181612c45565b835481526001840160405190818982549261196b84612d03565b8084529360018116908115611d925750600114611d51575b5061199092500382612c78565b6020820152600284015460408201526003840154606082015263ffffffff6004850154818116608084015260201c1660a0820152600584015460c082015261010060ff600760068701549660e085019788520154161515910152600781015442109260038201805492889389809288600014611c215750505050611a178154925183613216565b93848303928311611c0d57908291899398600160ff1982541617905554835260086020526001600160a01b0360408420541690811515600014611b5b576001600160a01b037f0000000000000000000000000000000000000000000000000000000000000000169054813b15611b575760405163347e064d60e11b8152600481019190915230602482015293908490604490829084905af191898315610479578693611b38575b50611af59350611af07f0000000000000000000000000000000000000000000000000000000000000000913383613408565b613408565b6040519485526020850152604084015260608301527f054363ee83afd0f9a852fac21bf9157647284c0f7a96499e96f9238cf2eb3bdd60803393a3600160025580f35b611b46919350809294612c78565b611b535781849189611abe565b8780fd5b8480fd5b5050906001600160a01b037f000000000000000000000000000000000000000000000000000000000000000016803b156109a05760405163347e064d60e11b8152600481018490523060248201529082908290604490829084905af18015610bab57611bf4575b5050611bef90337f0000000000000000000000000000000000000000000000000000000000000000613408565b611af5565b81611bfe91612c78565b611c09578638611bc2565b8680fd5b602489634e487b7160e01b81526011600452fd5b909450611c38929650600591955001548094612fd1565b875460ff1916600117909755547f00000000000000000000000000000000000000000000000000000000000000006001600160a01b031690813b1561089a5760405163347e064d60e11b81526004810191909152306024820152828160448183865af1908115611d46578391611d31575b505082611cde575b5050611bef85337f0000000000000000000000000000000000000000000000000000000000000000613408565b803b156109a05760405163347e064d60e11b8152600481018490523060248201529082908290604490829084905af18015610bab5715611cb15781611d2291612c78565b611d2d578538611cb1565b8580fd5b81611d3b91612c78565b6109a0578138611ca9565b6040513d85823e3d90fd5b8b525060208a2090918a915b818310611d765750509060206119909282010138611983565b6020919350806001915483858801015201910190918392611d5d565b90506020925061199094915060ff191682840152151560051b82010138611983565b602484837f08b69347000000000000000000000000000000000000000000000000000000008252600452fd5b6024916020859260405194858092638e3dcabf60e01b82528560048301525afa908115610bab578291611e24575b604493506301de736d60e71b8352600452602452fd5b90506020833d602011611e51575b81611e3f60209383612c78565b8101031261046c576044925190611e0e565b3d9150611e32565b611e7b915060203d602011611e81575b611e738183612c78565b810190612fb9565b38611916565b503d611e69565b6040513d87823e3d90fd5b604484836357a7364160e11b825233600452602452fd5b611ecc915060203d602011611ed2575b611ec48183612c78565b810190612f9a565b386118db565b503d611eba565b631585bdab60e31b8352600452602482fd5b5034610334576040366003190112610334576108e4600435611f0b612c08565b90611f276108da82600052600060205260016040600020015490565b61336e565b50346103345760203660031901126103345760206102b7600435600052600060205260016040600020015490565b503461033457611f6936612c1e565b9291611f7361327f565b611f7b613182565b808352600660205260408320805415612587576001600160a01b037f00000000000000000000000000000000000000000000000000000000000000001693604051946331a9108f60e11b8652836004870152602086602481845afa958615610bab578296612566575b506001600160a01b0386169333850361255057604051631d27c97f60e21b8152816004820152602081602481865afa908115612545578491612526575b506124e457600884019360ff855416600381101561171b57611db45760078101548042106124b05750806003600561205d930154910154612fd1565b93600260ff19825416179055858352600560205260408320916040519761208389612c45565b835489526001840160405190818782549261209d84612d03565b808452936001811690811561248e575060011461244d575b506120c292500382612c78565b60208a015260028401549860408101998a5260038501546060820190815260048601549a608083019263ffffffff8d16845263ffffffff60a082019d60201c168d5260ff600760058a01549960c084019a8b52600681015460e08501520154169061010081019115158252511561243b575115612428575180891061241157505180151580612408575b6123f157505163ffffffff8b81169a91168a106123de575163ffffffff1689116123cb5760045498858a828d61218183612cab565b60045561218d90612ff6565b61219d9063ffffffff1642612fd1565b9751906121aa918b6132b8565b92604051936121b885612c45565b82855260208501918c83528d6040870190815260608701908d82526080880192835260a0880193845260c088019442865260e08901968d88526101008a0198808a52528d60066020526040902098518955516001600160a01b031660018901906001600160a01b0316815473ffffffffffffffffffffffffffffffffffffffff19161790555160028801555160038701555163ffffffff16600486019063ffffffff1663ffffffff19825416179055516005850155516006840155516007830155519060038210156123b757926020926122998c9360086122e09701612fde565b898852600784526122ad8360408a20613013565b8760405180968195829463a5015dd160e01b845260048401602090939291936001600160a01b0360408201951681520152565b03925af19384156104795793612379575b5092610f847fd91a1948f9dabd5ed1995311385c4f57c33bfb0ebeebc884f052c3d7b85cf56c9360209993878a80987f89968f5fcbd5026a633b59a0e4d68beeb92c738cc47652276d7c53f3644e39e160408d8151908a82526020820152a4604051948594859094939263ffffffff6060936080840197845216602083015260408201520152565b97919250926020883d6020116123af575b8161239760209383612c78565b8101031261046c579651909692909190610f846122f1565b3d915061238a565b602487634e487b7160e01b81526021600452fd5b6024858a630a00ec9560e31b8252600452fd5b6024868b630a00ec9560e31b8252600452fd5b8660449189637108d79b60e01b8352600452602452fd5b5080881161214c565b876044918a6320341dc760e11b8352600452602452fd5b6024888c63771fc80f60e01b8252600452fd5b6024898d620222af60e61b8252600452fd5b89525060208820909188915b8183106124725750509060206120c292820101386120b5565b6020919350806001915483858801015201910190918392612459565b9050602092506120c294915060ff191682840152151560051b820101386120b5565b84606491847fe6f611f400000000000000000000000000000000000000000000000000000000835260045260245242604452fd5b60206024939260405194858092638e3dcabf60e01b82528560048301525afa908115610bab578291611e2457604493506301de736d60e71b8352600452602452fd5b61253f915060203d602011611e8157611e738183612c78565b38612021565b6040513d86823e3d90fd5b6357a7364160e11b835233600452602452604482fd5b61258091965060203d602011611ed257611ec48183612c78565b9438611fe4565b60248483631585bdab60e31b8252600452fd5b50346103345760203660031901126103345760206102b7600435612db1565b5034610334576040366003190112610334576004356125d6612c08565b6125de613057565b818352600560205260408320541561268f576001600160a01b03169081156126675780835260086020526001600160a01b03604084205416908084526008602052604084208373ffffffffffffffffffffffffffffffffffffffff198254161790557f24cd501da2a8ac4d99821678777431a1aa2e344aed12d8402ddfadad4151b85f8480a480f35b6004837fe6c4247b000000000000000000000000000000000000000000000000000000008152fd5b60248383620222af60e61b8252600452fd5b50346103345760203660031901126103345760043567ffffffffffffffff81116109a0578060040160e0600319833603011261089a576126df613057565b6126e7613182565b6064820163ffffffff6126f982612c9a565b1615612a50576084830161270c81612c9a565b63ffffffff8061271b85612c9a565b16911611156108735760a48401358015612a3e5760c4850135916127108311612a2b579061276992916003549661275188612cab565b60035561276f6127618880612cd0565b969097612c9a565b92612c9a565b906040519661277d88612c45565b89885267ffffffffffffffff8711612a17578a90604051976127a96020601f19601f840116018a612c78565b808952368183011161089a5780602092838b013788010152602087019586526040870160248201358152604460608901920135825263ffffffff608089019416845263ffffffff60a089019316835260c0880194855260e08801958652610100880196600188528a8c52600560205260408c209851895560018901905180519067ffffffffffffffff8211612a03578d9061284e836128488654612d03565b86612d3d565b602091601f841160011461296157966129289b967fcff9fceb24c29b87ea0420f948cb3bfe572aa155f1a3500734f9d291bf087c9b9e9b966129229b9660409f9b9587612900986128bc9263ffffffff9860079f926129565750508160011b916000199060031b1c19161790565b90555b5160028b01555160038a0155818060048b01945116168219845416178355511667ffffffff0000000082549160201b169067ffffffff000000001916179055565b51600585015551600684015551151591019060ff801983541691151516179055565b80612cd0565b919082825193849260208452816020850152848401378181018301879052601f01601f19168101030190a280f35b0151905038806106b6565b9190601f198416858452828420935b8181106129eb5750967fcff9fceb24c29b87ea0420f948cb3bfe572aa155f1a3500734f9d291bf087c9b9e9b966129229b9660409f9b956129289f9a9760019163ffffffff9760079e97836129009c106129d2575b505050811b0190556128bf565b015160001960f88460031b161c191690553880806129c5565b92936020600181928786015181550195019301612970565b60248e634e487b7160e01b81526041600452fd5b60248b634e487b7160e01b81526041600452fd5b60248784630710ca8760e21b8252600452fd5b6378db6dd360e11b8652600452602485fd5b8363ffffffff610863602493612c9a565b50346103345780600319360112610334576004546000198101919082116117dc57602082604051908152f35b50346103345760203660031901126103345760043590612aab613057565b8115612b56576001600160a01b037f000000000000000000000000000000000000000000000000000000000000000016803b156109a05760405163347e064d60e11b8152600481018490523360248201529082908290604490829084905af18015610bab57612b46575b50906040519081527fb1cce8684b4ffa8667b4577654e61ee3480d661ee9c27522ac80e211f6bd4d2560203392a280f35b81612b5091612c78565b38612b15565b602491633728b83d60e01b8252600452fd5b9050346109a05760203660031901126109a0576004357fffffffff00000000000000000000000000000000000000000000000000000000811680910361089a57602092507f7965db0b000000000000000000000000000000000000000000000000000000008114908115612bde575b5015158152f35b7f01ffc9a70000000000000000000000000000000000000000000000000000000091501438612bd7565b602435906001600160a01b038216820361046c57565b606090600319011261046c57600435906024359060443563ffffffff8116810361046c5790565b610120810190811067ffffffffffffffff821117612c6257604052565b634e487b7160e01b600052604160045260246000fd5b90601f8019910116810190811067ffffffffffffffff821117612c6257604052565b3563ffffffff8116810361046c5790565b6000198114612cba5760010190565b634e487b7160e01b600052601160045260246000fd5b903590601e198136030182121561046c570180359067ffffffffffffffff821161046c5760200191813603831361046c57565b90600182811c92168015612d33575b6020831014612d1d57565b634e487b7160e01b600052602260045260246000fd5b91607f1691612d12565b601f8211612d4a57505050565b6000526020600020906020601f840160051c83019310612d85575b601f0160051c01905b818110612d79575050565b60008155600101612d6e565b9091508190612d65565b6003821015612d9b5752565b634e487b7160e01b600052602160045260246000fd5b9081600052600660205260406000209160405192612dce84612c45565b805484526001600160a01b036001820154166020850152600281015491604085019283526003820154946060810195865263ffffffff6004840154166080820152600583015460a0820152600683015460c0820152612e4460ff600860078601549560e085019687520154166101008301612d8f565b5115612f86575051421015612f7f57516000526005602052604060002060405192612e6e84612c45565b81548452600182019360405194600090805490612e8a82612d03565b8089529160018116908115612f585750600114612f17575b505094612eb581612f1496970382612c78565b6020820152600283015460408201526003830154606082015263ffffffff6004840154818116608084015260201c1660a0820152600583015460c082015261010060ff60076006860154958660e0860152015416151591015251613216565b90565b600090815260208120979250905b808210612f3e57509095508501602001612eb586612ea2565b91966001816020925483858c010152019101909691612f25565b60ff19166020808b019190915292151560051b89019092019250612eb59150879050612ea2565b5060009150565b631585bdab60e31b60005260045260246000fd5b9081602091031261046c57516001600160a01b038116810361046c5790565b9081602091031261046c5751801515810361046c5790565b91908201809211612cba57565b906003811015612d9b5760ff80198354169116179055565b63ffffffff620151809116029063ffffffff8216918203612cba57565b80549068010000000000000000821015612c6257600182018082558210156130415760005260206000200155565b634e487b7160e01b600052603260045260246000fd5b3360009081527f7d7ffb7a348e1c6a02869081a26547b49160dd3df72d1d75a570eb9b698292ec602052604090205460ff161561309057565b63e2517d3f60e01b600052336004527fa49807205ce4d355092ef5a8a18f56e8913cf4a201fbe287825b095693c2177560245260446000fd5b3360009081527ff7c9542c591017a21c74b6f3fab6263c7952fc0aaf9db4c22a2a04ddc7f8674f602052604090205460ff161561310257565b63e2517d3f60e01b600052336004527f65d7a28e3265b37a6474929f336521b332c1681b933f6cb9f3376673440d862a60245260446000fd5b80600052600060205260406000206001600160a01b03331660005260205260ff604060002054161561316a5750565b63e2517d3f60e01b6000523360045260245260446000fd5b60ff6001541661318e57565b7fd93c06650000000000000000000000000000000000000000000000000000000060005260046000fd5b156131bf57565b606460405162461bcd60e51b815260206004820152601a60248201527f5072696e636970616c206d75737420626520706f7369746976650000000000006044820152fd5b81810292918115918404141715612cba57565b6132218115156131b8565b612710821161323b576127109161323791613203565b0490565b606460405162461bcd60e51b815260206004820152601f60248201527f50656e616c747920726174652063616e6e6f74206578636565642031303025006044820152fd5b600280541461328e5760028055565b7f3ee5aeb50000000000000000000000000000000000000000000000000000000060005260046000fd5b916132c48315156131b8565b811561332a5780156132e6576132e1613237926237b1d094613203565b613203565b606460405162461bcd60e51b815260206004820152601560248201527f5465726d206d75737420626520706f73697469766500000000000000000000006044820152fd5b606460405162461bcd60e51b815260206004820152601560248201527f52617465206d75737420626520706f73697469766500000000000000000000006044820152fd5b80600052600060205260406000206001600160a01b03831660005260205260ff60406000205416156000146134015780600052600060205260406000206001600160a01b0383166000526020526040600020600160ff198254161790556001600160a01b03339216907f2f8788117e7eff1d82e926ec794901d17c78024a50270940304540a733656f0d600080a4600190565b5050600090565b6040517fa9059cbb0000000000000000000000000000000000000000000000000000000060208201526001600160a01b039290921660248301526044808301939093529181526134629161345d606483612c78565b613611565b565b80600052600060205260406000206001600160a01b03831660005260205260ff604060002054166000146134015780600052600060205260406000206001600160a01b038316600052602052604060002060ff1981541690556001600160a01b03339216907ff6391f5c32d9c69d2a47ea670b442974b53935d1edc7fd64eb21e047a839171b600080a4600190565b9091926001600160a01b036134629481604051957f23b872dd00000000000000000000000000000000000000000000000000000000602088015216602486015216604484015260648301526064825261345d608483612c78565b60405163095ea7b360e01b60208083019182526001600160a01b03851660248401526044808401969096529482529293909260009061358d606486612c78565b84519082855af16000513d826135ec575b5050156135aa57505050565b61345d613462936001600160a01b036040519163095ea7b360e01b602084015216602482015260006044820152604481526135e6606482612c78565b82613611565b90915061360957506001600160a01b0381163b15155b388061359e565b600114613602565b906000602091828151910182855af115613682576000513d61367957506001600160a01b0381163b155b6136425750565b6001600160a01b03907f5274afe7000000000000000000000000000000000000000000000000000000006000521660045260246000fd5b6001141561363b565b6040513d6000823e3d90fdfea2646970667358221220e6f5a17dea9194b1437d31a3c7cd090e5341e71e4173cdf6ec130b758c8967b464736f6c634300081c00332f8788117e7eff1d82e926ec794901d17c78024a50270940304540a733656f0d7d7ffb7a348e1c6a02869081a26547b49160dd3df72d1d75a570eb9b698292ecad3228b676f7d3cd4284a5443f17f1962b36e491b30a40b2405849e597ba5fb5",
  "devdoc": {
    "author": "Saving Banking Team",
    "details": "Implements role-based access control, pausability, and reentrancy protection  Features: - Create and manage saving plans with configurable interest rates and terms - Allow users to open fixed-term deposits and earn interest - Support early withdrawal with configurable penalties - Enable deposit renewal with compound interest (principal + interest) - Mint NFT certificates for each deposit as proof of ownership  Security: - Uses OpenZeppelin's AccessControl for role management - Implements ReentrancyGuard on all state-changing functions - Supports emergency pause functionality - Separates liquidity management via external Vault contract",
    "errors": {
      "AccessControlBadConfirmation()": [
        {
          "details": "The caller of a function is not the expected one. NOTE: Don't confuse with {AccessControlUnauthorizedAccount}."
        }
      ],
      "AccessControlUnauthorizedAccount(address,bytes32)": [
        {
          "details": "The `account` is missing a role."
        }
      ],
      "EnforcedPause()": [
        {
          "details": "The operation failed because the contract is paused."
        }
      ],
      "ExpectedPause()": [
        {
          "details": "The operation failed because the contract is not paused."
        }
      ],
      "ReentrancyGuardReentrantCall()": [
        {
          "details": "Unauthorized reentrant call."
        }
      ],
      "SafeERC20FailedOperation(address)": [
        {
          "details": "An operation with an ERC-20 token failed."
        }
      ]
    },
    "events": {
      "Paused(address)": {
        "details": "Emitted when the pause is triggered by `account`."
      },
      "RoleAdminChanged(bytes32,bytes32,bytes32)": {
        "details": "Emitted when `newAdminRole` is set as ``role``'s admin role, replacing `previousAdminRole` `DEFAULT_ADMIN_ROLE` is the starting admin for all roles, despite {RoleAdminChanged} not being emitted to signal this."
      },
      "RoleGranted(bytes32,address,address)": {
        "details": "Emitted when `account` is granted `role`. `sender` is the account that originated the contract call. This account bears the admin role (for the granted role). Expected in cases where the role was granted using the internal {AccessControl-_grantRole}."
      },
      "RoleRevoked(bytes32,address,address)": {
        "details": "Emitted when `account` is revoked `role`. `sender` is the account that originated the contract call:   - if using `revokeRole`, it is the admin role bearer   - if using `renounceRole`, it is the role bearer (i.e. `account`)"
      },
      "Unpaused(address)": {
        "details": "Emitted when the pause is lifted by `account`."
      }
    },
    "kind": "dev",
    "methods": {
      "activateSavingPlan(uint256)": {
        "details": "Convenience function equivalent to updateSavingPlanStatus(planId, true)",
        "params": {
          "planId": "The ID of the saving plan to activate"
        }
      },
      "calculateEarlyWithdrawalPenalty(uint256)": {
        "params": {
          "depositId": "The ID of the deposit"
        },
        "returns": {
          "penaltyAmount": "The penalty amount if withdrawn early (0 if already mature)"
        }
      },
      "calculateExpectedInterest(uint256,uint256,uint32)": {
        "details": "Uses simple interest formula: (principal * rate * time) / (10000 * 365)",
        "params": {
          "amount": "The deposit principal amount",
          "planId": "The saving plan ID to use for interest rate",
          "termInDays": "The deposit term in days"
        },
        "returns": {
          "_0": "The calculated interest amount"
        }
      },
      "constructor": {
        "details": "Grants DEFAULT_ADMIN_ROLE and ADMIN_ROLE to the deployer",
        "params": {
          "certificateAddress": "Address of the DepositCertificate NFT contract",
          "tokenAddress": "Address of the ERC20 token for deposits (e.g., USDC)",
          "vaultAddress": "Address of the Vault contract for liquidity management"
        }
      },
      "createDeposit(uint256,uint256,uint32)": {
        "details": "Mints an NFT certificate as proof of deposit ownership",
        "params": {
          "amount": "The deposit amount (must be within plan's min/max limits)",
          "savingPlanId": "The ID of the saving plan to use",
          "termInDays": "The deposit term in days (must be within plan's term limits)"
        },
        "returns": {
          "depositId": "The unique ID of the created deposit  Requirements: - Contract must not be paused - Saving plan must exist and be active - Amount must be within plan's deposit limits - Term must be within plan's term limits - Caller must have approved this contract to spend tokens  Effects: - Transfers tokens from caller to vault - Mints NFT certificate to caller - Records deposit details - Emits DepositCreated event"
        }
      },
      "createSavingPlan((string,uint256,uint256,uint32,uint32,uint256,uint256))": {
        "details": "Only callable by ADMIN_ROLE. Emits SavingPlanCreated event on success.",
        "params": {
          "input": "The saving plan configuration parameters  Requirements: - minTermInDays must be greater than 0 - maxTermInDays must be greater than minTermInDays - annualInterestRateInBasisPoints must be greater than 0 - penaltyRateInBasisPoints must not exceed 10000 (100%)"
        }
      },
      "deactivateSavingPlan(uint256)": {
        "details": "Existing deposits are not affected",
        "params": {
          "planId": "The ID of the saving plan to deactivate"
        }
      },
      "depositToVault(uint256)": {
        "details": "Transfers tokens from admin to this contract, then to vault",
        "params": {
          "amount": "The amount of tokens to deposit (must be pre-approved)  Requirements: - amount must be greater than 0 - Caller must have approved this contract to spend tokens"
        }
      },
      "getActiveDepositCount()": {
        "details": "Iterates through all deposits - may be gas expensive for large datasets",
        "returns": {
          "count": "The number of deposits with Active status"
        }
      },
      "getDeposit(uint256)": {
        "params": {
          "depositId": "The ID of the deposit"
        },
        "returns": {
          "_0": "The Deposit struct containing all deposit details"
        }
      },
      "getDepositCertificateAddress()": {
        "returns": {
          "_0": "The DepositCertificate contract address"
        }
      },
      "getDepositToken()": {
        "returns": {
          "_0": "The ERC20 token contract address"
        }
      },
      "getPenaltyReceiver(uint256)": {
        "params": {
          "planId": "The ID of the saving plan"
        },
        "returns": {
          "_0": "The address that receives early withdrawal penalties (zero address if not set)"
        }
      },
      "getRoleAdmin(bytes32)": {
        "details": "Returns the admin role that controls `role`. See {grantRole} and {revokeRole}. To change a role's admin, use {_setRoleAdmin}."
      },
      "getSavingPlan(uint256)": {
        "params": {
          "planId": "The ID of the saving plan"
        },
        "returns": {
          "_0": "The SavingPlan struct containing all plan details"
        }
      },
      "getTotalDeposits()": {
        "returns": {
          "_0": "The count of all deposits (including closed/renewed ones)"
        }
      },
      "getTotalPlans()": {
        "returns": {
          "_0": "The count of all saving plans (including inactive ones)"
        }
      },
      "getUserDepositIds(address)": {
        "params": {
          "user": "The address of the user"
        },
        "returns": {
          "_0": "Array of deposit IDs owned by the user"
        }
      },
      "getVaultAddress()": {
        "returns": {
          "_0": "The Vault contract address"
        }
      },
      "getVaultBalance()": {
        "returns": {
          "_0": "The vault's token balance"
        }
      },
      "grantRole(bytes32,address)": {
        "details": "Grants `role` to `account`. If `account` had not been already granted `role`, emits a {RoleGranted} event. Requirements: - the caller must have ``role``'s admin role. May emit a {RoleGranted} event."
      },
      "hasRole(bytes32,address)": {
        "details": "Returns `true` if `account` has been granted `role`."
      },
      "isDepositMature(uint256)": {
        "params": {
          "depositId": "The ID of the deposit to check"
        },
        "returns": {
          "_0": "True if the deposit is mature (current time >= maturity date)"
        }
      },
      "pause()": {
        "details": "Only callable by PAUSER_ROLE. Admin functions remain available."
      },
      "paused()": {
        "details": "Returns true if the contract is paused, and false otherwise."
      },
      "renewDeposit(uint256,uint256,uint32)": {
        "details": "Creates a new deposit with principal = old principal + earned interest",
        "params": {
          "depositId": "The ID of the deposit to renew",
          "newPlanId": "The saving plan ID for the new deposit (can be same or different)",
          "newTermInDays": "The term for the new deposit"
        },
        "returns": {
          "newDepositId": "The ID of the newly created deposit  Compound Interest: - New principal = old principal + old expected interest - New interest calculated based on new principal and new plan rate  Requirements: - Contract must not be paused - Caller must be the deposit owner - Original deposit must be matured (current time >= maturity date) - Original deposit must be in Active status - New plan must exist and be active - New principal must meet new plan's deposit limits - New term must be within new plan's term limits  Effects: - Updates old deposit status to Renewed - Creates new deposit with compounded principal - Mints new NFT certificate - Emits DepositRenewed and DepositCreated events"
        }
      },
      "renounceRole(bytes32,address)": {
        "details": "Revokes `role` from the calling account. Roles are often managed via {grantRole} and {revokeRole}: this function's purpose is to provide a mechanism for accounts to lose their privileges if they are compromised (such as when a trusted device is misplaced). If the calling account had been revoked `role`, emits a {RoleRevoked} event. Requirements: - the caller must be `callerConfirmation`. May emit a {RoleRevoked} event."
      },
      "revokeRole(bytes32,address)": {
        "details": "Revokes `role` from `account`. If `account` had been granted `role`, emits a {RoleRevoked} event. Requirements: - the caller must have ``role``'s admin role. May emit a {RoleRevoked} event."
      },
      "supportsInterface(bytes4)": {
        "details": "See {IERC165-supportsInterface}."
      },
      "unpause()": {
        "details": "Only callable by PAUSER_ROLE"
      },
      "updatePenaltyReceiver(uint256,address)": {
        "details": "If not set (zero address), penalties remain in the vault",
        "params": {
          "newReceiver": "The address to receive penalty amounts",
          "planId": "The ID of the saving plan"
        }
      },
      "updateSavingPlan(uint256,(string,uint256,uint256,uint32,uint32,uint256,uint256))": {
        "details": "Only callable by ADMIN_ROLE. Does not affect existing deposits.",
        "params": {
          "input": "The new saving plan configuration parameters  Requirements: - Plan must exist - Same validation rules as createSavingPlan",
          "planId": "The ID of the saving plan to update"
        }
      },
      "updateSavingPlanStatus(uint256,bool)": {
        "details": "Only callable by ADMIN_ROLE. Inactive plans cannot accept new deposits.",
        "params": {
          "isEnabled": "True to activate, false to deactivate the plan",
          "planId": "The ID of the saving plan to update"
        }
      },
      "withdrawDeposit(uint256)": {
        "details": "Only the current NFT certificate owner can withdraw the deposit",
        "params": {
          "depositId": "The ID of the deposit to withdraw  Withdrawal Types: - At Maturity: NFT owner receives principal + full interest - Early Withdrawal: NFT owner receives principal - penalty (no interest)  Penalty Handling: - If penaltyReceiver is set: penalty sent to receiver - If penaltyReceiver is zero: penalty remains in vault  Requirements: - Contract must not be paused - Caller must be the current NFT certificate owner - Deposit must be in Active status - Vault must have sufficient liquidity  Effects: - Updates deposit status to Withdrawn - Transfers appropriate amount to user - Emits DepositWithdrawn event"
        }
      },
      "withdrawFromVault(uint256)": {
        "details": "Used for emergency or excess liquidity removal",
        "params": {
          "amount": "The amount of tokens to withdraw  Requirements: - amount must be greater than 0 - Vault must have sufficient liquidity"
        }
      }
    },
    "stateVariables": {
      "_nextDepositId": {
        "details": "Counter for generating unique deposit IDs (starts at 1)"
      },
      "_nextPlanId": {
        "details": "Counter for generating unique plan IDs (starts at 1)"
      },
      "deposits": {
        "details": "Mapping from deposit ID to Deposit struct"
      },
      "planPenaltyReceivers": {
        "details": "Mapping from plan ID to penalty receiver address"
      },
      "savingPlans": {
        "details": "Mapping from plan ID to SavingPlan struct"
      },
      "userDepositIds": {
        "details": "Mapping from user address to array of their deposit IDs"
      }
    },
    "title": "SavingBank",
    "version": 1
  },
  "userdoc": {
    "kind": "user",
    "methods": {
      "ADMIN_ROLE()": {
        "notice": "Role identifier for administrative operations (plan management, vault operations)"
      },
      "PAUSER_ROLE()": {
        "notice": "Role identifier for emergency pause/unpause operations"
      },
      "activateSavingPlan(uint256)": {
        "notice": "Activates a saving plan to accept new deposits"
      },
      "calculateEarlyWithdrawalPenalty(uint256)": {
        "notice": "Calculates the penalty amount for early withdrawal of a specific deposit"
      },
      "calculateExpectedInterest(uint256,uint256,uint32)": {
        "notice": "Calculates the expected interest for a hypothetical deposit"
      },
      "constructor": {
        "notice": "Initializes the SavingBank contract with required dependencies"
      },
      "createDeposit(uint256,uint256,uint32)": {
        "notice": "Creates a new fixed-term deposit for the caller"
      },
      "createSavingPlan((string,uint256,uint256,uint32,uint32,uint256,uint256))": {
        "notice": "Creates a new saving plan with specified parameters"
      },
      "deactivateSavingPlan(uint256)": {
        "notice": "Deactivates a saving plan to prevent new deposits"
      },
      "depositCertificate()": {
        "notice": "The ERC721 contract for minting deposit certificates"
      },
      "depositToVault(uint256)": {
        "notice": "Deposits tokens into the vault for interest payments"
      },
      "depositToken()": {
        "notice": "The ERC20 token used for deposits (e.g., USDC)"
      },
      "getActiveDepositCount()": {
        "notice": "Counts the number of currently active deposits"
      },
      "getDeposit(uint256)": {
        "notice": "Retrieves the details of a deposit"
      },
      "getDepositCertificateAddress()": {
        "notice": "Returns the address of the deposit certificate NFT contract"
      },
      "getDepositToken()": {
        "notice": "Returns the address of the deposit token (e.g., USDC)"
      },
      "getPenaltyReceiver(uint256)": {
        "notice": "Returns the penalty receiver address for a specific plan"
      },
      "getSavingPlan(uint256)": {
        "notice": "Retrieves the details of a saving plan"
      },
      "getTotalDeposits()": {
        "notice": "Returns the total number of deposits ever created"
      },
      "getTotalPlans()": {
        "notice": "Returns the total number of saving plans created"
      },
      "getUserDepositIds(address)": {
        "notice": "Retrieves all deposit IDs for a specific user"
      },
      "getVaultAddress()": {
        "notice": "Returns the address of the vault contract"
      },
      "getVaultBalance()": {
        "notice": "Returns the current balance of the vault"
      },
      "isDepositMature(uint256)": {
        "notice": "Checks if a deposit has reached its maturity date"
      },
      "pause()": {
        "notice": "Pauses all user operations (deposits, withdrawals, renewals)"
      },
      "renewDeposit(uint256,uint256,uint32)": {
        "notice": "Renews a matured deposit with compound interest"
      },
      "unpause()": {
        "notice": "Resumes all user operations after a pause"
      },
      "updatePenaltyReceiver(uint256,address)": {
        "notice": "Sets the address that receives early withdrawal penalties for a plan"
      },
      "updateSavingPlan(uint256,(string,uint256,uint256,uint32,uint32,uint256,uint256))": {
        "notice": "Updates an existing saving plan's parameters"
      },
      "updateSavingPlanStatus(uint256,bool)": {
        "notice": "Updates the active status of a saving plan"
      },
      "vault()": {
        "notice": "The vault contract managing liquidity for interest payments"
      },
      "withdrawDeposit(uint256)": {
        "notice": "Withdraws a deposit (at maturity or early with penalty)"
      },
      "withdrawFromVault(uint256)": {
        "notice": "Withdraws tokens from the vault to admin"
      }
    },
    "notice": "Core contract for on-chain savings bank operations with fixed-term deposits",
    "version": 1
  },
  "storageLayout": {
    "storage": [
      {
        "astId": 26,
        "contract": "contracts/SavingBank.sol:SavingBank",
        "label": "_roles",
        "offset": 0,
        "slot": "0",
        "type": "t_mapping(t_bytes32,t_struct(RoleData)21_storage)"
      },
      {
        "astId": 3394,
        "contract": "contracts/SavingBank.sol:SavingBank",
        "label": "_paused",
        "offset": 0,
        "slot": "1",
        "type": "t_bool"
      },
      {
        "astId": 3504,
        "contract": "contracts/SavingBank.sol:SavingBank",
        "label": "_status",
        "offset": 0,
        "slot": "2",
        "type": "t_uint256"
      },
      {
        "astId": 8597,
        "contract": "contracts/SavingBank.sol:SavingBank",
        "label": "_nextPlanId",
        "offset": 0,
        "slot": "3",
        "type": "t_uint256"
      },
      {
        "astId": 8600,
        "contract": "contracts/SavingBank.sol:SavingBank",
        "label": "_nextDepositId",
        "offset": 0,
        "slot": "4",
        "type": "t_uint256"
      },
      {
        "astId": 8606,
        "contract": "contracts/SavingBank.sol:SavingBank",
        "label": "savingPlans",
        "offset": 0,
        "slot": "5",
        "type": "t_mapping(t_uint256,t_struct(SavingPlan)10943_storage)"
      },
      {
        "astId": 8612,
        "contract": "contracts/SavingBank.sol:SavingBank",
        "label": "deposits",
        "offset": 0,
        "slot": "6",
        "type": "t_mapping(t_uint256,t_struct(Deposit)10978_storage)"
      },
      {
        "astId": 8618,
        "contract": "contracts/SavingBank.sol:SavingBank",
        "label": "userDepositIds",
        "offset": 0,
        "slot": "7",
        "type": "t_mapping(t_address,t_array(t_uint256)dyn_storage)"
      },
      {
        "astId": 8623,
        "contract": "contracts/SavingBank.sol:SavingBank",
        "label": "planPenaltyReceivers",
        "offset": 0,
        "slot": "8",
        "type": "t_mapping(t_uint256,t_address)"
      }
    ],
    "types": {
      "t_address": {
        "encoding": "inplace",
        "label": "address",
        "numberOfBytes": "20"
      },
      "t_array(t_uint256)dyn_storage": {
        "base": "t_uint256",
        "encoding": "dynamic_array",
        "label": "uint256[]",
        "numberOfBytes": "32"
      },
      "t_bool": {
        "encoding": "inplace",
        "label": "bool",
        "numberOfBytes": "1"
      },
      "t_bytes32": {
        "encoding": "inplace",
        "label": "bytes32",
        "numberOfBytes": "32"
      },
      "t_enum(DepositStatus)10924": {
        "encoding": "inplace",
        "label": "enum ISavingBankStructs.DepositStatus",
        "numberOfBytes": "1"
      },
      "t_mapping(t_address,t_array(t_uint256)dyn_storage)": {
        "encoding": "mapping",
        "key": "t_address",
        "label": "mapping(address => uint256[])",
        "numberOfBytes": "32",
        "value": "t_array(t_uint256)dyn_storage"
      },
      "t_mapping(t_address,t_bool)": {
        "encoding": "mapping",
        "key": "t_address",
        "label": "mapping(address => bool)",
        "numberOfBytes": "32",
        "value": "t_bool"
      },
      "t_mapping(t_bytes32,t_struct(RoleData)21_storage)": {
        "encoding": "mapping",
        "key": "t_bytes32",
        "label": "mapping(bytes32 => struct AccessControl.RoleData)",
        "numberOfBytes": "32",
        "value": "t_struct(RoleData)21_storage"
      },
      "t_mapping(t_uint256,t_address)": {
        "encoding": "mapping",
        "key": "t_uint256",
        "label": "mapping(uint256 => address)",
        "numberOfBytes": "32",
        "value": "t_address"
      },
      "t_mapping(t_uint256,t_struct(Deposit)10978_storage)": {
        "encoding": "mapping",
        "key": "t_uint256",
        "label": "mapping(uint256 => struct ISavingBankStructs.Deposit)",
        "numberOfBytes": "32",
        "value": "t_struct(Deposit)10978_storage"
      },
      "t_mapping(t_uint256,t_struct(SavingPlan)10943_storage)": {
        "encoding": "mapping",
        "key": "t_uint256",
        "label": "mapping(uint256 => struct ISavingBankStructs.SavingPlan)",
        "numberOfBytes": "32",
        "value": "t_struct(SavingPlan)10943_storage"
      },
      "t_string_storage": {
        "encoding": "bytes",
        "label": "string",
        "numberOfBytes": "32"
      },
      "t_struct(Deposit)10978_storage": {
        "encoding": "inplace",
        "label": "struct ISavingBankStructs.Deposit",
        "members": [
          {
            "astId": 10960,
            "contract": "contracts/SavingBank.sol:SavingBank",
            "label": "id",
            "offset": 0,
            "slot": "0",
            "type": "t_uint256"
          },
          {
            "astId": 10962,
            "contract": "contracts/SavingBank.sol:SavingBank",
            "label": "user",
            "offset": 0,
            "slot": "1",
            "type": "t_address"
          },
          {
            "astId": 10964,
            "contract": "contracts/SavingBank.sol:SavingBank",
            "label": "savingPlanId",
            "offset": 0,
            "slot": "2",
            "type": "t_uint256"
          },
          {
            "astId": 10966,
            "contract": "contracts/SavingBank.sol:SavingBank",
            "label": "amount",
            "offset": 0,
            "slot": "3",
            "type": "t_uint256"
          },
          {
            "astId": 10968,
            "contract": "contracts/SavingBank.sol:SavingBank",
            "label": "termInDays",
            "offset": 0,
            "slot": "4",
            "type": "t_uint32"
          },
          {
            "astId": 10970,
            "contract": "contracts/SavingBank.sol:SavingBank",
            "label": "expectedInterest",
            "offset": 0,
            "slot": "5",
            "type": "t_uint256"
          },
          {
            "astId": 10972,
            "contract": "contracts/SavingBank.sol:SavingBank",
            "label": "depositDate",
            "offset": 0,
            "slot": "6",
            "type": "t_uint256"
          },
          {
            "astId": 10974,
            "contract": "contracts/SavingBank.sol:SavingBank",
            "label": "maturityDate",
            "offset": 0,
            "slot": "7",
            "type": "t_uint256"
          },
          {
            "astId": 10977,
            "contract": "contracts/SavingBank.sol:SavingBank",
            "label": "status",
            "offset": 0,
            "slot": "8",
            "type": "t_enum(DepositStatus)10924"
          }
        ],
        "numberOfBytes": "288"
      },
      "t_struct(RoleData)21_storage": {
        "encoding": "inplace",
        "label": "struct AccessControl.RoleData",
        "members": [
          {
            "astId": 18,
            "contract": "contracts/SavingBank.sol:SavingBank",
            "label": "hasRole",
            "offset": 0,
            "slot": "0",
            "type": "t_mapping(t_address,t_bool)"
          },
          {
            "astId": 20,
            "contract": "contracts/SavingBank.sol:SavingBank",
            "label": "adminRole",
            "offset": 0,
            "slot": "1",
            "type": "t_bytes32"
          }
        ],
        "numberOfBytes": "64"
      },
      "t_struct(SavingPlan)10943_storage": {
        "encoding": "inplace",
        "label": "struct ISavingBankStructs.SavingPlan",
        "members": [
          {
            "astId": 10926,
            "contract": "contracts/SavingBank.sol:SavingBank",
            "label": "id",
            "offset": 0,
            "slot": "0",
            "type": "t_uint256"
          },
          {
            "astId": 10928,
            "contract": "contracts/SavingBank.sol:SavingBank",
            "label": "name",
            "offset": 0,
            "slot": "1",
            "type": "t_string_storage"
          },
          {
            "astId": 10930,
            "contract": "contracts/SavingBank.sol:SavingBank",
            "label": "minDepositAmount",
            "offset": 0,
            "slot": "2",
            "type": "t_uint256"
          },
          {
            "astId": 10932,
            "contract": "contracts/SavingBank.sol:SavingBank",
            "label": "maxDepositAmount",
            "offset": 0,
            "slot": "3",
            "type": "t_uint256"
          },
          {
            "astId": 10934,
            "contract": "contracts/SavingBank.sol:SavingBank",
            "label": "minTermInDays",
            "offset": 0,
            "slot": "4",
            "type": "t_uint32"
          },
          {
            "astId": 10936,
            "contract": "contracts/SavingBank.sol:SavingBank",
            "label": "maxTermInDays",
            "offset": 4,
            "slot": "4",
            "type": "t_uint32"
          },
          {
            "astId": 10938,
            "contract": "contracts/SavingBank.sol:SavingBank",
            "label": "annualInterestRateInBasisPoints",
            "offset": 0,
            "slot": "5",
            "type": "t_uint256"
          },
          {
            "astId": 10940,
            "contract": "contracts/SavingBank.sol:SavingBank",
            "label": "penaltyRateInBasisPoints",
            "offset": 0,
            "slot": "6",
            "type": "t_uint256"
          },
          {
            "astId": 10942,
            "contract": "contracts/SavingBank.sol:SavingBank",
            "label": "isActive",
            "offset": 0,
            "slot": "7",
            "type": "t_bool"
          }
        ],
        "numberOfBytes": "256"
      },
      "t_uint256": {
        "encoding": "inplace",
        "label": "uint256",
        "numberOfBytes": "32"
      },
      "t_uint32": {
        "encoding": "inplace",
        "label": "uint32",
        "numberOfBytes": "4"
      }
    }
  }
}