{
  "address": "0xA78f3F0D5de4C4B7789216Ee5e56f4BE0542e128",
  "abi": [
    {
      "inputs": [
        {
          "internalType": "address",
          "name": "tokenAddress",
          "type": "address"
        }
      ],
      "stateMutability": "nonpayable",
      "type": "constructor"
    },
    {
      "inputs": [],
      "name": "AccessControlBadConfirmation",
      "type": "error"
    },
    {
      "inputs": [
        {
          "internalType": "address",
          "name": "account",
          "type": "address"
        },
        {
          "internalType": "bytes32",
          "name": "neededRole",
          "type": "bytes32"
        }
      ],
      "name": "AccessControlUnauthorizedAccount",
      "type": "error"
    },
    {
      "inputs": [
        {
          "internalType": "uint256",
          "name": "amount",
          "type": "uint256"
        },
        {
          "internalType": "uint256",
          "name": "maximumAllowed",
          "type": "uint256"
        }
      ],
      "name": "AmountAboveMaximum",
      "type": "error"
    },
    {
      "inputs": [
        {
          "internalType": "uint256",
          "name": "amount",
          "type": "uint256"
        },
        {
          "internalType": "uint256",
          "name": "minimumRequired",
          "type": "uint256"
        }
      ],
      "name": "AmountBelowMinimum",
      "type": "error"
    },
    {
      "inputs": [
        {
          "internalType": "uint256",
          "name": "depositId",
          "type": "uint256"
        },
        {
          "internalType": "uint256",
          "name": "remainingSeconds",
          "type": "uint256"
        }
      ],
      "name": "CertificateInCooldown",
      "type": "error"
    },
    {
      "inputs": [],
      "name": "ContractPaused",
      "type": "error"
    },
    {
      "inputs": [
        {
          "internalType": "uint256",
          "name": "depositId",
          "type": "uint256"
        }
      ],
      "name": "DepositAlreadyClosed",
      "type": "error"
    },
    {
      "inputs": [
        {
          "internalType": "uint256",
          "name": "depositId",
          "type": "uint256"
        }
      ],
      "name": "DepositNotActive",
      "type": "error"
    },
    {
      "inputs": [
        {
          "internalType": "uint256",
          "name": "depositId",
          "type": "uint256"
        }
      ],
      "name": "DepositNotFound",
      "type": "error"
    },
    {
      "inputs": [
        {
          "internalType": "uint256",
          "name": "depositId",
          "type": "uint256"
        },
        {
          "internalType": "uint256",
          "name": "maturityTimestamp",
          "type": "uint256"
        },
        {
          "internalType": "uint256",
          "name": "currentTimestamp",
          "type": "uint256"
        }
      ],
      "name": "DepositNotMature",
      "type": "error"
    },
    {
      "inputs": [
        {
          "internalType": "uint256",
          "name": "depositId",
          "type": "uint256"
        }
      ],
      "name": "DepositStillActive",
      "type": "error"
    },
    {
      "inputs": [
        {
          "internalType": "uint256",
          "name": "amount",
          "type": "uint256"
        },
        {
          "internalType": "uint256",
          "name": "maximumAllowed",
          "type": "uint256"
        }
      ],
      "name": "ExcessiveDepositAmount",
      "type": "error"
    },
    {
      "inputs": [
        {
          "internalType": "uint256",
          "name": "amount",
          "type": "uint256"
        },
        {
          "internalType": "uint256",
          "name": "minimumRequired",
          "type": "uint256"
        }
      ],
      "name": "InsufficientDepositAmount",
      "type": "error"
    },
    {
      "inputs": [
        {
          "internalType": "uint256",
          "name": "requested",
          "type": "uint256"
        },
        {
          "internalType": "uint256",
          "name": "available",
          "type": "uint256"
        }
      ],
      "name": "InsufficientVaultLiquidity",
      "type": "error"
    },
    {
      "inputs": [],
      "name": "InvalidAddress",
      "type": "error"
    },
    {
      "inputs": [
        {
          "internalType": "uint256",
          "name": "amount",
          "type": "uint256"
        }
      ],
      "name": "InvalidAmount",
      "type": "error"
    },
    {
      "inputs": [
        {
          "internalType": "uint256",
          "name": "annualInterestRateInBasisPoints",
          "type": "uint256"
        }
      ],
      "name": "InvalidInterestRate",
      "type": "error"
    },
    {
      "inputs": [
        {
          "internalType": "uint256",
          "name": "penaltyRateInBasisPoints",
          "type": "uint256"
        }
      ],
      "name": "InvalidPenaltyRate",
      "type": "error"
    },
    {
      "inputs": [
        {
          "internalType": "uint64",
          "name": "tenorSeconds",
          "type": "uint64"
        }
      ],
      "name": "InvalidTenorSeconds",
      "type": "error"
    },
    {
      "inputs": [
        {
          "internalType": "uint32",
          "name": "termInDays",
          "type": "uint32"
        }
      ],
      "name": "InvalidTermDays",
      "type": "error"
    },
    {
      "inputs": [
        {
          "internalType": "uint256",
          "name": "planId",
          "type": "uint256"
        }
      ],
      "name": "PlanNotEnabled",
      "type": "error"
    },
    {
      "inputs": [
        {
          "internalType": "uint256",
          "name": "planId",
          "type": "uint256"
        }
      ],
      "name": "PlanNotFound",
      "type": "error"
    },
    {
      "inputs": [],
      "name": "ReentrancyGuardReentrantCall",
      "type": "error"
    },
    {
      "inputs": [
        {
          "internalType": "address",
          "name": "token",
          "type": "address"
        }
      ],
      "name": "SafeERC20FailedOperation",
      "type": "error"
    },
    {
      "inputs": [
        {
          "internalType": "uint256",
          "name": "planId",
          "type": "uint256"
        }
      ],
      "name": "SavingPlanNotActive",
      "type": "error"
    },
    {
      "inputs": [
        {
          "internalType": "uint256",
          "name": "planId",
          "type": "uint256"
        }
      ],
      "name": "SavingPlanNotFound",
      "type": "error"
    },
    {
      "inputs": [
        {
          "internalType": "address",
          "name": "caller",
          "type": "address"
        },
        {
          "internalType": "address",
          "name": "expectedOwner",
          "type": "address"
        }
      ],
      "name": "UnauthorizedCaller",
      "type": "error"
    },
    {
      "inputs": [
        {
          "internalType": "address",
          "name": "caller",
          "type": "address"
        },
        {
          "internalType": "uint256",
          "name": "depositId",
          "type": "uint256"
        }
      ],
      "name": "UnauthorizedWithdrawal",
      "type": "error"
    },
    {
      "inputs": [],
      "name": "ZeroAddress",
      "type": "error"
    },
    {
      "inputs": [],
      "name": "ZeroAmount",
      "type": "error"
    },
    {
      "anonymous": false,
      "inputs": [
        {
          "indexed": true,
          "internalType": "address",
          "name": "admin",
          "type": "address"
        },
        {
          "indexed": false,
          "internalType": "uint256",
          "name": "amount",
          "type": "uint256"
        },
        {
          "indexed": false,
          "internalType": "uint256",
          "name": "newBalance",
          "type": "uint256"
        }
      ],
      "name": "AdminWithdrawn",
      "type": "event"
    },
    {
      "anonymous": false,
      "inputs": [
        {
          "indexed": true,
          "internalType": "address",
          "name": "admin",
          "type": "address"
        },
        {
          "indexed": false,
          "internalType": "uint256",
          "name": "amount",
          "type": "uint256"
        },
        {
          "indexed": false,
          "internalType": "uint256",
          "name": "newBalance",
          "type": "uint256"
        }
      ],
      "name": "LiquidityDeposited",
      "type": "event"
    },
    {
      "anonymous": false,
      "inputs": [
        {
          "indexed": true,
          "internalType": "address",
          "name": "caller",
          "type": "address"
        },
        {
          "indexed": false,
          "internalType": "uint256",
          "name": "amount",
          "type": "uint256"
        },
        {
          "indexed": true,
          "internalType": "address",
          "name": "recipient",
          "type": "address"
        },
        {
          "indexed": false,
          "internalType": "uint256",
          "name": "newBalance",
          "type": "uint256"
        }
      ],
      "name": "LiquidityWithdrawn",
      "type": "event"
    },
    {
      "anonymous": false,
      "inputs": [
        {
          "indexed": true,
          "internalType": "bytes32",
          "name": "role",
          "type": "bytes32"
        },
        {
          "indexed": true,
          "internalType": "bytes32",
          "name": "previousAdminRole",
          "type": "bytes32"
        },
        {
          "indexed": true,
          "internalType": "bytes32",
          "name": "newAdminRole",
          "type": "bytes32"
        }
      ],
      "name": "RoleAdminChanged",
      "type": "event"
    },
    {
      "anonymous": false,
      "inputs": [
        {
          "indexed": true,
          "internalType": "bytes32",
          "name": "role",
          "type": "bytes32"
        },
        {
          "indexed": true,
          "internalType": "address",
          "name": "account",
          "type": "address"
        },
        {
          "indexed": true,
          "internalType": "address",
          "name": "sender",
          "type": "address"
        }
      ],
      "name": "RoleGranted",
      "type": "event"
    },
    {
      "anonymous": false,
      "inputs": [
        {
          "indexed": true,
          "internalType": "bytes32",
          "name": "role",
          "type": "bytes32"
        },
        {
          "indexed": true,
          "internalType": "address",
          "name": "account",
          "type": "address"
        },
        {
          "indexed": true,
          "internalType": "address",
          "name": "sender",
          "type": "address"
        }
      ],
      "name": "RoleRevoked",
      "type": "event"
    },
    {
      "anonymous": false,
      "inputs": [
        {
          "indexed": true,
          "internalType": "address",
          "name": "contractAddress",
          "type": "address"
        },
        {
          "indexed": false,
          "internalType": "bool",
          "name": "canWithdraw",
          "type": "bool"
        }
      ],
      "name": "WithdrawPermissionUpdated",
      "type": "event"
    },
    {
      "inputs": [],
      "name": "DEFAULT_ADMIN_ROLE",
      "outputs": [
        {
          "internalType": "bytes32",
          "name": "",
          "type": "bytes32"
        }
      ],
      "stateMutability": "view",
      "type": "function"
    },
    {
      "inputs": [],
      "name": "LIQUIDITY_MANAGER_ROLE",
      "outputs": [
        {
          "internalType": "bytes32",
          "name": "",
          "type": "bytes32"
        }
      ],
      "stateMutability": "view",
      "type": "function"
    },
    {
      "inputs": [],
      "name": "WITHDRAW_ROLE",
      "outputs": [
        {
          "internalType": "bytes32",
          "name": "",
          "type": "bytes32"
        }
      ],
      "stateMutability": "view",
      "type": "function"
    },
    {
      "inputs": [
        {
          "internalType": "uint256",
          "name": "amount",
          "type": "uint256"
        }
      ],
      "name": "adminWithdraw",
      "outputs": [],
      "stateMutability": "nonpayable",
      "type": "function"
    },
    {
      "inputs": [
        {
          "internalType": "address",
          "name": "caller",
          "type": "address"
        }
      ],
      "name": "canWithdraw",
      "outputs": [
        {
          "internalType": "bool",
          "name": "",
          "type": "bool"
        }
      ],
      "stateMutability": "view",
      "type": "function"
    },
    {
      "inputs": [
        {
          "internalType": "uint256",
          "name": "amount",
          "type": "uint256"
        }
      ],
      "name": "depositLiquidity",
      "outputs": [],
      "stateMutability": "nonpayable",
      "type": "function"
    },
    {
      "inputs": [],
      "name": "getBalance",
      "outputs": [
        {
          "internalType": "uint256",
          "name": "",
          "type": "uint256"
        }
      ],
      "stateMutability": "view",
      "type": "function"
    },
    {
      "inputs": [
        {
          "internalType": "bytes32",
          "name": "role",
          "type": "bytes32"
        }
      ],
      "name": "getRoleAdmin",
      "outputs": [
        {
          "internalType": "bytes32",
          "name": "",
          "type": "bytes32"
        }
      ],
      "stateMutability": "view",
      "type": "function"
    },
    {
      "inputs": [],
      "name": "getToken",
      "outputs": [
        {
          "internalType": "address",
          "name": "",
          "type": "address"
        }
      ],
      "stateMutability": "view",
      "type": "function"
    },
    {
      "inputs": [
        {
          "internalType": "bytes32",
          "name": "role",
          "type": "bytes32"
        },
        {
          "internalType": "address",
          "name": "account",
          "type": "address"
        }
      ],
      "name": "grantRole",
      "outputs": [],
      "stateMutability": "nonpayable",
      "type": "function"
    },
    {
      "inputs": [
        {
          "internalType": "address",
          "name": "contractAddress",
          "type": "address"
        }
      ],
      "name": "grantWithdrawRole",
      "outputs": [],
      "stateMutability": "nonpayable",
      "type": "function"
    },
    {
      "inputs": [
        {
          "internalType": "bytes32",
          "name": "role",
          "type": "bytes32"
        },
        {
          "internalType": "address",
          "name": "account",
          "type": "address"
        }
      ],
      "name": "hasRole",
      "outputs": [
        {
          "internalType": "bool",
          "name": "",
          "type": "bool"
        }
      ],
      "stateMutability": "view",
      "type": "function"
    },
    {
      "inputs": [
        {
          "internalType": "bytes32",
          "name": "role",
          "type": "bytes32"
        },
        {
          "internalType": "address",
          "name": "callerConfirmation",
          "type": "address"
        }
      ],
      "name": "renounceRole",
      "outputs": [],
      "stateMutability": "nonpayable",
      "type": "function"
    },
    {
      "inputs": [
        {
          "internalType": "bytes32",
          "name": "role",
          "type": "bytes32"
        },
        {
          "internalType": "address",
          "name": "account",
          "type": "address"
        }
      ],
      "name": "revokeRole",
      "outputs": [],
      "stateMutability": "nonpayable",
      "type": "function"
    },
    {
      "inputs": [
        {
          "internalType": "address",
          "name": "contractAddress",
          "type": "address"
        }
      ],
      "name": "revokeWithdrawRole",
      "outputs": [],
      "stateMutability": "nonpayable",
      "type": "function"
    },
    {
      "inputs": [
        {
          "internalType": "bytes4",
          "name": "interfaceId",
          "type": "bytes4"
        }
      ],
      "name": "supportsInterface",
      "outputs": [
        {
          "internalType": "bool",
          "name": "",
          "type": "bool"
        }
      ],
      "stateMutability": "view",
      "type": "function"
    },
    {
      "inputs": [],
      "name": "token",
      "outputs": [
        {
          "internalType": "contract IERC20",
          "name": "",
          "type": "address"
        }
      ],
      "stateMutability": "view",
      "type": "function"
    },
    {
      "inputs": [
        {
          "internalType": "uint256",
          "name": "amount",
          "type": "uint256"
        },
        {
          "internalType": "address",
          "name": "recipient",
          "type": "address"
        }
      ],
      "name": "withdrawLiquidity",
      "outputs": [],
      "stateMutability": "nonpayable",
      "type": "function"
    }
  ],
  "transactionHash": "0x59b7c51d9ab8e2c1a77e6c9c61680943243a6417de3bb3908c2328bdf5f0af25",
  "args": [
    "0x4806158ad022d93a27bB17eF6d423870BA23fac7"
  ],
  "numDeployments": 1,
  "solcInputHash": "f9d5988c7a39122932fb8f0a840fb2fb",
  "bytecode": "0x60a0346100b057601f61102438819003918201601f19168301916001600160401b038311848410176100b5578084926020946040528339810103126100b057516001600160a01b038116908190036100b05760018055801561009f57608052610067336100cb565b5061007133610147565b50604051610de490816101e08239608051818181610105015281816102f50152818161043e015261058c0152f35b63d92e233d60e01b60005260046000fd5b600080fd5b634e487b7160e01b600052604160045260246000fd5b6001600160a01b0381166000908152600080516020611004833981519152602052604090205460ff16610141576001600160a01b0316600081815260008051602061100483398151915260205260408120805460ff19166001179055339190600080516020610fc48339815191528180a4600190565b50600090565b6001600160a01b0381166000908152600080516020610fe4833981519152602052604090205460ff16610141576001600160a01b03166000818152600080516020610fe483398151915260205260408120805460ff191660011790553391907f77e60b99a50d27fb027f6912a507d956105b4148adab27a86d235c8bcca8fa2f90600080516020610fc48339815191529080a460019056fe608080604052600436101561001357600080fd5b60003560e01c90816301ffc9a71461082d575080630f0821bf146107ca57806312065fe0146107ac57806319262d301461074a57806321df0da7146100e5578063242f05511461070f578063248a9ca3146106da5780632f2ff15d1461069a57806336568abe1461063b57806368fc0c9a146104f957806376d58e1a146103955780637c5b4a37146102ad57806391d148541461025f5780639830088c146101cc578063a217fddf146101b0578063d547741f14610169578063e02023a11461012e5763fc0c546a146100e557600080fd5b346101295760003660031901126101295760206040516001600160a01b037f0000000000000000000000000000000000000000000000000000000000000000168152f35b600080fd5b346101295760003660031901126101295760206040517f5d8e12c39142ff96d79d04d15d1ba1269e4fe57bb9d26f43523628b34ba108ec8152f35b34610129576040366003190112610129576101ae6004356101886108e1565b906101a96101a482600052600060205260016040600020015490565b610957565b610a70565b005b3461012957600036600319011261012957602060405160008152f35b34610129576020366003190112610129576101e56108cb565b6101ed610904565b6001600160a01b0381169081156102355761020790610b06565b507f987bcc0f0901fb6d3a0701fa975e55c8d363529cfd9e28b72b7ac70a14fa86c4602060405160018152a2005b7fd92e233d0000000000000000000000000000000000000000000000000000000060005260046000fd5b34610129576040366003190112610129576102786108e1565b60043560005260006020526001600160a01b0360406000209116600052602052602060ff604060002054166040519015158152f35b34610129576020366003190112610129576004356102c9610904565b6102d1610c67565b801561036b5760025481811061035357816102eb916108f7565b60025561031981337f0000000000000000000000000000000000000000000000000000000000000000610cda565b60025460405191825260208201527f348515158daa04621f6baadb023960236a34fa63b8e08d970a7e1e71e31177e160403392a260018055005b90630f0d4e1b60e31b60005260045260245260446000fd5b7f1f2a20050000000000000000000000000000000000000000000000000000000060005260046000fd5b34610129576020366003190112610129573360009081527fb8a5653c31e8e07e8ef5c22c947cfb9ffb7305e1fa1930db175624824a230ddf60205260409020546004359060ff16156104c0576103e9610c67565b801561036b576104626040517f23b872dd0000000000000000000000000000000000000000000000000000000060208201523360248201523060448201528260648201526064815261043c608482610ca2565b7f0000000000000000000000000000000000000000000000000000000000000000610d31565b6002548181018091116104aa578060025560405191825260208201527fb7cd4486a08dcd2bf7da217a07d1069da69db8ffb3518c7014d6e6d4d973a55260403392a260018055005b634e487b7160e01b600052601160045260246000fd5b63e2517d3f60e01b600052336004527f77e60b99a50d27fb027f6912a507d956105b4148adab27a86d235c8bcca8fa2f60245260446000fd5b34610129576040366003190112610129576004356105156108e1565b3360009081527f20be27040b8e00df40bca0df34743417f3574a156386188f7d7f14369e5ee82b602052604090205490919060ff161561060257610557610c67565b801561036b576001600160a01b038216918215610235576002548281106105ea576105b0916105878480936108f7565b6002557f0000000000000000000000000000000000000000000000000000000000000000610cda565b60025460405191825260208201527fcdb08e7d1a26619add059ae362de512873303dab53c24aa5a7eebc0eddef2ce760403392a360018055005b82630f0d4e1b60e31b60005260045260245260446000fd5b63e2517d3f60e01b600052336004527f5d8e12c39142ff96d79d04d15d1ba1269e4fe57bb9d26f43523628b34ba108ec60245260446000fd5b34610129576040366003190112610129576106546108e1565b336001600160a01b03821603610670576101ae90600435610a70565b7f6697b2320000000000000000000000000000000000000000000000000000000060005260046000fd5b34610129576040366003190112610129576101ae6004356106b96108e1565b906106d56101a482600052600060205260016040600020015490565b610bd4565b34610129576020366003190112610129576020610707600435600052600060205260016040600020015490565b604051908152f35b346101295760003660031901126101295760206040517f77e60b99a50d27fb027f6912a507d956105b4148adab27a86d235c8bcca8fa2f8152f35b34610129576020366003190112610129576107636108cb565b6001600160a01b031660009081527f20be27040b8e00df40bca0df34743417f3574a156386188f7d7f14369e5ee82b602090815260409182902054915160ff9092161515825290f35b34610129576000366003190112610129576020600254604051908152f35b34610129576020366003190112610129576107e36108cb565b6107eb610904565b6107f48161099e565b507f987bcc0f0901fb6d3a0701fa975e55c8d363529cfd9e28b72b7ac70a14fa86c460206001600160a01b0360405193600085521692a2005b3461012957602036600319011261012957600435907fffffffff00000000000000000000000000000000000000000000000000000000821680920361012957817f7965db0b00000000000000000000000000000000000000000000000000000000602093149081156108a1575b5015158152f35b7f01ffc9a7000000000000000000000000000000000000000000000000000000009150148361089a565b600435906001600160a01b038216820361012957565b602435906001600160a01b038216820361012957565b919082039182116104aa57565b3360009081527fad3228b676f7d3cd4284a5443f17f1962b36e491b30a40b2405849e597ba5fb5602052604090205460ff161561093d57565b63e2517d3f60e01b60005233600452600060245260446000fd5b80600052600060205260406000206001600160a01b03331660005260205260ff60406000205416156109865750565b63e2517d3f60e01b6000523360045260245260446000fd5b6001600160a01b03811660009081527f20be27040b8e00df40bca0df34743417f3574a156386188f7d7f14369e5ee82b602052604090205460ff1615610a6a576001600160a01b031660008181527f20be27040b8e00df40bca0df34743417f3574a156386188f7d7f14369e5ee82b60205260408120805460ff191690553391907f5d8e12c39142ff96d79d04d15d1ba1269e4fe57bb9d26f43523628b34ba108ec907ff6391f5c32d9c69d2a47ea670b442974b53935d1edc7fd64eb21e047a839171b9080a4600190565b50600090565b80600052600060205260406000206001600160a01b03831660005260205260ff60406000205416600014610aff5780600052600060205260406000206001600160a01b038316600052602052604060002060ff1981541690556001600160a01b03339216907ff6391f5c32d9c69d2a47ea670b442974b53935d1edc7fd64eb21e047a839171b600080a4600190565b5050600090565b6001600160a01b03811660009081527f20be27040b8e00df40bca0df34743417f3574a156386188f7d7f14369e5ee82b602052604090205460ff16610a6a576001600160a01b031660008181527f20be27040b8e00df40bca0df34743417f3574a156386188f7d7f14369e5ee82b60205260408120805460ff191660011790553391907f5d8e12c39142ff96d79d04d15d1ba1269e4fe57bb9d26f43523628b34ba108ec907f2f8788117e7eff1d82e926ec794901d17c78024a50270940304540a733656f0d9080a4600190565b80600052600060205260406000206001600160a01b03831660005260205260ff6040600020541615600014610aff5780600052600060205260406000206001600160a01b0383166000526020526040600020600160ff198254161790556001600160a01b03339216907f2f8788117e7eff1d82e926ec794901d17c78024a50270940304540a733656f0d600080a4600190565b600260015414610c78576002600155565b7f3ee5aeb50000000000000000000000000000000000000000000000000000000060005260046000fd5b90601f8019910116810190811067ffffffffffffffff821117610cc457604052565b634e487b7160e01b600052604160045260246000fd5b610d2f926001600160a01b03604051937fa9059cbb000000000000000000000000000000000000000000000000000000006020860152166024840152604483015260448252610d2a606483610ca2565b610d31565b565b906000602091828151910182855af115610da2576000513d610d9957506001600160a01b0381163b155b610d625750565b6001600160a01b03907f5274afe7000000000000000000000000000000000000000000000000000000006000521660045260246000fd5b60011415610d5b565b6040513d6000823e3d90fdfea2646970667358221220c4531e3dd43594e10520e9aac4555be59f1e224c9b7ef4451625a2d4de3cc90a64736f6c634300081c00332f8788117e7eff1d82e926ec794901d17c78024a50270940304540a733656f0db8a5653c31e8e07e8ef5c22c947cfb9ffb7305e1fa1930db175624824a230ddfad3228b676f7d3cd4284a5443f17f1962b36e491b30a40b2405849e597ba5fb5",
  "devdoc": {
    "author": "Saving Banking Team",
    "details": "Implements role-based access control for secure liquidity management  Purpose: - Holds deposited tokens from user savings - Provides liquidity for interest payments at maturity - Enables admin emergency withdrawals  Security: - LIQUIDITY_MANAGER_ROLE: Can deposit liquidity (typically SavingBank contract) - WITHDRAW_ROLE: Can withdraw liquidity for user payouts (typically SavingBank) - DEFAULT_ADMIN_ROLE: Can perform admin withdrawals and manage roles - All state-changing functions are protected by ReentrancyGuard",
    "errors": {
      "AccessControlBadConfirmation()": [
        {
          "details": "The caller of a function is not the expected one. NOTE: Don't confuse with {AccessControlUnauthorizedAccount}."
        }
      ],
      "AccessControlUnauthorizedAccount(address,bytes32)": [
        {
          "details": "The `account` is missing a role."
        }
      ],
      "ReentrancyGuardReentrantCall()": [
        {
          "details": "Unauthorized reentrant call."
        }
      ],
      "SafeERC20FailedOperation(address)": [
        {
          "details": "An operation with an ERC-20 token failed."
        }
      ]
    },
    "events": {
      "RoleAdminChanged(bytes32,bytes32,bytes32)": {
        "details": "Emitted when `newAdminRole` is set as ``role``'s admin role, replacing `previousAdminRole` `DEFAULT_ADMIN_ROLE` is the starting admin for all roles, despite {RoleAdminChanged} not being emitted to signal this."
      },
      "RoleGranted(bytes32,address,address)": {
        "details": "Emitted when `account` is granted `role`. `sender` is the account that originated the contract call. This account bears the admin role (for the granted role). Expected in cases where the role was granted using the internal {AccessControl-_grantRole}."
      },
      "RoleRevoked(bytes32,address,address)": {
        "details": "Emitted when `account` is revoked `role`. `sender` is the account that originated the contract call:   - if using `revokeRole`, it is the admin role bearer   - if using `renounceRole`, it is the role bearer (i.e. `account`)"
      }
    },
    "kind": "dev",
    "methods": {
      "adminWithdraw(uint256)": {
        "params": {
          "amount": "S lng token admin rt"
        }
      },
      "constructor": {
        "details": "Grants DEFAULT_ADMIN_ROLE and LIQUIDITY_MANAGER_ROLE to deployer",
        "params": {
          "tokenAddress": "Address of the ERC20 token to manage"
        }
      },
      "depositLiquidity(uint256)": {
        "params": {
          "amount": "S lng token np vo"
        }
      },
      "getRoleAdmin(bytes32)": {
        "details": "Returns the admin role that controls `role`. See {grantRole} and {revokeRole}. To change a role's admin, use {_setRoleAdmin}."
      },
      "grantRole(bytes32,address)": {
        "details": "Grants `role` to `account`. If `account` had not been already granted `role`, emits a {RoleGranted} event. Requirements: - the caller must have ``role``'s admin role. May emit a {RoleGranted} event."
      },
      "grantWithdrawRole(address)": {
        "details": "Only callable by DEFAULT_ADMIN_ROLE",
        "params": {
          "contractAddress": "The address to grant WITHDRAW_ROLE"
        }
      },
      "hasRole(bytes32,address)": {
        "details": "Returns `true` if `account` has been granted `role`."
      },
      "renounceRole(bytes32,address)": {
        "details": "Revokes `role` from the calling account. Roles are often managed via {grantRole} and {revokeRole}: this function's purpose is to provide a mechanism for accounts to lose their privileges if they are compromised (such as when a trusted device is misplaced). If the calling account had been revoked `role`, emits a {RoleRevoked} event. Requirements: - the caller must be `callerConfirmation`. May emit a {RoleRevoked} event."
      },
      "revokeRole(bytes32,address)": {
        "details": "Revokes `role` from `account`. If `account` had been granted `role`, emits a {RoleRevoked} event. Requirements: - the caller must have ``role``'s admin role. May emit a {RoleRevoked} event."
      },
      "revokeWithdrawRole(address)": {
        "details": "Only callable by DEFAULT_ADMIN_ROLE",
        "params": {
          "contractAddress": "The address to revoke WITHDRAW_ROLE from"
        }
      },
      "supportsInterface(bytes4)": {
        "details": "See {IERC165-supportsInterface}."
      },
      "withdrawLiquidity(uint256,address)": {
        "params": {
          "amount": "S lng token rt ra",
          "recipient": "a ch nhn token"
        }
      }
    },
    "stateVariables": {
      "_balance": {
        "details": "Internal balance tracking (should match actual token balance)"
      }
    },
    "title": "Vault",
    "version": 1
  },
  "userdoc": {
    "events": {
      "AdminWithdrawn(address,uint256,uint256)": {
        "notice": "Khi admin rt token khn cp"
      },
      "LiquidityDeposited(address,uint256,uint256)": {
        "notice": "Khi admin np token vo vault"
      },
      "LiquidityWithdrawn(address,uint256,address,uint256)": {
        "notice": "Khi authorized contract rt token t vault"
      },
      "WithdrawPermissionUpdated(address,bool)": {
        "notice": "Khi grant/revoke quyn withdraw cho contract"
      }
    },
    "kind": "user",
    "methods": {
      "LIQUIDITY_MANAGER_ROLE()": {
        "notice": "Role for depositing liquidity into the vault"
      },
      "WITHDRAW_ROLE()": {
        "notice": "Role for withdrawing liquidity from the vault"
      },
      "adminWithdraw(uint256)": {
        "notice": "Rt token dnh cho admin (emergency)"
      },
      "canWithdraw(address)": {
        "notice": "Kim tra mt contract c quyn rt khng"
      },
      "constructor": {
        "notice": "Initializes the vault with the specified token"
      },
      "depositLiquidity(uint256)": {
        "notice": "Np token vo vault (ch admin c th gi)"
      },
      "getBalance()": {
        "notice": "Kim tra s d vault"
      },
      "getToken()": {
        "notice": "Ly a ch token c vault qun l"
      },
      "grantWithdrawRole(address)": {
        "notice": "Grants withdrawal permission to a contract"
      },
      "revokeWithdrawRole(address)": {
        "notice": "Revokes withdrawal permission from a contract"
      },
      "token()": {
        "notice": "The ERC20 token managed by this vault"
      },
      "withdrawLiquidity(uint256,address)": {
        "notice": "Rt token t vault (ch authorized contracts)"
      }
    },
    "notice": "Manages liquidity for the SavingBank system's interest payments",
    "version": 1
  },
  "storageLayout": {
    "storage": [
      {
        "astId": 26,
        "contract": "contracts/vault/Vault.sol:Vault",
        "label": "_roles",
        "offset": 0,
        "slot": "0",
        "type": "t_mapping(t_bytes32,t_struct(RoleData)21_storage)"
      },
      {
        "astId": 3504,
        "contract": "contracts/vault/Vault.sol:Vault",
        "label": "_status",
        "offset": 0,
        "slot": "1",
        "type": "t_uint256"
      },
      {
        "astId": 11508,
        "contract": "contracts/vault/Vault.sol:Vault",
        "label": "_balance",
        "offset": 0,
        "slot": "2",
        "type": "t_uint256"
      }
    ],
    "types": {
      "t_address": {
        "encoding": "inplace",
        "label": "address",
        "numberOfBytes": "20"
      },
      "t_bool": {
        "encoding": "inplace",
        "label": "bool",
        "numberOfBytes": "1"
      },
      "t_bytes32": {
        "encoding": "inplace",
        "label": "bytes32",
        "numberOfBytes": "32"
      },
      "t_mapping(t_address,t_bool)": {
        "encoding": "mapping",
        "key": "t_address",
        "label": "mapping(address => bool)",
        "numberOfBytes": "32",
        "value": "t_bool"
      },
      "t_mapping(t_bytes32,t_struct(RoleData)21_storage)": {
        "encoding": "mapping",
        "key": "t_bytes32",
        "label": "mapping(bytes32 => struct AccessControl.RoleData)",
        "numberOfBytes": "32",
        "value": "t_struct(RoleData)21_storage"
      },
      "t_struct(RoleData)21_storage": {
        "encoding": "inplace",
        "label": "struct AccessControl.RoleData",
        "members": [
          {
            "astId": 18,
            "contract": "contracts/vault/Vault.sol:Vault",
            "label": "hasRole",
            "offset": 0,
            "slot": "0",
            "type": "t_mapping(t_address,t_bool)"
          },
          {
            "astId": 20,
            "contract": "contracts/vault/Vault.sol:Vault",
            "label": "adminRole",
            "offset": 0,
            "slot": "1",
            "type": "t_bytes32"
          }
        ],
        "numberOfBytes": "64"
      },
      "t_uint256": {
        "encoding": "inplace",
        "label": "uint256",
        "numberOfBytes": "32"
      }
    }
  }
}